:020000040000FA
:10000000E80B00207514000091400000A5140000CA
:10001000A5140000A5140000A5140000A5140000FC
:10002000000000000000000000000000BD12000001
:10003000A514000000000000751200008F3F0000B2
:10004000351400003514000035140000351400008C
:10005000351400003514000035140000351400007C
:10006000351400003514000035140000351400006C
:10007000351400003514000035140000351400005C
:10008000351400003514000035140000351400004C
:10009000351400003514000035140000351400003C
:1000A000351400003514000035140000351400002C
:1000B000351400003514000035140000351400001C
:1000C000351400003514000035140000351400000C
:1000D00035140000351400003514000035140000FC
:1000E00035140000351400003514000035140000EC
:1000F00035140000351400003514000035140000DC
:1001000035140000351400003514000035140000CB
:1001100035140000351400003514000035140000BB
:1001200035140000351400003514000035140000AB
:10013000351400003514000035140000351400009B
:100140003514000000000000000000000000000066
:10015000000000000000000000000000000000009F
:10016000000000000000000000000000000000008F
:10017000000000000000000000000000000000007F
:10018000000000000000000000000000000000006F
:10019000000000000000000000000000000000005F
:1001A000000000000000000000000000000000004F
:1001B000000000000000000000000000000000003F
:1001C000000000000000000000000000000000002F
:1001D000000000000000000000000000000000001F
:1001E000000000000000000000000000000000000F
:1001F00000000000000000000000000000000000FF
:10020000DEE61E284CBBCE8F025B00003C000000E7
:10021000008000000100000000000000000000005D
:10022000FFFF02910000000000000000000000003D
:1002300000000000000000000000000053B94AB9AF
:10024000002908BF00281CBF4FF0FF314FF0FF30DE
:1002500000F06EB9ADF1080C6DE904CE00F006F8BF
:10026000DDF804E0DDE9022304B070472DE9F04F2A
:10027000099D0F4604468946002B7CD18A421646CA
:1002800040D9B2FA82F24AB1C2F1200107FA02F370
:100290009640944020FA01F141EA03094FEA164ED4
:1002A000270C1FFA86F8B9FBFEFC0EFB1C930CFB17
:1002B00008F147EA0343994206D9F31802D299425A
:1002C00000F223810CF1FF3C591AA3B2B1FBFEF0FE
:1002D0000EFB101100FB08F843EA0144A04505D9C4
:1002E000341902D2A04500F20D810138A4EB0804B4
:1002F00040EA0C4000211DB1D4400023C5E9004371
:10030000BDE8F08F02B9FFDEB2FA82F2002A4DD1C9
:100310008F1B4FEA164E1FFA86F80121230CB7FBFC
:10032000FEFC0EFB1C7708FB0CF043EA07439842E7
:100330000AD9F3182CBF01270027984202D9002FB1
:1003400000F0D9800CF1FF3C1F1AA3B2B7FBFEF0FE
:100350000EFB107708FB00F843EA0744A04505D9D7
:10036000341902D2A04500F2CA800138A4EB080477
:1003700040EA0C40BFE78B4208D9002D00F0B28064
:100380000021C5E900070846BDE8F08FB3FA83F104
:10039000002949D1BB42C0F0A880824240F2A5802A
:1003A0000846002DACD0C5E90049A9E7C2F12000FC
:1003B0009640914027FA00F34FEA164E24FA00F7D0
:1003C0001FFA86F894400F43B3FBFEF04FEA174C38
:1003D0000EFB103300FB08F14CEA034399420CD9A1
:1003E000F3182CBF4FF0010C4FF0000C994203D9C9
:1003F000BCF1000F00F0928001385B1ABFB2B3FB72
:10040000FEF10EFB113301FB08FC47EA0347BC4534
:1004100005D9F71902D2BC4500F287800139A7EB54
:100420000C0741EA004179E7C1F1200603FA01F423
:1004300002FA01FC07FA01F8F24027FA06F320FA63
:1004400006F700FA01FE224347EA08044FEA124881
:10045000200C1FFA82F9B3FBF8FA08FB1A370AFBE3
:1004600009FB40EA0747BB4509D9D7192CBF01232F
:100470000023BB4501D9002B53D00AF1FF3AA7EB6B
:100480000B07A4B2B7FBF8F008FB107700FB09F9E3
:1004900044EA0747B94504D9D71901D2B9453AD832
:1004A000013840EA0A40A7EB0907A0FB0C894F4539
:1004B000C3464C4602D307D1C64505D2B8EB0C0B58
:1004C00069EB0202013814461DB3BEEB0B0367EB68
:1004D000040707FA06F6CB40CF4000211E43C5E9CA
:1004E00000670DE7294628460AE7841A67EB0303ED
:1004F0000120994655E7ACF1020C334424E7023859
:10050000344433E702383444F0E6ACF1020C3344AF
:10051000DAE62946F4E602381744C2E702383344E3
:100520006BE7AAF1020A1744A9E70239374476E7D4
:10053000704700BF2DE9E04F2746A046A146A246DE
:10054000A346A4462DED108B4FF0000545EC185B3B
:1005500045EC195A45EC1A5A45EC1B5A45EC1C5A05
:1005600045EC1D5A45EC1E5A45EC1F5AF1EE105A47
:100570004FF66076C0F6FF763540E1EE105A84F310
:10058000008825462646A447BDEC108BBDE8E08FC9
:100590000B6801330B60014B1B68184700000020FB
:1005A0002DE9F04F2DED028B83B00E9C9A46012C65
:1005B000B8BF0124012B0CBF30232023154606466B
:1005C00008EE103A01274FF00A080022DFF874B055
:1005D000B5FBFBF90AB9AB4520D809F13000009111
:1005E000B0470122013700990A2308F1FF38B8F11A
:1005F000010F0BFB1955BBFBF3FBE9D105F13000F3
:100600000091B047BAF1030F009902D1E41B002C0E
:1006100011DC03B0BDEC028BBDE8F08F4445E3DB99
:10062000BAF1020FE0D818EE100ACDE90012013736
:10063000B047019AD7E720200091013CB0470099CC
:10064000E5E700BF00CA9A3B014B1860704700BF46
:10065000000000202DE9F04F002705468B464FF0A3
:10066000FF39B8461C468DB0531E0393002605E0A3
:100670006EB9252800F071815946A847039B13F8ED
:10068000010F03930028F3D10DB0BDE8F08F7A2855
:100690000AD8622810D8302854D045D8252800F030
:1006A0005A812D2800F05F8159462520A8475946D8
:1006B000039B1878A847D9E7A0F16303172BF3D859
:1006C00001A252F823F000BF4F0900009307000079
:1006D000A9060000A9060000A90600007507000091
:1006E00093070000A9060000A90600007507000096
:1006F000A9060000A9060000A906000035080000B0
:10070000A9060000A90600001F090000A9060000B4
:1007100003080000A9060000A90600003107000038
:10072000A90600007507000039281AD95828BBD13E
:10073000039B1B78702B40F0888054F8043B002208
:10074000069390E0B9F1000F0EDAB8F1000F00F057
:100750000D81A0F13009B8F1000F08BF4FF0020879
:100760008CE7B9F1000FF4DB0A2303FB0909A9F1B7
:100770003009F0E7682803D1682F06D148277DE7C4
:100780006C2802D16C2F00F0F480002F8CD107462A
:1007900074E77A2F02D154F8046B21E06C2FFAD061
:1007A0004C2FF8D1073424F00704F4E80223CDE9F4
:1007B0000423049B4FF0FF3013F10041059B089187
:1007C00043F1000109910021DDE90823994208BFA6
:1007D000904204D25946284603F04FFA46E7049E59
:1007E000002E05DA59462D20A847764209F1FF3937
:1007F00043463246CDF8009059462846FFF7D0FED2
:1008000034E77A2F02D154F8042B0FE06C2FFAD082
:100810004C2FF8D100214FF0FF30073424F00704AB
:10082000F4E80223994208BF9042D3D34346CDF85F
:100830000090E1E759463020A84759467820A8475C
:100840004FF008094FF0010872E76C2F3FF475AFC5
:100850004C2F7FF472AFE31D23F007031C4654F8BE
:10086000082B06925A68002110234FF0400A049189
:100870000791AAF1040A0699CAF1200EAAF1200CE8
:1008800021FA0AF002FA0EFE40EA0E0022FA0CFCEF
:1008900040EA0C0010F00F0007D1079911B9BAF126
:1008A000000F25D14FF0300C05E009288CBF4FF028
:1008B000570C4FF0300C6044594640B20A920793EF
:1008C000A847049B0A9A01330493079BBAF1000FCF
:1008D00023D1B8F1030F7FF4C9AE049BC3EB4906E3
:1008E000002E7FF7C3AE59462020A847013EF7E708
:1008F000591E99450A9107DBB8F1010F06D15946F7
:1009000030200B92A8470B9A0A9BB2E7B8F1020F6E
:10091000FAD1594620200B92F4E70796A9E754F83C
:10092000046BB24653461AF8010B68B9B8F1030FCD
:1009300021D19E1BA9EB0606002E7FF797AE5946E4
:100940002020A847013EF7E75946A847EAE759465D
:1009500054F8040BAEE65946ACE63746B0464FF0C5
:10096000FF3901268AE64FF0030887E64FF00108B9
:1009700084E64C2782E6064680E600BF07B50B46B4
:10098000002102460191034801A9FFF763FE03B06D
:100990005DF804FB910500004FF02002EFF3118396
:1009A00082F31188BFF36F8F0121044AC2F840150A
:1009B00083F31188BFF36F8F0020704700900350BE
:1009C00020B1034B800143F001031847704700BF7B
:1009D0006048000008B5064801F00CFB054B1860A4
:1009E000054801F0A7F80448FFF72EFE002008BDD7
:1009F000E84A000050010020FD0900000A2838B52F
:100A00000446074D04D1286883680D215B68984728
:100A100028688368E1B25B689847204638BD00BF0C
:100A200050010020F8B50C24114F0546FB6804FB6B
:100A30000034012363724FF02003EFF3118183F33D
:100A40001188BFF36F8F23682BB166681A68B342B1
:100A5000226008BF626081F31188BFF36F8F03B912
:100A6000F8BD2946D3E901623846B047E3E700BF45
:100A70009400002008B5114B1A686AB14FF050225B
:100A8000D2F80423D10707D500221A600C4BDB688B
:100A9000587A08B9FFF7C6FF0A4B1A6862B14FF0DF
:100AA0005022D2F80423920706D5002201201A60B2
:100AB000BDE80840FFF7B6BF08BD00BF00510050B9
:100AC0009400002004510050821C084B22F07F4209
:100AD000C3F84025D3F80425904200D17047D3F8DD
:100AE0000405821C22F07F42F2E700BF0050015053
:100AF0000022064B1A60064AD3F800041368C01A95
:100B000020F07F400344136002F048B94051015087
:100B10006C01002038B5144801F06CFA00B383680A
:100B2000002401211B6898474FF400120F4D104B11
:100B3000C5F808451C600F4B0121C3F880214FF414
:100B400080332246C5F80433152000F0D7FB15206A
:100B500000F0C4FB01232046074A13602B6038BD18
:100B60004FF0FF30FBE700BFAF4C000000500150DA
:100B70004051015000E100E008500150F8B52C4B05
:100B80002C4CD3F804252C4BB0F1FF3F08BF204676
:100B90001968521A22F07F43120236D4013820EA33
:100BA000E070A042A8BF204601331844A04294BF81
:100BB0000C180C194FF4803000271D4B1F4EC3F842
:100BC0000803D3F80415D3F8402521F07F45521AC5
:100BD00022F07F42012A3760C3F840551D46C3F812
:100BE000440303D10F2003F08AFC37604FF4001256
:100BF000134BC3F88021D5F80405231A23F07F4353
:100C0000012B04D1FFF760FF0BE00020CCE724F0BC
:100C10007F43C5F84035D5F80405241A023C230269
:100C2000F0D44FF48032024BC3F80423F8BD00BF68
:100C300000500150FFFF7F006C0100204051015027
:100C400000E100E04FF02002EFF3118382F31188FE
:100C5000BFF36F8F064AD2F80405064A1268801A5D
:100C600020F07F4083F31188BFF36F8F704700BF80
:100C7000005001506C010020F7B500281C460D46BD
:100C800014BF4FF400534FF40043204E954232D32B
:100C900002FB03F0013A4B4300901D4802F0FBFFBA
:100CA0001C4B14F0100F1C491C4808BF194602F0D9
:100CB000F2FF14F0040F14BF72212D21184802F026
:100CC000EAFF14F0020F14BF77212D21144802F01F
:100CD000E2FF14F0010F0CBF2D217821104802F023
:100CE000DAFF6C210E4802F0D6FF0E4803B0BDE8D3
:100CF000F04002F0D0BF28B105F5E07746F8274074
:100D00000135C3E705F5C077F8E700BF00300050B4
:100D10000E4B0000024B0000F94A00008D4C000011
:100D2000284B0000634E000008B543B2002B0CDBDB
:100D3000012200F01F018A405B091049203341F86D
:100D40002320BFF34F8FBFF36F8F830003F1A043C6
:100D500003F540533128D3F8002806D0002A07DADB
:100D600002F00302023A012A02D8054AC3F8002819
:100D7000002103F05EF9002008BD00BF00E100E0A3
:100D80000001008030B54FF440444CF2040585B0BA
:100D90004FF440412C4802F07EFF21682B4802F0BE
:100DA0007AFF29682A4802F076FF1022002168465F
:100DB00003F0FDF9236868460093029400F044FEB6
:100DC000012000F071FE002000F05AFE002000F02B
:100DD0007FFE0121002000F099FE00F08DFE2C68BE
:100DE0001C4802F058FF0820FFF79EFF24F0010482
:100DF000BFF34F8FBFF36F8F640864002046214616
:100E000022462346B7EE000AF7EE000AB7EE001AB4
:100E1000F7EE001AB7EE002AF7EE002AB7EE003A16
:100E2000F7EE003AB7EE004AF7EE004AB7EE005A86
:100E3000F7EE005AB7EE006AF7EE006AB7EE007AF6
:100E4000F7EE007AFFF776FB2B4B0000424B0000D9
:100E5000574B0000754B00002DE9F8433B4802F06A
:100E60001AFF002140F2171308460122FFF704FF82
:100E700040F20713202201210020FFF7FDFE344835
:100E800002F009FF334B344AC3F3C431C3F30E03FA
:100E9000C3F50043C3F34313C2F80015C2F8043589
:100EA000D2F80015D2F804252C48520102F0F3FEC6
:100EB000274802F0F0FE03F06CF8014610B1284814
:100EC00002F0E9FE0024274802F0E5FE40F2171385
:100ED000082200210120FFF7CFFE1F4D40F207132B
:100EE000202208210120FFF7C7FE194802F0D3FE97
:100EF000C5F880441C4802F0CEFE1C4FC5F8C04423
:100F0000DFF87C801A4DDFF87C906E792146002E48
:100F100014BF3B46434648462A6802F0BCFE66B909
:100F20001448013402F0B7FE1A2C05F10805ECD183
:100F30000748BDE8F84302F0AEBE2879FFF7F4FE9B
:100F400008B10D48EDE70D48EBE700BFAB4B0000E3
:100F5000634E0000E07F000000300050CF4B0000E7
:100F6000154C0000454C0000674C0000A04B0000F1
:100F70007C480000904C0000974C00009F4C000003
:100F8000064B0000834C000010B500284BD0002A0F
:100F900049D0264B99423CD9541803F61D239C4254
:100FA0003AD803F0D9F80020BDE8104071467246E7
:100FB0007346B7EE000AF7EE000AB7EE001AF7EE36
:100FC000001AB7EE002AF7EE002AB7EE003AF7EE65
:100FD000003AB7EE004AF7EE004AB7EE005AF7EED5
:100FE000005AB7EE006AF7EE006AB7EE007AF7EE45
:100FF000007A8EF3008C10B4F1EE10CA4FF66074D4
:10100000C0F6FF740CEA040CE1EE10CA10BCF44602
:101010007447074B994203D9064B54189C42C0D9D8
:101020004FF0FF30C0E76FF01500BDE70302FF008F
:101030002F01FF003801FF002DE9F04F81460E46D9
:1010400085B0002954D04FF00008DFF8B8B0DFF8C1
:10105000B8A001AF5BF8045B9AE807004D4487E84D
:1010600007000C223946284603F04FF8044608B919
:10107000002D40D108F10108B8F1050FEAD16FF059
:101080000D04204605B0B7EE000AF7EE000AB7EEF1
:10109000001AF7EE001AB7EE002AF7EE002AB7EEB4
:1010A000003AF7EE003AB7EE004AF7EE004AB7EE24
:1010B000005AF7EE005AB7EE006AF7EE006AB7EE94
:1010C000007ABDE8F04F714672467346F7EE007A3B
:1010D0008EF3008C10B4F1EE10CA4FF66074C0F6B7
:1010E000FF740CEA040CE1EE10CA10BCF44674471D
:1010F0006FF01504C5E73C222946304603F02CF872
:10110000BFE700BF4C49000010480000014802F052
:10111000C9B800BF6049000008B530B143683BB1B1
:10112000006801F069F9002008BD6FF4E040FBE7BA
:101130000048F9E7EA8FFFFF38B5044618B90B4BB2
:101140000B485B689847656855B115F00205206843
:1011500007D10146074801F0ADF825600023636020
:1011600038BD1422002103F022F8F7E768000020C0
:10117000A04D00007001002010B5044618B9144BB2
:1011800014485B6898476368CBB92368BBB94FF0D4
:10119000FF324FF0FF3321460F4801F059F808B9EC
:1011A00023681BB90A4B0D485B689847142200213D
:1011B000206802F0FCFF636843F00203636020686C
:1011C00003F0C2F8636843F00103636010BD00BF21
:1011D00068000020A04D000070010020C64D0000F6
:1011E00008B568B1436873B100684FF0FF334FF042
:1011F000FF3201F089F8054B002818BF184608BDDA
:101200006FF4E040FBE70248F9E700BFE98FFFFF1A
:10121000EA8FFFFF08B5064940231422054803F072
:1012200078F8BDE808400449044802F073B800BFEC
:101230008C010020700100207849000068490000FE
:10124000094A0A4993680968D866196708494B68CA
:1012500043F080534B60002383F31188BFF36F8FFB
:101260009368186F704700BF88070020EC490000A2
:1012700000ED00E00F498A684FF030001044EFF3B2
:10128000098C80E8F01F202080F31188BFF36F8F56
:10129000094F4FF000664A6A8A603E60D06E0023B4
:1012A000D36680F3118802F1300090E8F01F8CF3D0
:1012B000098870478807002004ED00E01EF0040F45
:1012C0000CBFEFF30880EFF30980816911F8021C6D
:1012D0000229FFD001B502F0D7FE01BD43B2002BB9
:1012E00008DB012200F01F0002FA00F0024A5B094D
:1012F00042F82300704700BF00E100E043B2002B3A
:1013000001F10101ACBF03F16043064B4FEA41110B
:10131000C9B2ABBF03F5614300F00F0083F80013BF
:101320001954704714ED00E0C0E918120A44203A3D
:1013300022F007021360009B07495360019B21F0D4
:1013400001019360029B9161D3604FF08073D36180
:1013500000230265C3667047B13C0000F8B51D4626
:1013600006460C4617460023E1EE103A00F0F4F969
:10137000084BE21922F007049E60284684F309888E
:10138000002163B681F31188BFF36F8F0022002321
:1013900002F08EFC88070020014910220A60704785
:1013A00010ED00E072B6404080F31188BFF36F8FFC
:1013B000BFF34F8F30BF62B6BFF36F8F704700BF70
:1013C00030BFFFF7FDBF00BF174A08B5174B22F02B
:1013D0007F029A60BFF34F8FBFF36F8FD3F88820DF
:1013E00022F47002C3F88820D3F8882042F4A002C7
:1013F000C3F888200E4A536823F040435360BFF37C
:101400004F8FBFF36F8F0023E1EE103AEFF3148399
:1014100023F0040383F3148800F02AFE00F032FE68
:1014200000F068F900F06CFE0000000000ED00E044
:1014300030EF00E001B572B60B4A106A00281EBFFB
:101440000021116202F063FF62B6EFF30580A0F1A4
:1014500010004FEAC0000549014409C99847BDE89A
:1014600001400349084700008807002000460000AB
:10147000B516000002F0D1FC202080F31188084846
:101480004FF40061401880F30988EFF314800221C3
:10149000084380F31488BFF36F8FFFF795FF0000B8
:1014A000280D0020EFF30880EFF30981724601B5A3
:1014B00000F06CF801BD00BF0C4B9A6A9A6A9A6AF8
:1014C000920708D55A6B9A6A120604D518B19A6A1F
:1014D00022F080029A620020044B9A6A9A6A9A6A01
:1014E0009A6A42F0FF029A620870704700ED00E0CD
:1014F0000D4B9A6A9A6A9A6A920508D59A6B9A6A0B
:10150000120404D518B19A6A22F400429A620020AB
:10151000054B9A6A9A6AD20558BF9A6A9A6A42F447
:101520007F429A620870704700ED00E0074B002090
:101530009A6A9A6A9A6A9A6A9A6A9A6A9A6A9A6A8B
:101540006FEA02426FEA12429A62704700ED00E0D1
:101550000D4B9A695A695A69D0070FD45A69910795
:101560000CD45A69520709D45A69100706D45A692B
:10157000D10603D45A69920658BF5A695A6942F093
:10158000FF025A61704700BFD0ED00E0F0B5414B5B
:1015900000255B688BB0C3F3080385F31188BFF3A4
:1015A0006F8F02F07F44B4F17F4F1ED112F001041F
:1015B0001AD0560602F0080467D482F00402C2F37F
:1015C000800564B1EFF389860022033B8DF8072084
:1015D000042B4BD8DFE803F00B4C50414800EFF3ED
:1015E0008886F1E70E46EFE725462E46ECE7294BC5
:1015F000DA6A92073AD4DC6A14F0804408D02833BF
:101600001B78EBB101200DF10701FFF755FF0446F0
:101610009DF8073093B92022314602A802F09CFDC4
:10162000099B6DB3C3F3080222B96FEA53236FEA33
:1016300043230993204602A902F024FD0BB0F0BD1C
:10164000154B1B782BB101200DF10701FFF750FF5F
:10165000DDE7124B1F88BFB217B1FFF767FFD6E770
:101660000F4B5C69002CD3D0FFF772FF0024CFE74B
:1016700000200DF10701C8E700200DF10701E5E7A3
:1016800023F4FF7323F00103D3E7002CAAD106460D
:10169000012599E700ED00E029ED00E02AED00E0EA
:1016A000D0ED00E0024A536943F0100353617047E4
:1016B00000ED00E0044B9968586A884203D0034962
:1016C0004FF080520A6070478807002004ED00E068
:1016D000BFF34F8F0549064BCA6802F4E06213431B
:1016E000CB60BFF34F8F00BFFDE700BF00ED00E010
:1016F0000400FA05002320210348C2180133412BBE
:1017000082F80013F9D1704700E100E038B50446D3
:101710004FF02003EFF3118583F31188BFF36F8F30
:1017200001F05EF80A4B9B68A3420BD1094B5A6843
:10173000C2F3080212B92846FFF782FD5A6842F048
:1017400080525A602846BDE8384002F00FBE00BF04
:101750008807002000ED00E010B50E4B88B0029322
:101760000D4B0E4C03930E4B0E4A049302AB0193A8
:1017700001A82346012100F007F9002307930A4B33
:101780000121E41A05A80593069400F007F908B0B2
:1017900010BD00BF0000002000000000000001207C
:1017A00006000100000000204801002010B50B6871
:1017B0000C7A23F01F0204F01F031A43CB6864095C
:1017C00023F01F03044943EA440343F00103886004
:1017D000CA600B6110BD00BF90ED00E02DE9F04F35
:1017E00007468846144600264A4D85B046450BDA22
:1017F00057F82630D3F80490B9F1000F3AD0B9F178
:101800001F0F05D86FF01504204605B0BDE8F08F16
:1018100019F01F0FF6D1D3F800A01AF01F0FF1D165
:10182000504602F05CFC834609EB0A00013802F0E6
:1018300056FC8345E6D11BF1160FE3D0631E5B45D2
:10184000E0DBC5F808B0E868C5F808B02B6957F8C0
:10185000261020F01F0043F01F0AD1E900321A447D
:10186000984202F1FF3918D1CA4505D15FFA8BF0D1
:1018700002F015FC0136B9E7C5F808B0EB6822F0B4
:101880001F0203F01F031A43EA60E0B202F007FCF4
:1018900010F1160FB6D0441CECE7C5F808B02A6961
:1018A000013B23F01F0302F01F021343CA45E0B2BD
:1018B0002B61EBD002F0F3FB10F1160FA2D0C5F8AC
:1018C00008B0EA689DF808300AF1FF3A62F30403B1
:1018D0008DF808302B699DF808205B0863F34712E8
:1018E00057F826308DF80820D3E900130B440093F5
:1018F00023F01F0301305344A3EB0903C0B223F0CC
:101900001F030F2803933FF67DAF6946FFF74EFF95
:10191000C1E700BF90ED00E00522034B5A60BFF322
:101920004F8FBFF36F8F704790ED00E0BFF35F8F75
:101930000022014B5A60704790ED00E038B50E4C24
:101940002568102D14D8FFF7F1FF00200B4B0C4A2F
:101950001A63854205D10B4B1D70FFF7DDFF002098
:1019600038BD616801EB0011FFF720FF0130F0E79F
:101970004FF0FF30F4E700BF8C49000090ED00E02D
:10198000AAFF4400E407002010B5034C2278FFF7BB
:1019900025FF207010BD00BFE40700202DE9F74FA0
:1019A000264D8A4606464FF00008AB46244FD045E8
:1019B0001BDAD6F80490B9F1000F39D03168084627
:1019C000019102F08CFB0199044609EB01000138FA
:1019D00002F085FB84424FF014021A4B08D06FF0DE
:1019E000150302FB08F84BF8083003B0BDE8F08F90
:1019F00014F1160F2C60F8D01978A142F5DD02FB26
:101A000008B0BC60BC60FC6800F10801007B64F3B6
:101A10000400087138690C79400860F347140C71B0
:101A2000F96821F01F016960396921F01F012961FE
:101A300008F1010814350C36B9E700BF8C06002008
:101A400090ED00E0E407002082680C4B9A60036888
:101A500083F38888436883F38988027B02F001015D
:101A6000EFF3948323F00303920748BF43F002038C
:101A700009B143F0010383F39488704700ED02E05D
:101A8000084AD36848B123F400531B041B0C43F0ED
:101A9000BF6343F40033D36070479BB243F40053F9
:101AA000F5E700BF00ED00E0084AD36840B19BB203
:101AB00043F4804343F0BF6343F40033D360704783
:101AC00023F480431B041B0CF4E700BF00ED00E08F
:101AD000084AD36840B19BB243F0080343F0BF63A8
:101AE00043F40033D360704723F008031B041B0C3E
:101AF000F4E700BF00ED00E0034AD2F88C3043F475
:101B00004063C2F88C30704700ED00E0084B1A6863
:101B100018B142F001021A60704722F001021A6007
:101B20001A6811B142F00202F5E722F00202F2E770
:101B3000D0ED00E0014B1860704700BF240000208A
:101B4000F0B54B79012B29D0032B24D110268B79AA
:101B5000032B20D1CC7924B1012C1CD143681B79F3
:101B6000CBB10A7912B1022A15D10E220B68456851
:101B7000B3F5164F2D6864D02DD8B3F5165F63D03A
:101B800016D8B3F5966F61D00AD8B3F5967F60D0BA
:101B9000B3F5167F60D06FF0220051E00026D6E743
:101BA000B3F5166F5BD0B3F5965FF4D1364B3CE0DE
:101BB000B3F5E14F56D007D8B3F5615F54D0B3F514
:101BC000964FE8D1314B30E047F61227BB42E2D1C5
:101BD0004FF4000329E0B3F5613F47D013D8B3F5C4
:101BE000963F46D009D84DF6C027BB4243D0B3F547
:101BF000614FD0D14FF46B0317E0B3F5E13FCAD189
:101C00004FF0EB7311E0B3F5612F37D008D8204FB8
:101C1000BB4236D0B3F5E12FBDD14FF0E86304E00D
:101C20001C4FBB42B7D14FF08053C5F82435344325
:101C3000C368224303C9C5F86C2583E8030000206C
:101C4000F0BD4FF41D03F0E7134BEEE74FF49E2376
:101C5000EBE74FF4A033E8E74FF41C33E5E74FF42C
:101C60001D23E2E70D4BE0E70D4BDEE74FF06C7311
:101C7000DBE70C4BD9E74FF46503D6E74FF0706311
:101C8000D3E74FF08063D0E700B0130000A04E0010
:101C900090D0030040420F000050270000C07500A4
:101CA00000F03A0000903A010122F8B503270D46F2
:101CB000436809681C68214B8A40C6689A6001F134
:101CC000800243F822706A68571C1EBF4FF0000C58
:101CD00002F1800743F827C0C4F80C15A968C4F8BE
:101CE00014254A1C15D0EA68571C12D001274FF062
:101CF000030C97409F6002F1800743F827C04FF024
:101D0000000C01F1800743F827C0C4F80825C4F887
:101D100010153146FFF714FF70B90823C4F80035D9
:101D20006B68013308D001230C36C4F81001C4F8E5
:101D30003465C4F838352360F8BD00BF00258450F1
:101D400030B585B005466C46044B0FCB84E80F00D8
:101D500021462846FFF7A8FF05B030BD1C4800000B
:101D600030B585B005466C46044B0FCB84E80F00B8
:101D700021462846FFF798FF05B030BD2C480000EB
:101D80002DE9F0430025214C214E54F8048CDFF856
:101D9000889085B0A84503D8002005B0BDE8F08341
:101DA000636A96E807001F6801AB83E807000C220E
:101DB0001946384602F0A9F990B98FB1636A2169D2
:101DC0001B681A6991420BD19A69A169914207D89F
:101DD000E169914204D962695B6932EA03030AD07E
:101DE000276A67B10B4801F056FF404080F3118825
:101DF0004FF0040002DFE36801351C44CAE748469F
:101E000001F049FF636A1F60F5E700BF3C02000074
:101E10003C480000094E0000324E0000064B186896
:101E2000043B1B68092B05D1013801288CBF002019
:101E300001207047002070473401FF00054B1868EF
:101E4000043B1B68092B03D1431E5842584170477D
:101E5000002070473401FF004E4A08B5136843F074
:101E600002031360FFF7DAFF30B14FF05023002276
:101E7000C3F81421C3F81821FFF7E0FF30B10123A4
:101E8000454A1360A2F63822C2F87835434B1B68E6
:101E9000092B07D1424B1B68022B02BF0122414B89
:101EA000C3F87825FFF7CAFF10B10E223E4B1A6027
:101EB000FFF7B4FF20B100223C4B1A6001225A60A8
:101EC0000022D30003F57F03D3F80013013108D0BB
:101ED000D3F800130132D3F80433B2F5807F0B60DE
:101EE000EFD1334BDA69D1073BD5324B1946D3F8E2
:101EF0000024012AFBD1C3F80425D1F80034012BBA
:101F0000FBD12B4BDA69D20708D5DA69294922F0CF
:101F10000102DA61D1F80024012AFBD11A6A0132E8
:101F20000AD11A6A22F0FF0242F020021A62214A04
:101F3000D2F80034012BFBD100221E4BC3F804253C
:101F4000D3F80024012AFBD1BFF34F8F1A491B4B52
:101F5000CA6802F4E0621343CB60BFF34F8F00BF47
:101F6000FDE71B6A0133C0D0134BD3F88C2042F439
:101F70004062C3F88C20D3F8882042F47002C3F882
:101F80008820BFF34F8FBFF36F8F0D4B0D4A1A6040
:101F900008BD00BFD0ED00E0384A00503001FF001E
:101FA0003401FF0000400050E4AE03500C470050E5
:101FB0000080FF000090035000ED00E00400FA05EF
:101FC000480000200090D003F8B50027084B53F8D4
:101FD0002040013053F82060A64200D8F8BDD4E973
:101FE00000352846984708B105B1AF600834F3E7DB
:101FF000D84900000F4B70B505461E460E4C9C425A
:1020000004D10D4CB44208D1002410E0A26812B1F2
:102010002268AA420BD01034F1E7A3680BB9103440
:10202000F0E72846216802F064F80028F7D120463E
:1020300070BD00BFE40000209400002008B50B4DE7
:102040004FF02002EFF3118382F31188BFF36F8FFB
:1020500002F06DFA012104460228D8BF084602F0BA
:1020600076FA2C62FFF79EF9EAE700BF88070020A6
:102070000248034A0021121A02F099B848010020D0
:10208000E807002008B50648064A0749121A02F078
:1020900063F8BDE80840054A0549064802F05CB807
:1020A0000000002048010020B04E000000000000A9
:1020B000B04E000000000020012208B50B4B0220AA
:1020C0001A70FFF781FF0A4A0A490B4801F0E3FD45
:1020D0000320FFF779FF00F04BFD01F0C5FD074A33
:1020E000137B23F00103137308BD00BFE507002035
:1020F000014B0000704E0000804E000014070020CD
:102100002DE98048DFF8F890A5B089F3088800240D
:10211000E023344D4FF0010B85F82230EC772C761C
:102120006C76AC76EC766B6A2F4E43F4E0236B62F0
:102130006B6ADFF8D0A043F400236B62AC63FFF757
:10214000B1FAFFF729F94FF0FF33AB62EB6240F2CF
:102150000113264DADF8283007ABAB602046CDE922
:102160001F44FFF731FF0120FFF72EFFDFF89880B3
:1021700000F058FC1E4B6E624FF4806241463046C0
:102180000593CDE9034B5346CDE90144009400F09B
:10219000C9FC737B304623F00403737302F006F925
:1021A0000F23144F4FF4A0723846CDE90243124971
:1021B000124BCDE904B4CDE9004400F0B3FC7B7BC5
:1021C0004FF4806223F004037B7305F11803C5E923
:1021D0000633414653463046EF602C75C5F80490EF
:1021E000FFF7BCF800ED00E014070020880700208E
:1021F000A74E0000A0060020E80B00203D200000B4
:1022000028150020B9200000E807002070B50E4B0B
:102210000E4CA34201D3002070BDD3E9030141EA73
:10222000000212F003020BD19D685A61AA4201D14B
:102230001C33EEE75E6901320E6059610144F5E737
:102240006FF01500E8E700BFE4000020E400002084
:10225000D3B50C4616461F464FF02003EFF311810D
:1022600083F31188BFF36F8F43695BB123601B68F1
:102270004361836901338361002081F31188BFF3D7
:102280006F8F11E056EA070203D16FF00B00236055
:10229000F3E70246CDE90067044800F06BFB18B98C
:1022A000034B9B685B69236002B0D0BDE60700204A
:1022B0008807002070B504460D464FF02003EFF369
:1022C000118683F31188BFF36F8F02F0E5F858B1E0
:1022D00000212A680167426102F068F83146BDE8D2
:1022E0007040084802F037B82B6862691A602B68A2
:1022F0006361A369013BA36186F31188BFF36F8F0C
:1023000070BD00BFE60700202DE9F34104461646E4
:102310001F464FF02003EFF3118883F31188BFF3BA
:102320006F8FC368324A6BB180689168884219D058
:1023300056EA070318D188F31188BFF36F8F6FF047
:102340000F000CE0916891F90E100133E36093687F
:102350002161A36088F31188BFF36F8F002002B062
:10236000BDE8F0812169F0E790F90E3091F90E1087
:102370009942A8BF194621EAE1718B422CDD00F099
:102380000DFB054622464146CDE90067194800F09D
:10239000F1FA0028E3D04FF02003EFF3118683F326
:1023A0001188BFF36F8F236821699C4207D033B136
:1023B00093F90E309942A8BF194621EAE171A0684D
:1023C00090F90E30994209D16DB13146094801F0BA
:1023D000C2FF6FF00A00C2E70025D3E700F0DEFA83
:1023E0000028F2D1F0E786F31188BFF36F8FF0E792
:1023F00088070020E607002038B583680446002BD4
:1024000036D01E4A9268934235D1DA7B013ADA73AC
:10241000C368012B05D0013BC36000F0C3F8002066
:1024200038BD4FF02003EFF3118583F31188BFF31C
:102430006F8F0169806890F90E30994201D000F0E9
:10244000ADFA204602F028F8A06058B190F90E20AD
:1024500022610022026701F0A9FF2946084801F025
:102460007AFFDAE7E06085F31188BFF36F8FD4E776
:102470006FF01500D4E74FF0FF30D1E78807002058
:10248000E607002010B5084C23685BB1FEF7DAFBC5
:102490002268064910440861BDE81040002110463A
:1024A00002F055B810BD00BFC0070020880700200B
:1024B000F8B50C464FF02003EFF3118583F3118834
:1024C000BFF36F8F4FF4004140F2E7360027002240
:1024D000E1FB0067094B30461A6139464FF47A72C6
:1024E0000023FDF7ABFE064B1860064B1C60FFF7A0
:1024F000C9FF85F31188BFF36F8FF8BD88070020EF
:10250000C0070020BC0700204FF02003EFF311812B
:1025100083F31188BFF36F8F044B9A68D37B013B21
:10252000D37381F31188BFF36F8F70478807002042
:10253000094B03F12802824205D19B688B4202D1EC
:102540004B7BDB0606D1D1E9003213605A600023D1
:10255000C1E90033704700BF8807002070B5104CF8
:10256000064604F1280001F017FF0546A368597BD1
:10257000880644BF41F00801597305B9E5684EB9B2
:102580005A7BD20606D1AA6922B9DA897F2A01D9F3
:10259000636270BDAB4201D0FFF774FF6562F8E77C
:1025A0008807002010B54FF02003EFF3118483F368
:1025B0001188BFF36F8F084B00209A68D37B0133DB
:1025C000D373FFF7CBFF84F31188BFF36F8FBDE8A0
:1025D000104001F0D7BE00BF8807002070B4437BD5
:1025E000DB062AD1836943BB154A114651F8284FAF
:1025F0008C4218BF2346002B38BF0023D46AB3B1E6
:1026000090F90E6093F90E50AE4203DBA3420ED058
:102610001B68F4E75A68C0E9003210605860437BD9
:1026200063F07F03437370BC0020FFF797BFC0E9DE
:102630000014D36A1860D062F1E770BC704700BF25
:102640008807002010B54FF02002EFF3118482F3C9
:102650001188BFF36F8F427B510704D484F3118834
:10266000BFF36F8F10BD22F004024273FFF7B6FF75
:102670002146BDE81040014801F06DBEE60700208C
:102680000146F8B54FF02003EFF3118483F311886E
:10269000BFF36F8F90F90D30002B02DA1948FFF766
:1026A00047FF194A104650F8283FD56A834208BFB1
:1026B0000023002B38BF0023EBB191F90E7093F982
:1026C0000E60B74203DB9D4215D01B68F4E75868E3
:1026D000C1E90030016059604B7B906863F07F0373
:1026E0004B73431A58425841FFF738FF84F311885F
:1026F000BFF36F8FF8BDC1E90005D36A1960D162DD
:10270000EAE700BFB00700208807002038B5154A67
:10271000154B146801469868A0421C4603D1BDE8D9
:102720003840FFF7AFBE00251560104A1268B2B1FD
:10273000C2897F2A13D80E4A90F90E50126895422A
:102740000DDB0C4A90420AD0826942B91A698A426A
:1027500002DCFFF795FFE2E7521A1A6138BD002349
:102760002361FBE7B807002088070020C00700208E
:10277000BC070020A006002070B50446183001F008
:10278000C0FE4FF02003EFF3118683F31188BFF3EF
:102790006F8F94F90D30002B07DA21460E48FFF7B2
:1027A000C7FE637B03F07F0363730C4D637BA868F4
:1027B00043F010036373031B58425841FFF7CEFEEA
:1027C00086F31188BFF36F8FAB68A34203D1BDE8D6
:1027D000704001F0D7BD70BDB00700208807002011
:1027E000836D2DE9F041044603B1984704F11800C8
:1027F00001F087FE4FF02003EFF3118683F3118879
:10280000BFF36F8F637BD80623D1A2690ABB190679
:1028100007D521461E48FFF78BFE637B03F07F033D
:1028200063731C4B9868021B50425041FFF796FEA1
:102830000027637B04F1280843F008036373A56A4B
:10284000454500D095B986F31188BFF36F8FBDE879
:10285000F0819B07ECD52146A068FFF769FE637BFA
:1028600023F0020363730023A360E1E705F118007E
:1028700001F047FEA8682946FFF75AFE6B7B284601
:1028800023F002036B73AF602F67FFF7A7FED6E755
:10289000B00700208807002008B590F90D300146E8
:1028A000002B06DA0748FFF743FE4B7B03F07F035C
:1028B0004B73054B9868431A58425841BDE808408D
:1028C000FFF74CBEB007002088070020F8B505468A
:1028D00001F058FE2C184FF02003EFF3118783F31B
:1028E0001188BFF36F8F0D4E0D4BB068186001F06B
:1028F00098FDB0680B492A46EB17183000F0D4F960
:10290000B2683846537B43F010035373FEF798FCCC
:1029100001F038FE201A20EAE070F8BD8807002098
:10292000B8070020CD4300002DE9F04106461446CB
:102930001D464FF02003EFF3118783F31188BFF397
:102940006F8F01F07EFD87F31188BFF36F8F6B1CD3
:1029500008BFB4F1FF3F08D022462B4606F118000D
:102960000349BDE8F04100F09FB9BDE8F08100BF28
:10297000CD43000010B50C46064B11469868064B37
:102980001860DDE90223FFF7CFFF2046BDE81040C5
:10299000FEF756BC88070020B80700202DE9F0415B
:1029A00004464FF02003EFF3118883F31188BFF33F
:1029B0006F8F437B4EB2DB062ED1856965BB184F06
:1029C000214607F12800FFF7B3FDBB6AFA6A83428C
:1029D00018BF1D46002D38BF0025A673B5B195F967
:1029E0000E10B14203DCAA4210D02D68F6E76A68E7
:1029F000C4E9005214606C600120FFF7AFFD0120B4
:102A000088F31188BFF36F8FBDE8F081C4E900023D
:102A1000FB6A1C60FC62EFE70020A673F0E700BFD2
:102A2000880700200021044B084603F12802C3E96F
:102A30000A22FFF73DBD00BF88070020F8B5244CEF
:102A4000244BA2689A4230D04FF02003EFF3118557
:102A500083F31188BFF36F8FA16804F12800FFF79B
:102A600067FDA36AA268834208BF0023002B38BF1A
:102A70000023E16A2BB392F90E7093F90E60B7420E
:102A800003DB8B421DD01B68F4E75968C2E90031B3
:102A90000A605A60537B012063F07F035373FFF792
:102AA0005DFD85F31188BFF36F8F4FF02003EFF3C7
:102AB000118083F31188BFF36F8FBDE8F840FEF7F4
:102AC000BFBBC2E90001E36A1A60E262E2E700BF4D
:102AD00088070020A00600200B46013308BFB0F194
:102AE000FF3F10B506D10B4B9868FFF745FE4FF03E
:102AF000FF3010BD044648B9FFF7A0FF4FF47A70CD
:102B000084FB0034D80B40EA4440F2E7FFF7DEFED6
:102B10000446F3E788070020014B9868704700BF20
:102B200088070020F0B500F12805C0E90A55042502
:102B300045730025044687B0DDE90F67CDE90367DB
:102B400086730E9EC0E9065502960D9E0773019688
:102B50000C9EC5730096FEF7E7FB044BC4E91555C0
:102B60009B6803B19B6EA36607B0F0BD8807002089
:102B70002DE9F04FDFF8B4902B4DC84687B04D4596
:102B800005F130040DD3FFF7BFFC4FF40049264C8C
:102B9000DFF89CA0444521D307B0BDE8F04FFFF714
:102BA00001BD54F8043C059354F8103C049354F8C8
:102BB000143C039354F8183C029354F81C3C0193C2
:102BC00054F8203C009354E90A2354E90C01FFF720
:102BD000A9FF54F8303C5D652546D0E7616A4B1C7F
:102BE00017D040F2E73B4FF0000C21EAE171C9FB3E
:102BF00001BC00234FF47A7258466146FDF71EFB74
:102C00000027064656EA0703256804D12846FFF741
:102C100019FD3034BEE702463B46514605F1180027
:102C200000F042F8F5E700BFE4000020E4000020D7
:102C3000CD430000034B1B680BB9FEF703B800201F
:102C4000704700BFC4070020036840B1074A5268BC
:102C5000904204D01BB19A6881680A449A60426825
:102C600013605A600023C0E9003370474C00002015
:102C70000B4B10B51C689C4208BF0024FFF7DAFF1D
:102C800054B1A368181A20EAE070064B1B6913B10F
:102C90009842A8BF184610BD6FF00040F5E700BF8E
:102CA0004C000020880700202DE9F74F01911946BC
:102CB0004B1C08BFB2F1FF3F824661D06FF00103A9
:102CC0004FF0FF3B541C41F10005B3EB04086BEBE4
:102CD0000509B8F1000F79F100030FDBFFF7AAFF38
:102CE0006FF001032B4AD2E9001C5B1A6BEB0C025C
:102CF0001E1B62EB0507341A67EBE075019BCAF8EF
:102D00000C304FF02003EFF3118683F31188BFF3EB
:102D10006F8FFFF78FFF012C75F10003B8BF0124FF
:102D20001D4B20441A68CAF808009A4201D05C681A
:102D300052B95A68CAF80030CAF804205A68C2F872
:102D400000A0C3F804A00DE09068DAF808108842EB
:102D500019DD411A91605168CAE90021C1F800A04B
:102D6000C2F804A01A689A4206D0924504D1FFF72F
:102D70007FFF0021FDF702FF86F31188BFF36F8FFD
:102D800003B0BDE8F08F091A9442CAF80810D0D0F9
:102D90001268CDE7480100204C0000202DE9F047E3
:102DA0000646FFF7B3FC4FF02003EFF3118483F3E3
:102DB0001188BFF36F8FDFF884801F4DC146DFF8A5
:102DC00080A02E60DAF800002A685045D8E9006734
:102DD00005D020B18368934213DD9B1A8360B61837
:102DE00047EBE277C9E9006700262E60FFF740FF56
:102DF0003146FDF7C3FE84F31188BFF36F8FBDE842
:102E0000F087F61847EBE377D31A2B600023836033
:102E1000C8E90067FFF718FF84F31188BFF36F8FCD
:102E2000C36898474FF02003EFF3118483F31188B0
:102E3000BFF36F8FC6E700BFC40700204801002022
:102E40004C00002010B54FF02003EFF3118483F302
:102E50001188BFF36F8FFDF7F5FE064BD3E9002312
:102E6000121843F1000384F31188BFF36F8F1046EB
:102E7000194610BD4801002038B5064C064DAC423D
:102E800001D3002038BD2046D4E9011201F07EFBB9
:102E90001434F4E7E4000020E400002001F045B918
:102EA0000A46002101F083B910B5114800F048F836
:102EB00000B110BD0F4800F043F80028F9D10E4CC6
:102EC000204600F03DF80028F3D10C4B0C481C6064
:102ED00000F036F801460028EBD100F02DF804464A
:102EE00008B1204610BD00F051F82046FAE700BFB7
:102EF00060000020540000205C00002064000020DE
:102F00005800002008B5084800F024F8074800F0F1
:102F100021F8074800F01EF8064800F01BF8BDE84D
:102F2000084000F00BB800BF6000002054000020F3
:102F30005C0000205800002000207047704700BF50
:102F400008B5034B02681B6810689847002008BD4D
:102F50007000002008B5034B02685B681068984752
:102F6000002008BD700000200268024B10689B68BA
:102F7000184700BF7000002008B5034B0268DB68EB
:102F800010689847002008BD7000002070B5094CFB
:102F9000094D2069AB68984718B1084B08485B6831
:102FA00098470021074AEB6811602069BDE870402E
:102FB000184700BF8000002070000020680000203B
:102FC000F0490000C8070020F8B51A4C1A4D074612
:102FD000AB6820699847E8B9184E33687FB93BB9A8
:102FE0000120174A1749C2F800050A68002AFCD1D7
:102FF00001333360EB68206998470020F8BD002B4F
:10300000F8D0012B08D0013B33602069EB6898476A
:103010000020F3E70C48F8BD0A4A1368002BFCD1E6
:10302000074A6FF07E40C2F8003500F021F833689F
:10303000E9E700BF8000002070000020C8070020E2
:103040000000845010198450E98FFFFF0020704762
:1030500000207047430503D54FF0FF32024B1A6042
:10306000024B1860704700BF08118450081A845042
:10307000014B1860704700BF041A845008B100F07B
:1030800003B84FF4750070470246074803681342BF
:10309000FCD021B1054B06481B680B600360054B53
:1030A00000201A60704700BF001A84500411845039
:1030B00008118450081A845000F0A0B830B129B12A
:1030C00000230144037001308142FBD1704700BFEF
:1030D0002DE9F041ADF51A7D0F4605920021144609
:1030E00012A84FF408721E4601F061F8002308A8E8
:1030F00019462822069301F05AF8002F3CD0002EE2
:103100003AD0002C38D0042106A8FFF7C9FE08A841
:103110002821FFF7C5FE08A800F032F878B14FF07B
:10312000FF3512A84FF40871FFF7C8FF06A8042165
:10313000FFF7C4FF28460DF51A7DBDE8F08112ABFC
:103140000DF11C080390CDE90163024605AB08A907
:10315000CDF8008006A800F0E9FC0028DFD1336834
:10316000A342DCD3D8F80010054608313846224681
:10317000FFF794FE3460D4E74FF0FF35DAE700BF85
:103180001C2330B583B002A941F8043D044600F089
:10319000B1F90546D8B9019B1C2B1BD1D4E90032EB
:1031A00001210033E16118BF01230AB143F002039A
:1031B000A26832B9E268AAB9C4E908323BB90D4D38
:1031C00009E0E26843F0040362B9C4E90832284622
:1031D00003B030BD084D20461C21FFF761FE284694
:1031E00003B030BD0022284643F00803C4E908328A
:1031F00003B030BD0E0CF000370CF00010B50C4CD5
:10320000236813B10B4B1B686BB900F031F938B16F
:103210000138062896BF084B084853F8200010BD17
:103220000122044B1A6001230020236010BD00BF5F
:10323000CC070020D0070020104A0000FE8FFFFFBF
:1032400010B5094C23681BB101230020236010BD79
:1032500000F07CF80028F7D00138062896BF034B11
:10326000034853F8200010BDCC070020104A00008E
:10327000FE8FFFFFBFF34F8F0549064BCA6802F46C
:10328000E0621343CB60BFF34F8F00BFFDE700BF89
:1032900000ED00E00400FA05014B5B68184700BF31
:1032A00068000020024BD0E90012C3E90012704709
:1032B00068000020704700BF10B5044620B1BFF37E
:1032C0005F8F0020206010BD0348FFF7E5FFBFF3CC
:1032D0005F8F0020206010BD504A000010B50446EA
:1032E00010B10023236010BD0248FFF7D5FF002373
:1032F000236010BD2C4A000050B10122D0E8EF3FFE
:10330000C0E8E12F0029F9D1012BF7D0BFF35F8F7F
:103310000020704770B40B4B0668C268D0E90154B6
:10332000C3E90242C3E90065D1E903020E68064B16
:10333000D1E90154C3E90065C3E902401A6170BCD8
:10334000704700BF700000208000002010B5FFF71C
:103350007DFE70B9FFF7A8FD80B9FFF735FE80B993
:10336000114B1B681B0EF02B0DD00624FFF770FECF
:1033700000E00324FFF7C6FD204610BD04242046CC
:1033800010BD0024F2E7094A094B12689A4201D0A5
:103390000724EBE70120FFF717FE0028F1D1054BCA
:1033A00004461860E8E700BF28198450241A8450A6
:1033B0000000E0200C1A845030B5ADF5157D4FF4B7
:1033C000087200210CA800F0F2FE002302A81946A2
:1033D0002822019300F0EBFE02A8FFF7D1FE18B1FE
:1033E00005200DF5157D30BD1C4D4FF0FF312868CF
:1033F000FFF7BAFD0446F0B90020FFF7E5FDB0B9CC
:103400000CAA02A901A800F0D5FB04460120FFF791
:10341000DBFDF0B92868FFF7AFFD10B11048FFF7EA
:103420003BFF2046002CDBD10DF5157D30BD0D484E
:10343000FFF732FFE4E70C48FFF72EFF012CDBD14A
:103440002868FFF799FD0028CAD00548FFF724FF38
:10345000C6E70648FFF720FFDCE700BF6400002056
:10346000884A0000A04A0000704A0000C04A0000DC
:1034700008B5FFF7EBFD18B1FFF744FD032008BDC9
:10348000FFF712FD68B9FFF79FFD60B9154B1B6888
:103490001B0EF02B12D0FFF7DBFDFFF733FD0620EC
:1034A00008BD042008BDFFF7D3FDFFF72BFDFFF794
:1034B00083FF00280CBF0020052008BD0A4A0B4BE3
:1034C00012689A4205D0FFF7C3FDFFF71BFD0720E6
:1034D00008BD0120FFF778FD0028E4D1044B1860F7
:1034E000E5E700BF28198450241A84500000E0202A
:1034F0000C1A845018B111B10B681C2B01D001209B
:1035000070474FF47F033A4AD3F8101C91425AD0C7
:10351000D3F8102C013256D0D3F8102C4FF47F037F
:103520000260D3F8141C334A91425ED0D3F8142CB5
:1035300001325AD0D3F8142C4FF47F034260D3F8F1
:10354000182C12F5947F4DD0D3F8182C013249D0A5
:10355000D3F8182C4FF47F038260D3F81C1C264A42
:1035600091423CD0D3F81C2C013238D0D3F81C2C1B
:103570004FF47F03C260D3F8002C70322DD0D3F803
:10358000002C013229D0D3F8002C4FF47F030261C4
:10359000D3F8042CAF321ED0D3F8042C01321AD049
:1035A000D3F8042C4FF47F034261D3F8081C134A6C
:1035B00091420BD0D3F8082C013207D0D3F8083C45
:1035C00083610020704740F6FC02A7E740F23733E2
:1035D0008361002070475122E4E79022D5E742F64C
:1035E0000412C5E740F6D862B4E742F2D002A3E77E
:1035F000FCF8FFFFD020FFFF0429FFFF37F3FFFF98
:10360000A8B32DE9F0414C1EB4F5047F2CD25BB376
:1036100052B34FF0000CC900E646654664464F1EA3
:1036200003F1FF380CE0AB4216D08E4501D10CF10E
:10363000010CA84516D00134BC4205F1010518D88B
:10364000610950F8211004F01F06F1401F2E18BF29
:1036500001F00101002CE6D10025A8458E464FF06F
:10366000010CE8D16245E6D20348BDE8F08102488A
:1036700070470020BDE8F081370CF1002DE9F04FD4
:103680008FB00D46DDE919418346002957D12969DC
:10369000039100211C60189B1960002A00F0228110
:1036A000814A824B11686A6A1B689A4257D10A297B
:1036B00055D19BF8033006930399042308467C4AAE
:1036C0000293A2FB00029208CB0002EB420204F13B
:1036D0000800A1EB4202013BDFF8D091DFF800A225
:1036E000049000920593189B039C1C60002C00F032
:1036F000CC800026049F00F0A9FA00230793069BC4
:10370000BBF1000F3AD0002D34D053BB5B000693C1
:10371000BBF1000F36D0002D34D0E3B106A9284606
:1037200000F084FA002800F07D81624B984212D0AC
:10373000009000F08BFA00980FB0BDE8F08F4FF4C6
:103740007F01D1F80C0C01300CBF4FF40471D1F89B
:103750000C1C03919DE72B6A73B95648E8E756485D
:10376000E6E706A9284600F061FA68B1534B984293
:10377000DED0069B082BC9D15148D9E7082BFBD0D6
:103780005B0006934F48D3E72946069800F030FACD
:103790000028EBD1069B082B00F00E81042B00F0D3
:1037A0003181A3F10203B3FA83F35B09019301238F
:1037B0001946454A136042F8843C434B19606B6AD2
:1037C000C9F80030D9F800206B6A9A42F5D14FF061
:1037D00000084FF0FF30CAF80080FFF73BFC3B4A7F
:1037E0003B4B40461A60FFF743FC0A2201983949D7
:1037F0002D4B08601A602A69A8F15538A8FB0212FF
:103800006B6A120903EB4303DB0303FB02F3324A47
:103810009B0913600123CAF800300699DBF80020E9
:103820000B0243EA016322F07F421343CBF80030DE
:1038300007A800F0CDF9002898D1284BA8FB042850
:103840001A681433089253F8102CB6EB980F0992AB
:1038500053F80C2C0A9253F8082C0B9253F8042CB2
:103860000C921B680D9301D1009B9BB9384618221E
:1038700008A9FFF713FB183C18370136002C7FF41A
:103880003AAF049B002B40F09A800023189A1360F3
:10389000069B6FE71A46384608A9E41AFFF7FEFAB6
:1038A000009B1F44E9E700BF381184503011845059
:1038B000ABAAAAAA310CF100300CF100020CF10005
:1038C000320CF100350CF100C4118450FEFFFF0FE3
:1038D000001184500C118450D8118450141184505C
:1038E0002C118450BBF1000F3FF44CAF002D3FF47E
:1038F00049AF01230EA941F8203DCBF8002028460E
:1039000000F094F900287FF413AF2946069800F0E0
:103910006FF900287FF40CAF069F082F00F0EB80B2
:10392000042F00F0EA80A7F10207B7FA87F77F09B2
:1039300001221646734B74491A6018460A60943B7C
:1039400006606A6A1A6019686A6A9142F8D14FF093
:1039500000086E4B4FF0FF30C3F80080FFF77AFB92
:103960006B4B6C4A40461A60FFF782FB0A226A4999
:103970006A4B0F601A601A992B6901296A6A00F074
:10398000B1806749A1FB03131B09012102EB42022D
:10399000D20303FB02F3634A9B0913605B4B19607C
:1039A0000699DBF800200B0243EA016322F07F4214
:1039B0001343CBF800307FE603230193F7E6039B24
:1039C000B3F5047F3FF661AFDDE9047C2046234672
:1039D0006E6904E0012001336345144615D85A0985
:1039E00057F8222003F01F01CA401F2918BF02F018
:1039F0000102002BEED0A242ECD101308642EAD186
:103A000049480BE002230193D1E64FF48063DDE9DE
:103A10000310AA69FFF7F4FD00285DD00023189A6F
:103A20001360A3E62946069800F0E2F800287FF428
:103A30007CAE069C082C51D0042C51D0A4F1020479
:103A4000B4FA84F4640901231E4619462D4A136012
:103A500042F8843C2B4B19606B6AC9F80030D9F8E6
:103A600000206B6A9A42F5D100274FF0FF30CAF868
:103A70000070FFF7EFFA264B264A38461A60FFF728
:103A8000F7FA0A222449254B0C601A602A69244956
:103A90006B6AA1FB021203EB43031209DB0303FB76
:103AA00002F3204A9B091360CAF80060069BDBF80A
:103AB00000101A0242EA036321F07F421A43130AFC
:103AC00003F47F03134323F07F43CBF80030029BC2
:103AD000013B02937FF407AE002029E60324B2E7FE
:103AE0000224B0E74FF47F03D3F80C1C013106D059
:103AF000D3F80C3C45E703271AE7022718E71623FB
:103B000043E700BFC4118450401184502C118450ED
:103B100000118450FEFFFF0F0C11845038118450A7
:103B2000ABAAAAAAD8118450360CF1002DE9F043B3
:103B30001B4C85B00746DDE90D56884620684FF0DE
:103B4000FF319146FFF710FA28BB0020FFF73CFA3F
:103B5000E8B90023CDE9005602934A46414638466B
:103B60000C9BFFF78BFD05460120FFF72DFA50B99E
:103B70002068FFF701FA10B10A48FFF78DFB2846CD
:103B800005B0BDE8F0830848FFF786FBF0E707487B
:103B9000FFF782FBDDE70648FFF77EFBD5E700BFB6
:103BA00064000020884A0000C04A0000A04A0000CB
:103BB000704A000010B5012486B005ABCDE90124A0
:103BC0000093002204ABFFF759FD06B010BD00BF03
:103BD00008B501464FF48060FFF750FA0023024910
:103BE000024A0B60136008BDC81184502C11845028
:103BF0000138072815D8DFE800F0100C1408141459
:103C00001404CB6800204B6270478B6800204B6225
:103C100070474B6800204B6270470B6800204B6276
:103C200070470148704700BF310CF1000B6802E09B
:103C3000082B0B6006D8026A13424FEA4303F7D001
:103C40000020704700487047310CF1000023044900
:103C5000044A0B604FF480601360FFF7FBB900BFAC
:103C60002C118450C411845008B5FDF7F5F8BDE857
:103C70000840FDF787B80020704770B50D46044630
:103C80004520A04729465220A04729462346BDE8A3
:103C90007040522018470FB407B504A951F8040B1F
:103CA0000191FCF76BFE03B05DF804EB04B07047C4
:103CB000044608B5084611461A46A047FEF72CFFF1
:103CC000FDF724FD036803EBC1018368B3F5004FE2
:103CD0002CBF51F8220031F81200704710B504686B
:103CE000806804EBC101B0F5004F2CBF41F82230D1
:103CF00021F8123010BD2DE9F041044600220D4696
:103D0000FFF7E0FFE268A3681040B3F5004FB0FA98
:103D100080F234BF002001206368C0F11F00801AC8
:103D200003EBC0014A68561C4E60A2B9012202FA98
:103D300000F162690A436261294643F83050022269
:103D40002B462046FFF7CAFF032229462046BDE83E
:103D5000F041FFF7C3BF53F83070022239462046C6
:103D6000FFF7B0FF06460346022229462046FFF72A
:103D7000B5FF3B46032229462046FFF7AFFF03224B
:103D800031462B462046FFF7A9FF02223946DDE7E0
:103D9000F8B58B1847F6FF72CC1D24F0070423F00A
:103DA00007031B1BDB08B3F5004F2CBF6FF000416E
:103DB0001146046000209342E16094BF002101217C
:103DC000B3FA83F617468446C1F1200104F11805C1
:103DD000891B21F06041C4E9015303312460606113
:103DE0002161A268BA4294BF00220122C2F11F02DF
:103DF000921B90420ADD20465B1A0022FFF76EFFFD
:103E000020462169BDE8F840FFF775BFC5F804C03A
:103E1000013045F808CBE4E77047FEF71DB80C22E7
:103E2000C368C9B202FB01314B7A23B9087AB0FAF0
:103E300080F0400970470220704770B5C9B24468ED
:103E4000C5684FF02003EFF3118683F31188BFF3A9
:103E50006F8F0C224A43AB18187A90B10138C0B268
:103E6000187288B904EB8101A850CA78012102F1C7
:103E7000502258601160587286F31188BFF36F8F1B
:103E800070BD6FF04400F7E70020F5E72DE9F84337
:103E90004668D0F80CE0CFB24AB10C237B435EF801
:103EA00003309A4252D013B11B68002BF9D14FF066
:103EB0002003EFF3118C83F31188BFF36F8F0C2570
:103EC0007D430EEB05031C7A0134E4B21C728CF3C3
:103ED0001188BFF36F8F5AB34FF0502C4FF0030887
:103EE000CCF8088393F809C0BCF1000F15D14FF04E
:103EF0002008EFF3118988F31188BFF36F8FC2F8A0
:103F000000C0D3F80480B8F1000F1BD15A604EF8FE
:103F1000052089F31188BFF36F8F4FF050230325DD
:103F2000C3F80453BCF1000F02D0D2E90132984724
:103F3000012C05D106EB8706B37803F150231C60F2
:103F4000002005E0C8F800205A60E2E76FF00F009B
:103F5000BDE8F8830022FFF799BF10B500220446A0
:103F600001210520FDF7CAF90520FDF7B7F94FF04B
:103F700050230222C3F8182503220020C3F804238B
:103F8000E368C3E90000E368C3E9030010BD7047BC
:103F90007047002307B501A88DF80430FFF78CF8AF
:103FA00003B05DF804FB902908B5134639D10A46E1
:103FB00001460020FFF78CF8BDE8084071467246C4
:103FC0007346B7EE000AF7EE000AB7EE001AF7EEF6
:103FD000001AB7EE002AF7EE002AB7EE003AF7EE25
:103FE000003AB7EE004AF7EE004AB7EE005AF7EE95
:103FF000005AB7EE006AF7EE006AB7EE007AF7EE05
:10400000007A8EF3008C10B4F1EE10CA4FF6607493
:10401000C0F6FF740CEA040CE1EE10CA10BCF446C2
:1040200074476FF01500C7E7FEE70021012000F09C
:1040300029B843B2A9B1002B12DB01215B099B0017
:1040400003F1604303F56143D3F8802200F01F00C1
:1040500001FA00F022EA0000C3F88002D3F88032AF
:104060007047002BFCDB01225B099B0003F16043DE
:1040700003F56143D3F8801200F01F0002FA00F04C
:104080000843E9E700F027B90146006800F023B9CA
:1040900008B5FDF795F9BDE80840FDF70BBB30B555
:1040A0004B680C6885B00A898D7A0094013B24F036
:1040B0001F04234402F01F0242EA451223F01F03AB
:1040C0000F2804468DF80820039305D86946FDF7AC
:1040D0006DFB204605B030BD6FF01504F9E740E8F0
:1040E00000F0C3B210F4803F14BF18466FF0150003
:1040F00070470138013910F8013F11F8012F934240
:1041000001D1002BF7D1981A704710B55AB1013977
:10411000841810F8012B11F8013FA04201D09A42F7
:10412000F7D0D01A10BD1046FCE7431A934210B5E1
:1041300000EB020308D3024601399A420BD011F872
:10414000014F02F8014BF8E70A4412F8014D8A4288
:1041500003F8014DF9D110BDF0B581EA0004A507BF
:1041600003460BD0013B0A4491421BD1F0BD002A0B
:10417000FCD011F8014B013A03F8014B9C07F6D132
:1041800022F003041D1F96080F19B94205D16FF0E4
:104190000305234405FB0622E4E751F804CB45F868
:1041A00004CFF2E711F8014B03F8014FDCE70346B7
:1041B00070B5C9B29C0711D141EA012422F003066F
:1041C00044EA04451E449408B3420DD16FF0030540
:1041D00005FB04221A44934209D170BD002AFCD089
:1041E00003F8011B013AE5E743F8045BECE703F849
:1041F000011BF0E74FF0FF3070470B46C26892E8B2
:10420000030083E803000020704743681B68D3F86D
:104210008004C3F8800470474368C2681B68D3F801
:10422000100138B1127B00200A700122C3F810017E
:104230001A6070474FF0FF3070472DE9F341436833
:104240008DF807101C68C66800F053F9C0B96425E2
:104250004FF0010806F10807D7E8EF3F002B03D124
:10426000C7E8E28F002AF7D10CD021200021013DC0
:10427000FEF732FC15F0FF05EED102B0BDE8F0818B
:104280000123B3600023C4F820310DF10703C4F803
:10429000443501234FF47A75C4F84835A360D4F847
:1042A000203123B9012000F014F8013DF7D101239A
:1042B000E3600023B360E0E7002008B5FDF708FAEB
:1042C00008B5FCF723FFFCF7A5FFBDE80840FEF7A3
:1042D000B7BF00F014B973B5054601914FF0200344
:1042E000EFF3118683F31188BFF36F8FFEF714FC91
:1042F000019904462846FFF7DFFF86F31188BFF3D4
:104300006F8F204602B0BDE87040FDF7FFB9FFF7A0
:104310003FBE30B50024846141EA020414F0030476
:10432000C0E9023201610CD14461A34203D1C0E96A
:104330000000002030BD456901340D604161114429
:10434000F3E76FF01500F5E70023C0E90000C0E9CE
:1043500002331846704721B9EFF3058008B9FCF71E
:104360006FBF81F31188BFF36F8F7047034620B989
:10437000EFF305820AB9FCF763BF83F31188BFF33B
:104380006F8F70474FF02003EFF3118083F3118894
:10439000BFF36F8FFFF7EABF0368984204D0002B8A
:1043A00038BF0023184670470020704710B54FF003
:1043B0002003EFF3118483F31188BFF36F8FFEF7AF
:1043C0000DF984F31188BFF36F8F10BD38B550F825
:1043D000103C0446A0F11801C3B14FF02003EFF3E5
:1043E000118583F31188BFF36F8F50F8100CFEF71F
:1043F0009FF814F80B3C23F0020304F80B3C002355
:1044000044F8103C85F31188BFF36F8F14F80B3C10
:10441000084623F0140304F80B3CBDE83840FFF7CE
:10442000C5BF10B54FF02003EFF3118483F311885B
:10443000BFF36F8FFEF730FA84F31188BFF36F8FED
:1044400010BD38B504460D46FEF726FA637B43F0EF
:1044500002036373C5B12B68A5609D4208BF0023AA
:10446000002B38BF002383B194F90E1093F90E206E
:10447000914204DB6A689A4207D01B68F3E75A68E6
:10448000C4E9003214605C6038BD6B68256063600D
:104490006B681C606C60F7E738B54FF02003EFF3F2
:1044A000118283F31188BFF36F8FFFF775FF044606
:1044B00082F31188BFF36F8FC8B14FF02003EFF381
:1044C000118583F31188BFF36F8F01468068FEF773
:1044D0002FF8637B23F0020363730023A36085F34B
:1044E0001188BFF36F8F04F1180000F00AF820461E
:1044F00038BDEFF30580003818BF01207047FCF786
:104500005FBA10B54FF02002EFF3118482F31188E7
:10451000BFF36F8F03683BB1FEF796FB002084F377
:104520001188BFF36F8F10BD6FF01500F7E710B55E
:104530004FF02003EFF3118483F31188BFF36F8FE3
:10454000FEF796FB84F31188BFF36F8F10BD37B56C
:10455000044601914FF02003EFF3118583F3118896
:10456000BFF36F8FFEF784FB012805DDA0420199A0
:1045700002DD2046FCF702FB85F31188BFF36F8F45
:1045800003B030BD08B5FEF75DFC08BD10B400F106
:104590000C04C0E903445DF8044BFFF7F9BB704716
:1045A000CCBCFF7F01000000990900000000000062
:1045B0000D22000000000000792E00000000000025
:1045C0003D190000000000005B3F00009400002047
:1045D000611D0000A4000020411D0000B400002067
:1045E000D509000000000000150B0000C4000020E9
:1045F000C1420000D4000020811D00000000000026
:10460000000000002B400000000000002B400000D4
:10461000000000002B400000000000002B400000C4
:10462000000000002B40000000000000750A0000A0
:10463000000000002B400000000000002B400000A4
:10464000000000002B400000000000002B40000094
:10465000000000002B400000000000002B40000084
:10466000000000002B400000000000002B40000074
:10467000000000002B400000000000002B40000064
:10468000000000002B400000000000002B40000054
:10469000000000002B400000000000002B40000044
:1046A000000000002B40000000000000F10A0000A4
:1046B000000000002B400000000000002B40000024
:1046C000000000002B400000000000002B40000014
:1046D000000000002B400000000000002B40000004
:1046E000000000002B400000000000002B400000F4
:1046F000000000002B400000000000002B400000E4
:10470000000000002B400000000000002B400000D3
:10471000000000002B400000000000002B400000C3
:10472000000000002B400000000000002B400000B3
:10473000000000002B400000000000002B400000A3
:10474000000000002B400000000000002B40000093
:10475000000000002B400000000000002B40000083
:10476000000000002B400000000000002B40000073
:10477000000000002B400000000000002B40000063
:10478000000000002B400000000000002B40000053
:10479000000000002B400000000000002B40000043
:1047A000000000002B400000000000002B40000033
:1047B000000000002B400000000000002B40000023
:1047C000000000002B400000000000002B40000013
:1047D000000000002B400000000000002B40000003
:1047E000000000002B400000000000002B400000F3
:1047F000000000002B400000000000002B400000E3
:10480000000000002B400000FFFFFFFFFFFFFFFF45
:10481000DEE61E284CBBCE8F025B00001D000000B0
:104820001C0000001A0000001B0000000100000036
:10483000000000000F0000000E000000DEE61E2851
:10484000EAAC45B8025B0000DEE61E284CBBCE8F0A
:10485000025B0000000000000000000000000000FB
:104860000338FDD870470000553F00003B3E000074
:104870008D3E0000000000001F3E0000A44C000020
:1048800042010000AB4C000005010000B54C0000E7
:1048900014010000BE4C000015010000C74C0000D0
:1048A00039010000D04C000009010000DB4C000081
:1048B0000A000000E64C00000A010000F04C000075
:1048C0000B010000FA4C00000F010000054D000034
:1048D00010010000104D0000110100001B4D0000F0
:1048E0000E010000254D0000210100002E4D0000AA
:1048F00022010000374D000023010000404D000060
:1049000024010000494D000018010000514D000035
:104910002A010000594D00003A010000614D0000DD
:104920002C010000694D00001C010000724D0000C8
:104930001D0100007B4D000017010000854D0000A7
:1049400031010000914D0000040100000000000052
:104950000002000000040000000800000010000039
:10496000000000002940000079110000391100000A
:10497000E1110000191100001C00002004000020BB
:1049800014000020000000000C00002002000000C5
:104990009449000000000000F34D000006000000F4
:1049A000E0FF0F0000000020FB4D00002100000090
:1049B000E0FF0020194200003B4200000B420000D3
:1049C000411B0000FB41000000800050010000007E
:1049D0000090005001000000A8450000E8450000DC
:1049E000F04500000046000000460000F5FFFFFF14
:1049F000436F756C64206E6F74206C6F636B2070F6
:104A00006F7765722073617665206D7574657800C7
:104A1000FF8FFFFFFF8FFFFFFE8FFFFFFE8FFFFF68
:104A2000FD8FFFFFFC8FFFFFFC8FFFFF43616E27B1
:104A30007420696E697469616C697A65206D75743A
:104A400065782C20776173204E554C4C0D0A000080
:104A500043616E277420756E6C6F636B206D757487
:104A600065782C20776173204E554C4C0D0A000060
:104A70004661696C20746F2061637175697265208D
:104A80006D757465780A00004661696C20746F204A
:104A900072656C65617365206D757465780A0000D8
:104AA0004661696C20746F20696E6372656173651D
:104AB00020504D20636F756E7465720A000000000F
:104AC0004661696C20746F2064656372656173650B
:104AD00020504D20636F756E7465720A00000000EF
:104AE000000100040401080C554152545F3000736A
:104AF00079735F636C6F636B0053656375726509EF
:104B000009004E6F6E2D536563757265090025307F
:104B100032752025303275203078253035782030B8
:104B2000782530357820090025630053504D3A2010
:104B30004E5320696D616765206174203078257857
:104B40000A0053504D3A204E53204D53502061746B
:104B500020307825780A0053504D3A204E53207269
:104B60006573657420766563746F7220617420309C
:104B70007825780A0053504D3A2070726570617242
:104B80006520746F206A756D7020746F204E6F6E93
:104B90002D53656375726520696D6167652E0A0026
:104BA0004E6F6E2D53656375726500466C61736858
:104BB00020726567696F6E730909446F6D61696E74
:104BC00009095065726D697373696F6E730A004EDF
:104BD0006F6E2D7365637572652063616C6C6162C5
:104BE0006C6520726567696F6E203020706C616340
:104BF000656420696E20666C617368207265676900
:104C00006F6E20256420776974682073697A652047
:104C100025642E0A00436F756C64206E6F742069E2
:104C20006E697469616C697A652073656375726514
:104C3000207365727669636573202865727220251A
:104C400064292E0A005352414D20726567696F6EC8
:104C50000909446F6D61696E09095065726D697368
:104C600073696F6E730A005065726970686572616E
:104C70006C0909446F6D61696E090953746174753B
:104C8000730A002530327520252D323173257300CB
:104C900009534B49500A00094552524F520A000924
:104CA0004F4B0A004E52465F5030004E52465F4313
:104CB0004C4F434B004E52465F52544330004E52CD
:104CC000465F52544331004E52465F4E564D4300AC
:104CD0004E52465F554152544531004E52465F5543
:104CE0004152544532004E52465F5457494D3200AE
:104CF0004E52465F5350494D33004E52465F544921
:104D00004D455230004E52465F54494D4552310098
:104D10004E52465F54494D455232004E52465F5303
:104D200041414443004E52465F50574D30004E5271
:104D3000465F50574D31004E52465F50574D32003E
:104D40004E52465F50574D33004E52465F574454C3
:104D5000004E52465F495043004E52465F564D4307
:104D6000004E52465F465055004E52465F454755ED
:104D700031004E52465F45475532004E52465F4421
:104D800050504943004E52465F4750494F544531B9
:104D9000004E52465F524547554C41544F525300C6
:104DA0006D757465785F696E69742063616C6C659C
:104DB000642077697468204E554C4C207061726194
:104DC0006D6574657200436F756C64206E6F74203E
:104DD000616C6C6F63617465206D757465782062B9
:104DE00065666F726520696E697469616C697A695C
:104DF0006E6700464C4153485F30005352414D5F4F
:104E00003000554152545F31004552524F523A20C2
:104E100043616E6E6F742066756C66696C6C2045BC
:104E200058545F41504920726571756573742E0D39
:104E30000A005741524E494E473A204F7074696FED
:104E40006E616C204558545F415049207265717500
:104E5000657374206E6F742066756C66696C6C6522
:104E6000642E0D0A0048575F43433331305F3000F2
:104E700076322E332E302D7263312D6E63733100F6
:104E80002A2A2A20426F6F74696E67205A657068FB
:104E90007972204F53206275696C64202573202538
:104EA00073202A2A2A0A006D61696E000000000042
:104EB000773C0000F8000020010000000C010020F9
:104EC000010000002001002001000000340100204A
:104ED00001000000F541000000C2010000010300D4
:104EE000000000000000000000C2010000010300FB
:104EF00000000000000000000090D0034C000020E3
:104F00004C00002084000020900000208800002039
:104F1000800000205C0000200000000075320000CE
:104F2000DD320000B5320000F9320000B932000075
:104F3000E0070020D4070020DC070020000000006C
:104F4000D8070020AF4C0000E04A0000684800008D
:104F500054010020024E0000D0490000B449000076
:104F600038000020E84A0000C8490000B4490000A9
:104F700028000020EF4A00000000000000000000B0
:104F800000000000654E000000000000000000006E
:104F900000000000E4000020E40000200000000009
:104FA000000000000F000000F8000020F8000020C2
:104FB00000000000000000000F0000000C010020B5
:104FC0000C01002000000000000000000F000000A5
:104FD000200100202001002000000000000000004F
:104FE0000F00000034010020340100200000000008
:104FF000000000000F000000FFFFFFFFFFFFFFFFAA
:1050000000000000000000000000000000000000A0
:105010000000000000000000000000000000000090
:105020000000000000000000000000000000000080
:105030000000000000000000000000000000000070
:107FE0007FE97FE9F8F7D0BF7FE97FE9F9F724B8A7
:107FF0007FE97FE9FBF7D7BF000000000000000029
:10C0000038940220DD380100EB6D02000D3901008B
:10C010000D3901000D3901000D3901000D39010004
:10C02000000000000000000000000000B536010024
:10C030000D390100000000006D360100236D020083
:10C040009D3801009D3801009D3801009D38010098
:10C050009D3801009D3801009D3801009D38010088
:10C060009D3801009D3801009D3801009D38010078
:10C070009D3801009D3801009D3801009D38010068
:10C080009D3801009D3801009D3801009D38010058
:10C090009D3801009D3801009D3801009D38010048
:10C0A0009D3801009D3801009D3801009D38010038
:10C0B0009D3801009D3801009D3801009D38010028
:10C0C0009D3801009D3801009D3801009D38010018
:10C0D0009D3801009D3801009D3801009D38010008
:10C0E0009D3801009D3801009D3801009D380100F8
:10C0F0009D3801009D3801009D3801009D380100E8
:10C100009D3801009D3801009D3801009D380100D7
:10C110009D3801009D3801009D3801009D380100C7
:10C120009D3801009D3801009D3801009D380100B7
:10C130009D3801009D3801009D3801009D380100A7
:10C140009D38010000000000000000000000000019
:10C1500000000000000000000000000000000000DF
:10C1600000000000000000000000000000000000CF
:10C1700000000000000000000000000000000000BF
:10C1800000000000000000000000000000000000AF
:10C19000000000000000000000000000000000009F
:10C1A000000000000000000000000000000000008F
:10C1B000000000000000000000000000000000007F
:10C1C000000000000000000000000000000000006F
:10C1D000000000000000000000000000000000005F
:10C1E000000000000000000000000000000000004F
:10C1F000000000000000000000000000000000003F
:10C20000DEE61E284CBBCE8F025B00003C00000027
:10C210009CB802000100000000C0000000C0000047
:10C22000FFFF02910000000000000000000000007D
:10C23000000000000000000000000000FFFFFFFF02
:10C2400081F0004102E000BF83F0004330B54FEAC7
:10C2500041044FEA430594EA050F08BF90EA020F34
:10C260001FBF54EA000C55EA020C7FEA645C7FEAC7
:10C27000655C00F0E2804FEA5454D4EB5555B8BFEA
:10C280006D420CDD2C4480EA020281EA030382EA5B
:10C29000000083EA010180EA020281EA0303362DED
:10C2A00088BF30BD11F0004F4FEA01314FF4801CC0
:10C2B0004CEA113102D0404261EB410113F0004FD2
:10C2C0004FEA03334CEA133302D0524263EB430389
:10C2D00094EA050F00F0A780A4F10104D5F1200E27
:10C2E0000DDB02FA0EFC22FA05F2801841F1000182
:10C2F00003FA0EF2801843FA05F359410EE0A5F156
:10C3000020050EF1200E012A03FA0EFC28BF4CF086
:10C31000020C43FA05F3C01851EBE37101F000453C
:10C3200007D54FF0000EDCF1000C7EEB00006EEB49
:10C330000101B1F5801F1BD3B1F5001F0CD34908D3
:10C340005FEA30004FEA3C0C04F101044FEA44522A
:10C3500012F5800F80F09A80BCF1004F08BF5FEAB1
:10C36000500C50F1000041EB045141EA050130BD91
:10C370005FEA4C0C404141EB0101013C28BFB1F5A3
:10C38000801FE9D291F0000F04BF01460020B1FAEE
:10C3900081F308BF2033A3F10B03B3F120020CDAC1
:10C3A0000C3208DD02F1140CC2F10C0201FA0CF09F
:10C3B00021FA02F10CE002F11402D8BFC2F1200C04
:10C3C00001FA02F120FA0CFCDCBF41EA0C019040BA
:10C3D000E41AA2BF01EB0451294330BD6FEA040403
:10C3E0001F3C1CDA0C340EDC04F11404C4F12002EE
:10C3F00020FA04F001FA02F340EA030021FA04F300
:10C4000045EA030130BDC4F10C04C4F1200220FA56
:10C4100002F001FA04F340EA0300294630BD21FA94
:10C4200004F0294630BD94F0000F83F4801306BF5A
:10C4300081F480110134013D4EE77FEA645C18BF4E
:10C440007FEA655C29D094EA050F08BF90EA020FE5
:10C4500005D054EA000C04BF1946104630BD91EADD
:10C46000030F1EBF0021002030BD5FEA545C05D1E0
:10C470004000494128BF41F0004130BD14F580041F
:10C480003CBF01F5801130BD01F0004545F0FE4193
:10C4900041F470014FF0000030BD7FEA645C1ABFC8
:10C4A000194610467FEA655C1CBF0B46024650EAFF
:10C4B000013406BF52EA033591EA030F41F400212B
:10C4C00030BD00BF90F0000F04BF0021704730B5B1
:10C4D0004FF4806404F132044FF000054FF0000186
:10C4E00050E700BF90F0000F04BF0021704730B547
:10C4F0004FF4806404F1320410F0004548BF40421C
:10C500004FF000013EE700BF42004FEAE2014FEA70
:10C5100031014FEA02701FBF12F07F4393F07F4F4B
:10C5200081F06051704732F07F4208BF704793F04E
:10C530007F4F04BF41F40021704730B54FF4607461
:10C5400001F0004521F000411CE700BF50EA010264
:10C5500008BF704730B54FF000050AE050EA01020D
:10C5600008BF704730B511F0004502D5404261EB7D
:10C5700041014FF4806404F132045FEA915C3FF4BE
:10C58000D8AE4FF003025FEADC0C18BF03325FEA5B
:10C59000DC0C18BF033202EBDC02C2F1200300FA0C
:10C5A00003FC20FA02F001FA03FE40EA0E0021FA31
:10C5B00002F11444BDE600BF53B94AB9002908BFCF
:10C5C00000281CBF4FF0FF314FF0FF3000F06EB974
:10C5D000ADF1080C6DE904CE00F006F8DDF804E0DA
:10C5E000DDE9022304B070472DE9F04F099D0F46A5
:10C5F00004468946002B7CD18A42164640D9B2FABD
:10C6000082F24AB1C2F1200107FA02F39640944047
:10C6100020FA01F141EA03094FEA164E270C1FFAEE
:10C6200086F8B9FBFEFC0EFB1C930CFB08F147EAF5
:10C630000343994206D9F31802D2994200F22381AA
:10C640000CF1FF3C591AA3B2B1FBFEF00EFB101126
:10C6500000FB08F843EA0144A04505D9341902D289
:10C66000A04500F20D810138A4EB080440EA0C401B
:10C6700000211DB1D4400023C5E90043BDE8F08F7F
:10C6800002B9FFDEB2FA82F2002A4DD18F1B4FEAC7
:10C69000164E1FFA86F80121230CB7FBFEFC0EFB99
:10C6A0001C7708FB0CF043EA074398420AD9F318B9
:10C6B0002CBF01270027984202D9002F00F0D98013
:10C6C0000CF1FF3C1F1AA3B2B7FBFEF00EFB107774
:10C6D00008FB00F843EA0744A04505D9341902D203
:10C6E000A04500F2CA800138A4EB080440EA0C40DF
:10C6F000BFE78B4208D9002D00F0B2800021C5E9C8
:10C7000000070846BDE8F08FB3FA83F1002949D14C
:10C71000BB42C0F0A880824240F2A5800846002DAE
:10C72000ACD0C5E90049A9E7C2F12000964091408C
:10C7300027FA00F34FEA164E24FA00F71FFA86F89C
:10C7400094400F43B3FBFEF04FEA174C0EFB10333F
:10C7500000FB08F14CEA034399420CD9F3182CBFB3
:10C760004FF0010C4FF0000C994203D9BCF1000FBF
:10C7700000F0928001385B1ABFB2B3FBFEF10EFBF2
:10C78000113301FB08FC47EA0347BC4505D9F719FB
:10C7900002D2BC4500F287800139A7EB0C0741EAC1
:10C7A000004179E7C1F1200603FA01F402FA01FC25
:10C7B00007FA01F8F24027FA06F320FA06F700FA22
:10C7C00001FE224347EA08044FEA1248200C1FFAF0
:10C7D00082F9B3FBF8FA08FB1A370AFB09FB40EAB7
:10C7E0000747BB4509D9D7192CBF01230023BB45F7
:10C7F00001D9002B53D00AF1FF3AA7EB0B07A4B2E3
:10C80000B7FBF8F008FB107700FB09F944EA07478B
:10C81000B94504D9D71901D2B9453AD8013840EA07
:10C820000A40A7EB0907A0FB0C894F45C3464C46BD
:10C8300002D307D1C64505D2B8EB0C0B69EB020257
:10C84000013814461DB3BEEB0B0367EB040707FA70
:10C8500006F6CB40CF4000211E43C5E900670DE737
:10C86000294628460AE7841A67EB03030120994604
:10C8700055E7ACF1020C334424E70238344433E783
:10C8800002383444F0E6ACF1020C3344DAE62946CF
:10C89000F4E602381744C2E7023833446BE7AAF1E2
:10C8A000020A1744A9E70239374476E7704700BF08
:10C8B00080B483B000AF78607B6801339B0018467A
:10C8C0000C37BD4680BC704780B582B000AF786041
:10C8D00039607A683B689A4201D1012310E07B6895
:10C8E000002B02D03B68002B01D1002308E03B68FD
:10C8F00019683B6804331A46786800F005F8034667
:10C9000018460837BD4680BD80B487B000AFF860D8
:10C91000B9607A60FB68002B06D1BB68002B0CBFA6
:10C9200001230023DBB220E0FB681B68BA689A424F
:10C9300001D0002319E000237B6110E0FA687B69D5
:10C940009B0013445A687B699B0079680B441B6801
:10C950009A4201D0002308E07B6901337B61FB68C8
:10C960001B687A699A42E9DB012318461C37BD46E9
:10C9700080BC704780B584B000AF78607868FFF7FE
:10C9800097FF0346184618F02BFE0346FB60FB6832
:10C990007A681A60FB6818461037BD4680BD80B5BE
:10C9A00084B000AF78607B68002B01D1002313E0D6
:10C9B0007B681B681846FFF7DDFFF860FB68002BFB
:10C9C00009D0FB68181D7B68191D7B681B689B00DC
:10C9D0001A4624F049FAFB6818461037BD4680BD58
:10C9E00080B582B000AF7860786818F001FE00BFB3
:10C9F0000837BD4680BD80B483B000AF78607B68E7
:10CA000001339B0018460C37BD4680BC704780B58B
:10CA100084B000AF78607868FFF7EDFF03461846F2
:10CA200018F0DEFD0346FB60FB687A681A60FB685D
:10CA300018461037BD4680BD80B582B000AF786023
:10CA4000786818F0D5FD00BF0837BD4680BD80B5B9
:10CA500082B000AF78607B681B7D042B03D07B68BD
:10CA60001B7D052B04D17B685B68184618F0C0FD60
:10CA70007B6800225A6000BF0837BD4680BD80B584
