:10C000003094022075380100836D0200A5380100CC
:10C01000A5380100A5380100A5380100A5380100A8
:10C020000000000000000000000000004D3601008C
:10C03000A53801000000000005360100BB6C0200BD
:10C040003538010035380100353801003538010038
:10C050003538010035380100353801003538010028
:10C060003538010035380100353801003538010018
:10C070003538010035380100353801003538010008
:10C0800035380100353801003538010035380100F8
:10C0900035380100353801003538010035380100E8
:10C0A00035380100353801003538010035380100D8
:10C0B00035380100353801003538010035380100C8
:10C0C00035380100353801003538010035380100B8
:10C0D00035380100353801003538010035380100A8
:10C0E0003538010035380100353801003538010098
:10C0F0003538010035380100353801003538010088
:10C100003538010035380100353801003538010077
:10C110003538010035380100353801003538010067
:10C120003538010035380100353801003538010057
:10C130003538010035380100353801003538010047
:10C140003538010000000000000000000000000081
:10C1500000000000000000000000000000000000DF
:10C1600000000000000000000000000000000000CF
:10C1700000000000000000000000000000000000BF
:10C1800000000000000000000000000000000000AF
:10C19000000000000000000000000000000000009F
:10C1A000000000000000000000000000000000008F
:10C1B000000000000000000000000000000000007F
:10C1C000000000000000000000000000000000006F
:10C1D000000000000000000000000000000000005F
:10C1E000000000000000000000000000000000004F
:10C1F000000000000000000000000000000000003F
:10C20000DEE61E284CBBCE8F025B00003C00000027
:10C210002CB802000100000000C0000000C00000B7
:10C22000FFFF02910000000000000000000000007D
:0CC2300000000000000000000000000002
:04C23C00FFFFFFFF02
:10C2400081F0004102E000BF83F0004330B54FEAC7
:10C2500041044FEA430594EA050F08BF90EA020F34
:10C260001FBF54EA000C55EA020C7FEA645C7FEAC7
:10C27000655C00F0E2804FEA5454D4EB5555B8BFEA
:10C280006D420CDD2C4480EA020281EA030382EA5B
:10C29000000083EA010180EA020281EA0303362DED
:10C2A00088BF30BD11F0004F4FEA01314FF4801CC0
:10C2B0004CEA113102D0404261EB410113F0004FD2
:10C2C0004FEA03334CEA133302D0524263EB430389
:10C2D00094EA050F00F0A780A4F10104D5F1200E27
:10C2E0000DDB02FA0EFC22FA05F2801841F1000182
:10C2F00003FA0EF2801843FA05F359410EE0A5F156
:10C3000020050EF1200E012A03FA0EFC28BF4CF086
:10C31000020C43FA05F3C01851EBE37101F000453C
:10C3200007D54FF0000EDCF1000C7EEB00006EEB49
:10C330000101B1F5801F1BD3B1F5001F0CD34908D3
:10C340005FEA30004FEA3C0C04F101044FEA44522A
:10C3500012F5800F80F09A80BCF1004F08BF5FEAB1
:10C36000500C50F1000041EB045141EA050130BD91
:10C370005FEA4C0C404141EB0101013C28BFB1F5A3
:10C38000801FE9D291F0000F04BF01460020B1FAEE
:10C3900081F308BF2033A3F10B03B3F120020CDAC1
:10C3A0000C3208DD02F1140CC2F10C0201FA0CF09F
:10C3B00021FA02F10CE002F11402D8BFC2F1200C04
:10C3C00001FA02F120FA0CFCDCBF41EA0C019040BA
:10C3D000E41AA2BF01EB0451294330BD6FEA040403
:10C3E0001F3C1CDA0C340EDC04F11404C4F12002EE
:10C3F00020FA04F001FA02F340EA030021FA04F300
:10C4000045EA030130BDC4F10C04C4F1200220FA56
:10C4100002F001FA04F340EA0300294630BD21FA94
:10C4200004F0294630BD94F0000F83F4801306BF5A
:10C4300081F480110134013D4EE77FEA645C18BF4E
:10C440007FEA655C29D094EA050F08BF90EA020FE5
:10C4500005D054EA000C04BF1946104630BD91EADD
:10C46000030F1EBF0021002030BD5FEA545C05D1E0
:10C470004000494128BF41F0004130BD14F580041F
:10C480003CBF01F5801130BD01F0004545F0FE4193
:10C4900041F470014FF0000030BD7FEA645C1ABFC8
:10C4A000194610467FEA655C1CBF0B46024650EAFF
:10C4B000013406BF52EA033591EA030F41F400212B
:10C4C00030BD00BF90F0000F04BF0021704730B5B1
:10C4D0004FF4806404F132044FF000054FF0000186
:10C4E00050E700BF90F0000F04BF0021704730B547
:10C4F0004FF4806404F1320410F0004548BF40421C
:10C500004FF000013EE700BF42004FEAE2014FEA70
:10C5100031014FEA02701FBF12F07F4393F07F4F4B
:10C5200081F06051704732F07F4208BF704793F04E
:10C530007F4F04BF41F40021704730B54FF4607461
:10C5400001F0004521F000411CE700BF50EA010264
:10C5500008BF704730B54FF000050AE050EA01020D
:10C5600008BF704730B511F0004502D5404261EB7D
:10C5700041014FF4806404F132045FEA915C3FF4BE
:10C58000D8AE4FF003025FEADC0C18BF03325FEA5B
:10C59000DC0C18BF033202EBDC02C2F1200300FA0C
:10C5A00003FC20FA02F001FA03FE40EA0E0021FA31
:10C5B00002F11444BDE600BF53B94AB9002908BFCF
:10C5C00000281CBF4FF0FF314FF0FF3000F06EB974
:10C5D000ADF1080C6DE904CE00F006F8DDF804E0DA
:10C5E000DDE9022304B070472DE9F04F099D0F46A5
:10C5F00004468946002B7CD18A42164640D9B2FABD
:10C6000082F24AB1C2F1200107FA02F39640944047
:10C6100020FA01F141EA03094FEA164E270C1FFAEE
:10C6200086F8B9FBFEFC0EFB1C930CFB08F147EAF5
:10C630000343994206D9F31802D2994200F22381AA
:10C640000CF1FF3C591AA3B2B1FBFEF00EFB101126
:10C6500000FB08F843EA0144A04505D9341902D289
:10C66000A04500F20D810138A4EB080440EA0C401B
:10C6700000211DB1D4400023C5E90043BDE8F08F7F
:10C6800002B9FFDEB2FA82F2002A4DD18F1B4FEAC7
:10C69000164E1FFA86F80121230CB7FBFEFC0EFB99
:10C6A0001C7708FB0CF043EA074398420AD9F318B9
:10C6B0002CBF01270027984202D9002F00F0D98013
:10C6C0000CF1FF3C1F1AA3B2B7FBFEF00EFB107774
:10C6D00008FB00F843EA0744A04505D9341902D203
:10C6E000A04500F2CA800138A4EB080440EA0C40DF
:10C6F000BFE78B4208D9002D00F0B2800021C5E9C8
:10C7000000070846BDE8F08FB3FA83F1002949D14C
:10C71000BB42C0F0A880824240F2A5800846002DAE
:10C72000ACD0C5E90049A9E7C2F12000964091408C
:10C7300027FA00F34FEA164E24FA00F71FFA86F89C
:10C7400094400F43B3FBFEF04FEA174C0EFB10333F
:10C7500000FB08F14CEA034399420CD9F3182CBFB3
:10C760004FF0010C4FF0000C994203D9BCF1000FBF
:10C7700000F0928001385B1ABFB2B3FBFEF10EFBF2
:10C78000113301FB08FC47EA0347BC4505D9F719FB
:10C7900002D2BC4500F287800139A7EB0C0741EAC1
:10C7A000004179E7C1F1200603FA01F402FA01FC25
:10C7B00007FA01F8F24027FA06F320FA06F700FA22
:10C7C00001FE224347EA08044FEA1248200C1FFAF0
:10C7D00082F9B3FBF8FA08FB1A370AFB09FB40EAB7
:10C7E0000747BB4509D9D7192CBF01230023BB45F7
:10C7F00001D9002B53D00AF1FF3AA7EB0B07A4B2E3
:10C80000B7FBF8F008FB107700FB09F944EA07478B
:10C81000B94504D9D71901D2B9453AD8013840EA07
:10C820000A40A7EB0907A0FB0C894F45C3464C46BD
:10C8300002D307D1C64505D2B8EB0C0B69EB020257
:10C84000013814461DB3BEEB0B0367EB040707FA70
:10C8500006F6CB40CF4000211E43C5E900670DE737
:10C86000294628460AE7841A67EB03030120994604
:10C8700055E7ACF1020C334424E70238344433E783
:10C8800002383444F0E6ACF1020C3344DAE62946CF
:10C89000F4E602381744C2E7023833446BE7AAF1E2
:10C8A000020A1744A9E70239374476E7704700BF08
:10C8B00080B483B000AF78607B6801339B0018467A
:10C8C0000C37BD4680BC704780B582B000AF786041
:10C8D00039607A683B689A4201D1012310E07B6895
:10C8E000002B02D03B68002B01D1002308E03B68FD
:10C8F00019683B6804331A46786800F005F8034667
:10C9000018460837BD4680BD80B487B000AFF860D8
:10C91000B9607A60FB68002B06D1BB68002B0CBFA6
:10C9200001230023DBB220E0FB681B68BA689A424F
:10C9300001D0002319E000237B6110E0FA687B69D5
:10C940009B0013445A687B699B0079680B441B6801
:10C950009A4201D0002308E07B6901337B61FB68C8
:10C960001B687A699A42E9DB012318461C37BD46E9
:10C9700080BC704780B584B000AF78607868FFF7FE
:10C9800097FF0346184618F0F7FD0346FB60FB6867
:10C990007A681A60FB6818461037BD4680BD80B5BE
:10C9A00084B000AF78607B68002B01D1002313E0D6
:10C9B0007B681B681846FFF7DDFFF860FB68002BFB
:10C9C00009D0FB68181D7B68191D7B681B689B00DC
:10C9D0001A4624F015FAFB6818461037BD4680BD8C
:10C9E00080B582B000AF7860786818F0CDFD00BFE8
:10C9F0000837BD4680BD80B483B000AF78607B68E7
:10CA000001339B0018460C37BD4680BC704780B58B
:10CA100084B000AF78607868FFF7EDFF03461846F2
:10CA200018F0AAFD0346FB60FB687A681A60FB6891
:10CA300018461037BD4680BD80B582B000AF786023
:10CA4000786818F0A1FD00BF0837BD4680BD80B5ED
:10CA500082B000AF78607B681B7D042B03D07B68BD
:10CA60001B7D052B04D17B685B68184618F08CFD94
:10CA70007B6800225A6000BF0837BD4680BD80B584
:10CA800084B000AF78607B681B78012B1DD17B6878
:10CA90005B68FB60FB681B68002B07D0FB681B68AA
:10CAA0001846FFF7C9FFFB6800221A60FB685B6845
:10CAB000002B07D0FB685B681846FFF791FFFB6807
:10CAC00000225A60F86818F05FFD7B6800225A6007
:10CAD0007B6800221A7000BF1037BD4680BD90B53C
:10CAE00089B000AF78607B68002B4BD07B681B68F7
:10CAF000002B07D07B681B681846FFF771FF7B6827
:10CB000000221A607B685B68002B07D07B685B683B
:10CB10001846FFF765FF7B6800225A607B689B68B8
:10CB2000002B2BD00023FB611BE07B689A68FB691C
:10CB30001B01134407F10C040FCB84E80F003B7B6F
:10CB4000012B0BD17B691846FFF74AFF00237B615D
:10CB5000BB691846FFF744FF0023BB61FB69013343
:10CB6000FB617B68DB68FA699A42DEDB7B689B6865
:10CB7000184618F009FD7B6800229A60786818F062
:10CB800003FD00E000BF2437BD4690BD80B582B0F4
:10CB900000AF78607868FFF75AFF7B689B68002BCE
:10CBA00004D07B689B681846FFF71AFF7B68002259
:10CBB0009A607B68DB6B002B04D07B68DB6B1846CC
:10CBC000FFF70EFF7B680022DA637B68303318467C
:10CBD000FFF755FF7B689B6B1846FFF780FF7B686C
:10CBE00000229A6300BF0837BD4680BD82B080B581
:10CBF00084B000AFB9607A60FB610346FB73B86B29
:10CC0000FFF7C4FFBB6BFA7B1A70BB6BBA681A6282
:10CC1000BB6B7A689A60BB6B0C3307F11C0292E81D
:10CC2000030083E80300BB6B7A6A5A60BB6BBA6A85
:10CC30009A61BB6B97F82C201A75BB6B3A6BDA6163
:10CC4000BB6B97F8342083F82D20BB6B002283F850
:10CC50003020BB6B00225A6300BF1037BD46BDE8D1
:10CC6000804002B0704780B582B000AF7860396014
:10CC70003B681B7D042B03D03B681B7D052B1DD11E
:10CC80003B685B68002B07D1786818F075FC034699
:10CC90001A463B685A600DE03B689B697A689A4285
:10CCA00008D93B685B687968184618F091FF02461E
:10CCB0003B685A603B687A689A6100E000BF0837B9
:10CCC000BD4680BD80B483B000AF0346FB71FB79E5
:10CCD0000B2B33D801A252F823F000BF0DCD00007A
:10CCE00011CD000019CD00001DCD000025CD0000A4
:10CCF00031CD000029CD000015CD00002DCD000064
:10CD000021CD000035CD000039CD00000E4B16E0DE
:10CD10000E4B14E00E4B12E00E4B10E00E4B0EE0EB
:10CD20000E4B0CE00E4B0AE00E4B08E00E4B06E0FB
:10CD30000E4B04E00E4B02E00E4B00E00E4B18468B
:10CD40000C37BD4680BC7047D81B0300E01B0300B6
:10CD5000E81B0300F01B0300F81B0300001C03008A
:10CD6000081C0300101C0300181C0300241C0300F3
:10CD70002C1C0300341C03003C1C0300B0B58AB01B
:10CD800000AF786007F1080320220021184624F044
:10CD90005EF87B681D4607F108040FCC0FC594E8C8
:10CDA0000F0085E80F0078682837BD46B0BD00BF8A
:10CDB0004D2809D005D81C3804288CBF002001203C
:10CDC00070474F380128F8E701207047D0E9052364
:10CDD00000219A42B7BF03690B4603EB02130132ED
:10CDE000BCBF596042611846704770B51D464B1E66
:10CDF0000E4614464F2B37D8DFE803F028282828A2
:10CE000036363636323228323232323232323232FC
:10CE1000323232362A2A2A2A2A2A2A2A2832323238
:10CE2000323236322A292836282A2A322936363210
:10CE3000323228282828283228283228363632321A
:10CE400032363636323232282A282A2A54B15DB197
:10CE5000FFF7BCFF10B10670C0E90245044601E0CF
:10CE6000002CF5D1204670BD0024FBE738B50C46F8
:10CE70001546FFF7ABFF38B1002334B19D4206DD04
:10CE800043600370C0E9024538BD2046FCE7184600
:10CE9000FAE710B50C46FFF799FF10B1272384601D
:10CEA000037010BDC3680A461978522906D04F296D
:10CEB0000CD1C16A0331C162202103E0C16A023191
:10CEC000C1621F210133C36000238EE71046704703
:10CED00051B1D0E90832934206DAC26942F8231010
:10CEE00001330362012070470020704738B50546C2
:10CEF0000C46002C47D02378013B4F2B43D8DFE86A
:10CF000003F02D2D2D2842424D4D2D2D2D2D2D2D53
:10CF10002D2D2D2D2D2D2D2D2D422D2D2D2D2D2D2C
:10CF20002D2D2D2D43432D2D422D2D2D2D4F2D2DCE
:10CF30002D2D2D424D2D2D2D2D2D2D2D2D2D2D2DEC
:10CF40002D2D42422D4F4F4F4F422D2D2D2D2D2D4A
:10CF50002D2DD5F844310133C5F84431D5F81C31B5
:10CF6000B3F5006F0FDC0133A1682846C5F81C310A
:10CF7000FFF7BCFFE1682846FFF7B8FFD5F81C3182
:10CF8000013BC5F81C3138BDA3681B78052B02BFD7
:10CF9000D5F838310133C5F83831DFE7E468A8E760
:10CFA000A468A6E738B5D0F800110025044645541A
:10CFB000D0E942329847D4F82831C4F800510133FF
:10CFC000C4F8283138BD38B5D0F8003104460D46D4
:10CFD000FF2B01D1FFF7E6FFD4F800315A1CC4F84B
:10CFE0000021E55484F8045138BD70B506460C465E
:10CFF0008D18AC4200D170BD14F8011B3046FFF70C
:10D00000E2FFF6E7002320B102782F2A01D18268DF
:10D010000AB9184670470133C068F4E713B50446EF
:10D020000846019104F078FD01990246204602B0BD
:10D03000BDE81040D9E710B588B004460A46054956
:10D0400001A818F0F7FD01A92046FFF7E7FF08B097
:10D0500010BD00BF226B030001680246F0B50B78DB
:10D060006FF000460A246E2B05BF4B1C01250025DE
:10D0700003604FF0000008BF4B78A3F13001CFB23E
:10D08000092F02D905B14042F0BD711AB1FBF4F18C
:10D09000814208DB04FB0033A3F130001368591C04
:10D0A00011605B78E9E74FF0FF30EDE738B50546F2
:10D0B000FFF78CFE044630B14223037005F10C00EB
:10D0C000FFF7CAFFA060204638BDC36810B51B78C3
:10D0D00004465F2B10D06E2B02D14FF0FF3010BDF5
:10D0E0000C30FFF7B9FF0130F7D4E3681A785F2AF4
:10D0F000F3D10133E360F2E70020F6E738B5C36807
:10D1000004461A78542A01D0002038BD0133C36088
:10D11000FFF7DBFF051EF7DB2046FFF757FE002871
:10D12000F3D0052385600370EFE770B504460C303B
:10D13000FFF792FF051E30DDE66863689B1B9D428A
:10D1400029DCA26873195207E36004D5725D242AB2
:10D1500004BF0133E360092D1ADD0822104930466F
:10D1600023F040FEA0B9337A2E2B03D05F2B01D0E1
:10D17000242B0DD1737A4E2B0AD1E06A152209496E
:10D180001630451BE5622046FFF770FEA06270BDB9
:10D190002A463146F7E70020F8E70020F7E700BF0E
:10D1A000E26E0300EB6E030037B50446856A0A465B
:10D1B000E3681978422903D01046A56203B030BD58
:10D1C000013320460192E360FFF7AFFF019A034667
:10D1D0004C212046FFF709FE0246E9E738B5044630
:10D1E00039B9C3681A780AB9002038BD5A1CC26020
:10D1F000197868290BD104F10C00FFF72DFFE368C3
:10D200001A785F2AF0D101330120E360EDE7762937
:10D21000EAD104F10C052846FFF71EFFE3681A78EF
:10D220005F2AE1D101332846E360E6E70378722BF9
:10D2300012D0562B10D04B2B0ED0442B0AD1407855
:10D2400000F0DF034F2B07D0773801288CBF002078
:10D2500001207047002070470120704703685A780A
:10D26000632A0AD11878A0F16303012B07D9723819
:10D2700001288CBF0020012070470020704701204A
:10D28000704738B5C36804461A785F2A01D0012078
:10D2900038BD5A1C0C3002605A785F2A05BF023331
:10D2A000022501250360FFF7D7FE00280ADB022DC7
:10D2B000EDD10928EBDDE3681A785F2A02D101334A
:10D2C000E360E4E70020E3E700B9704703782F2B21
:10D2D00007D1002904DD0139C068F5E7806870478F
:10D2E000FCD0002070472DE9F0414B1C14465268D9
:10D2F0008046A5680F461344AB421AD9E26892B93A
:10D30000002D08BF0225AB420FD82946206818F02F
:10D310005FFC064658B9206818F036F90123A6606C
:10D32000E360C4E90066BDE8F0816D00EBE72060D2
:10D33000A560E568002DF6D13A464146D4E90003E0
:10D34000184423F05DFDD4E900323B449D546168EC
:10D3500039446160E7E70346D0F8100118B90122AB
:10D36000C3F818217047096843680029D86800DBB2
:10D37000AAE770472DE9F04105460C460126254FE6
:10D38000DFF894806CB12378082B14D92C2B29D882
:10D39000172B2BD9183BDBB206FA03F313EA080F5D
:10D3A00024D0002033E006FA03F33B42F9D19B0777
:10D3B0001CD5E468E6E7082B18D801A252F823F040
:10D3C000A3D30000EDD30000EDD30000EDD30000A7
:10D3D000EDD30000FBD30000A3D30000B3D30000C3
:10D3E000B3D30000323BDBB21A2BDCD9A16828464C
:10D3F000FFF7C0FF0028DCD009E004F1080128464F
:10D40000FFF7A9FF0028CCD003782F2BC9D1BDE8A6
:10D41000F08100BF0180710601801000C2682DE913
:10D42000F04113780446532B4DD1531CC3605378FD
:10D4300063B1931CC36053785F2B70D0A3F13002AB
:10D44000092A60D9A3F14102192A5CD9A26802F025
:10D450000802002A14BF0126002606D129B1E2687D
:10D460001278433A012A98BF0E460722314D297897
:10D47000994259D16F6957B12046D5F81880FFF706
:10D48000A5FC18B11823C0E902780370A062002E31
:10D4900047D0D5E90365E36A20462B44E362FFF7F2
:10D4A00095FC014618B11823C0E902650370E368D2
:10D4B0001B78422B24D12046FFF776FE01462046FA
:10D4C000FFF706FDE0B900211AE01146A3F1300292
:10D4D000092A1BD800FB0133A3F130029142F2D894
:10D4E000E1680B78002BF0D04B1CE3600B785F2BCE
:10D4F000EBD10132236A9342E5D9E36953F8221054
:10D500000846BDE8F08100212420DFE7A3F14102B5
:10D51000192AD8D800FB0133A3F13702DEE7002235
:10D52000E8E7D5E90165B6E7013A05F11C059ED1AA
:10D53000C9E700BF4C1C0300C36870B51A780446E5
:10D540004C2A01D0002070BD5A1CC2605A785F2A54
:10D5500028D05A2A28D000F02BFA05460028F1D00E
:10D560000378272B06D18268137C1BB1E36A5268CB
:10D570009B1AE362E3681A786E2A05BF01333E26E0
:10D580003D26E360E168E2681378452B1DD1521A0D
:10D590002046FFF76BFC2A46034631462046FFF73C
:10D5A00024FC0BE00233C360E3681A785A2A11D1D5
:10D5B000013300212046E36001F012F9E3681A7894
:10D5C000452ABFD10133E360BDE7002BBAD0013259
:10D5D000E260D8E70020F1E7C368F7B51A7804469F
:10D5E0004C2A03D103B0BDE8F040A5E7542A03D18B
:10D5F00003B0BDE8F04081E5732A2DD15A78722A34
:10D6000020D10233C36000F0D3F90546204600F074
:10D61000A0FEE3681B78492B08D003462A46012167
:10D62000204603B0BDE8F040FFF7DFBB0190204685
:10D6300000F0F5FC019A034604212046FFF7D5FBD4
:10D640000346EBE7702A62D10233C360FFF7C4FFE1
:10D65000002302464B21E3E7662A1FD15A78702A3D
:10D6600055D19A1CC2609A78542A0DD103330026F2
:10D67000C3602046FFF7AAFB054610B1062386606B
:10D680000370284603B0F0BDFFF71FFDC34333F01E
:10D69000004301D10025F4E7461CEAE7A2F130017E
:10D6A000092906D96F2A15D15A786E2A2FD102334B
:10D6B000C360204600F04DFE05460028EAD0E3682E
:10D6C0001B78492BDDD1204600F0A9FC2A460346F1
:10D6D0000421A5E7692A01D0742A18D159786C2948
:10D6E00015D10233742AE3600FD1204600F060F9AF
:10D6F0000546E3685B78002BCCD04521204600F03E
:10D700002AF92A46034631218AE70025F1E7204617
:10D7100000F08FFC05460028BCD00378322B13D1D3
:10D72000836882499A681E68023AE36A3046134465
:10D73000E36204F0E7F9AB68D0B9204600F038F9AD
:10D7400003462A4637216BE7342B3CD0A2D8332B33
:10D75000A0D18368032B9DD801A252F823F000BF0B
:10D760007FD70000DDD7000095D6000095D60000D9
:10D77000DF68032F8ED8DFE807F00206367C00232F
:10D780002A4636214CE73378702B01D06D2B08D117
:10D7900072789A4205D1E3681A785F2A02D1013380
:10D7A000E36000276249304604F0ACF9B8B920467E
:10D7B00000F006FC002FC3D0034602463921204664
:10D7C000FFF713FBBCE7E3681A785F2A06D1013341
:10D7D00045212046E36000F0BEF8B1E7002720466F
:10D7E000FFF7FAFEE6E7A868FFF738FDB8B1204674
:10D7F00000F0DEF807464F49304604F083F9C0B91F
:10D800004521204600F0A7F8064633463A4639211E
:10D810002046FFF7EAFA2A460346382100E7337824
:10D820002046662B02D100F004FCE3E7FFF7D4FEAC
:10D83000E0E74149304604F065F920B13F49304600
:10D8400004F060F988B9204600F083FDE3680646DD
:10D850001B78492BD9D1204600F0E1FB3246034624
:10D8600004212046FFF7C1FACEE72046FFF7B4FEB9
:10D87000CAE73349304604F045F9E8B92046FFF7D6
:10D88000ABFE06462046FFF7A7FE07462046FFF7F9
:10D89000A3FE00283FF4FEAE03463A463C21204654
:10D8A000FFF7A3FA324603463B212046FFF79DFAD5
:10D8B0002A4603463A21B3E63378662B03D1204645
:10D8C00000F0B7FBDDE76E2B7FF4E4AE7378772BC7
:10D8D00002D0612B7FF4DEAE5F21204600F03BF8E2
:10D8E0000646204600F064F8E36807461A78452AA1
:10D8F00003D101330020E360CEE7702A0AD15A78C1
:10D90000692A7FF4C7AE023345212046E36000F068
:10D9100022F8C1E7692A7FF4BDAE5B786C2B7FF4F7
:10D92000B9AE2046FFF758FEB6E700BF8373030089
:10D930000A6F0300016F0300046F0300A17103006D
:10D94000076F030038B50123056B04460363FFF737
:10D9500043FE256338BDC268002373B50D461178B8
:10D9600004460193A94208D101322E21C2601A4611
:10D9700002B0BDE87040FFF738BA01AE2046FFF7AD
:10D98000E1FF024610B9002002B070BD00232E2135
:10D990002046FFF72AFA30600028F4D0E36800F14F
:10D9A0000C061A78AA42E9D101330198E360EBE74B
:10D9B0002DE9FF41C26804461046FFF737FC50B31B
:10D9C000002203A9204600F0D9FB054618B9002023
:10D9D00004B0BDE8F081E36820461B78462B17D1E0
:10D9E00000F088FC28602B68002BF0D01A781F3AD2
:10D9F000012A05D803999A6899602B6803932A60D5
:10DA000003992046FFF764FA002840F0B480DEE76F
:10DA1000FFF7CEFFE6E71178A1F130034A2BD6D805
:10DA200001A050F823F000BF9DDB00009DDB00004B
:10DA30009DDB00009DDB00009DDB00009DDB000006
:10DA40009DDB00009DDB00009DDB00009DDB0000F6
:10DA5000CFD90000CFD90000CFD90000CFD9000026
:10DA6000CFD90000CFD90000CFD90000A5DB00003E
:10DA7000CFD900000BDD000067DD0000CFD900002A
:10DA800093DB00001DDD0000CFD90000CFD90000DE
:10DA9000CFD90000CFD90000CFD90000F7DB0000BC
:10DAA0009DDB0000D5DC0000E7DC0000CFD90000E2
:10DAB000F9DC000087DC000019DC00002FDD00002D
:10DAC000CFD90000CFD90000CFD90000CFD90000B6
:10DAD0009DDB0000CFD90000CFD90000CFD90000D6
:10DAE000CFD90000CFD90000CFD9000055DB00000E
:10DAF00055DB000055DB000055DB000055DB000066
:10DB000055DB000055DB000055DB000055DB000055
:10DB100055DB0000CFD9000055DB000055DB0000CD
:10DB200055DB000055DB0000CFD90000CFD9000045
:10DB3000CFD9000055DB000055DB00007BDB000087
:10DB400055DB000055DB000055DB000055DB000015
:10DB500055DB0000BF4B14226139204602FB013126
:10DB6000FFF797F98268E36A526803901344E3620F
:10DB7000E3680133E36003982AE701322046E2605C
:10DB8000FFF7D3FA0023024628212046FFF72DF99C
:10DB900002E0204600F0AEFB039031E7204600F0A3
:10DBA000DBFCF9E7511CE16053785F2B15D0303B6B
:10DBB000092B0ED8E3685A1CE2605B78303B092BD6
:10DBC000F8D9521A2046FFF751F9054630B900201E
:10DBD000E2E72046FFF7B6FEF7E70025E3681A788C
:10DBE0005F2AF4D101332046E360FFF7E1FE2A46C5
:10DBF00003462A21C9E701322046E260FFF7D8FE3A
:10DC000005460028E3D02046FFF7D2FE0346002851
:10DC1000DDD02A462B21B8E72046FFF76FFAE568EA
:10DC2000039001462B78492B7FF4EAAE636B73B9FE
:10DC30002046FFF74DF900283FF4C9AE039A20466D
:10DC4000019200F0ECF9019A034604219DE7204679
:10DC5000D4F81480276AE66A00F0E1F9E2681278E5
:10DC6000492A0AD1019020460399FFF731F9019B17
:10DC700000283FF4ADAE039AE7E7E560C4F81480EE
:10DC80002762E662BCE65378A3F13002092A04D980
:10DC90005F2B02D0413B192B10D800212046FFF703
:10DCA000BDFBE368039005461B78492B7FF463AF07
:10DCB000204600F0B4F92A460346C6E7204600F0A5
:10DCC0004BFC039000283FF49BAE0378182B7FF4A5
:10DCD00097AE50E701322046E260FFF769FE00236D
:10DCE0000246242151E701322046E260FFF760FE40
:10DCF00000230246222148E701322046E260FFF776
:10DD000057FE0023024623213FE701322046E2600E
:10DD1000FFF74EFE00230246252136E7013220465A
:10DD2000E260FFF745FE0023024626212DE701327F
:10DD30002046E260FFF7F9F9E368039005461B7897
:10DD4000492B09D1204600F06AF92A4603460421EE
:10DD50002046FFF74AF803902046FFF729FE039B71
:10DD60000246212111E7531CE3605378002B3FF456
:10DD70002EAE931CE3605378462B00F09580543B05
:10DD8000D9B222293FF623AE222B3FF620AE01A1C5
:10DD900051F823F021DE0000CFD90000CFD90000D8
:10DDA000CFD90000CFD90000CFD90000CFD90000D3
:10DDB000CFD90000CFD90000CFD90000CFD90000C3
:10DDC000CFD90000CFD9000067DE0000CFD9000016
:10DDD00075DE000091DE000095DE00007BDE0000B5
:10DDE000CFD9000099DE0000A5DE0000CFD90000E9
:10DDF000CFD90000CFD90000CFD900004BDF000001
:10DE0000CFD9000059DE0000CFD90000CFD90000E3
:10DE1000A1DE000021DE00009DDE000007DF000023
:10DE20002046FFF78FFD0023024643212046FEF7E0
:10DE3000DCFF039000283FF4E3ADE3681A7812B9E1
:10DE400000230393DCE55A1CE2601B78452BF7D1D5
:10DE5000D6E500BF101D03002046FFF7A9FD0023F3
:10DE600002464B2191E6042239492046FEF7FEFF87
:10DE7000039080E60E223749F7E737492046FFF73F
:10DE800008F803908268E36A52681344E36272E61A
:10DE90003249F3E73249F1E73249EFE73249EDE73A
:10DEA0003249EBE73249E9E72046FEF78FFF2C23A2
:10DEB00003900370E3681B78303BDBB2092B94BFFF
:10DEC00001230023838103D804F10C00FFF7C4F879
:10DED0002046039DFFF76CFD039BA8609B68002B09
:10DEE0003FF475AD04F10C00FFF7B6F8E268137863
:10DEF00013B1531CE3601378A3F1730253425341EF
:10DF0000039AD38137E693785F2B18D103322046EA
:10DF1000E260FFF717FD054678B1E3681A785F2ADB
:10DF200011D101332046E360FFF742FD2A46034644
:10DF30002D212046FEF759FF0546039560E5204652
:10DF4000FFF7B4F8E7E70025F7E70A4996E700BFCF
:10DF50000D6F0300126F0300181F03002C1F030036
:10DF6000401F0300541F0300681F03007C1F0300B1
:10DF7000901F0300A41F0300C26810B51378044665
:10DF80004C2B14D006D8493B012B14D92046BDE8B0
:10DF900010400DE5582BF9D10132C260FFF7D2FCD9
:10DFA000E3681A78452A09D10133E36010BDBDE862
:10DFB0001040FFF7C1BABDE8104030E00020F5E79F
:10DFC000C36873B51A780446856A452A09D10133B6
:10DFD0002F21C36000231A4602B0BDE87040FEF74F
:10DFE00004BF002301AE01932046FFF7C5FF0246A0
:10DFF00010B9002002B070BD00232F212046FEF78B
:10E00000F4FE30600028F4D0E36800F10C061A78C2
:10E01000452AE9D101330198A562E360EAE7C268C5
:10E0200011784939012902D80132C260C8E70020BD
:10E030007047C3682DE9F0411A78044612B15A1CA2
:10E04000C2601A78E3681978002935D0591C762AFD
:10E05000E160197817D1A1F13006F3B2092B2BD862
:10E060002046FFF762F805462046FEF7AFFE00287F
:10E0700046D0002D44D0002343603323C0E902651D
:10E080000370BDE8F081632A16D1762914D12046A9
:10E09000D4E90C35B3FA83F35B096363FFF788FCBB
:10E0A000636B024633B1002335212046FEF79DFE07
:10E0B0006563E6E73421F8E743250020114E2B1A6B
:10E0C00003EBD37300EB63031F0106EB0318F7594F
:10E0D00097F800C094450ED17F788F420BD120462F
:10E0E000FEF774FE0028CCD03223C0F808800370FD
:10E0F000C7E71D46E3E79CBF581C2B469842F8D162
:10E100000020BEE7B81F030037B50023044601AD69
:10E110000193E2681378EBB1452B1BD02E2B19D05D
:10E12000522B01D04F2B02D15378452B12D02046D1
:10E13000FFF73EFC024610B9002003B030BD0023BB
:10E140002E212046FEF751FE28600028F4D000F171
:10E150000C05DEE701980028EED0C268002AECD159
:10E16000836819782729E8D199680B7C092BE4D1B9
:10E17000E36A49685B1AE3628260DEE72DE9F84FE3
:10E18000171E0D46C368044614BF4FF01E0A4FF019
:10E190001B0A197815BF4FF01D094FF01A094FF0EF
:10E1A0001C084FF019082E46E2681046FFF73EF8AB
:10E1B000A0B9002F39D1462937D11D201E241C2794
:10E1C000AE4232D02B681A781A2A70D01B2A70D02F
:10E1D000192A00D11F702D680835F1E7531C7229E8
:10E1E000E36011D1E36AC3460933E36200200346CA
:10E1F000002259462046FEF7F8FD3060A0B1E368E2
:10E2000000F108061978CFE7562904D1E36ACB4616
:10E210000933E362EAE74B2904D1E36AD3460633C4
:10E22000E362E3E753781BB900263046BDE8F88F78
:10E23000931CE36092F801B0BBF1780F06D1E36A5A
:10E2400000204FF04D0B1133E362D0E7BBF16F0FAD
:10E2500002D0BBF14F0F12D1E36ABBF14F0F03F1B4
:10E260000903E3621FD12046FFF76CFB0028DBD0D7
:10E27000E3681A78452AD7D10133E360B7E7BBF1E9
:10E28000770FD1D1E36A20460633E362FFF73CFF04
:10E290000028C9D0E3681A78452AC5D101334FF068
:10E2A000500BE360A3E700204FF04F0B9FE718707F
:10E2B00091E71C708FE7C36870B51A7805464A2A43
:10E2C00008D10133C3602846FFF772FB044620B92A
:10E2D000002070BD0029F6D10C462846FFF714FF38
:10E2E00003460028F4D0224628462921BDE8704084
:10E2F000FEF77BBD10B50446806810F4802005D180
:10E30000A36BB3F5006F0DD80133A363E3681A78EC
:10E31000462A08D00020A3685B035EBFA36B03F10D
:10E32000FF33A36310BD5A1C01212046E2605A78D6
:10E33000592A04BF0233E360FFF7BDFF01462046C0
:10E34000FEF7B0FDE3681A78452AE3D10133E360B4
:10E35000E1E7F8B5C36805461A78A2F1300109294A
:10E360000DD8FEF7E2FE0446EB681B78422B40F026
:10E37000A08021462846BDE8F840FEF715BFA2F16F
:10E380006101192924D86F2A04D15A786E2A04BF52
:10E390000233C3602846FFF74CFE044660B303789F
:10E3A000322BE1D18268EB6A9168073310680B4425
:10E3B0006849EB6203F0A6FB0028D5D12846FEF79A
:10E3C000B4FE2246034637212846FEF70EFDCAE773
:10E3D000A2F14301012963D8866A46B1327822B995
:10E3E000EA6AF1680A44EA6201E0182AF8D01A7869
:10E3F000432A03D0442A25D00024B5E75A78492A75
:10E4000005BF013301220022EB60EB685E78A6F1C4
:10E4100031010429F0D80233EB6012B12846FFF72E
:10E42000C7FA2846AF6AFEF7D1FC04460028E3D0BD
:10E43000002FE1D00023303EC760436007230672FF
:10E44000037091E75A78303A052AD5D801A151F8DE
:10E4500022F000BF9DE400006DE4000091E40000A4
:10E46000F9E3000095E4000099E40000022702337C
:10E470002846EB60FEF7AAFC04460028BCD0002E1C
:10E48000BAD000230772C6604360082303706BE7AD
:10E490000327ECE70427EAE70527E8E70127E6E793
:10E4A0004C2A0FD10133C360FEF73FFE044610B97A
:10E4B00000242046F8BD2846FEF7E3FE00287FF43E
:10E4C00053AFF5E7552AF3D15A786C2A15D0742A40
:10E4D000EED15A1CC2605A78742A8DD10233C360BF
:10E4E000FEF7F3FD061E87DB2846FEF76FFC0446A9
:10E4F00038B348238660037023E05A1CC2605A7800
:10E500006C2A7FF479AF0233C360FFF7FDFD074645
:10E5100000283FF471AFEB681A78452A7FF46CAF9E
:10E5200001332846EB60FEF7D0FD061EFFF664AF10
:10E530002846FEF74BFC044618B14623C0E9027694
:10E54000037021462846FEF7C3FC00287FF40CAF79
:10E5500052E700BF216F03002DE9FF47C36804465F
:10E560001A78552A00F0068115D84E2A41D0532A30
:10E5700000F004812046FFF7ECFEE36805461B78B7
:10E58000492B40F0C68029462046FEF7A1FC002812
:10E5900040F0038135E05A2AECD101330021C360F9
:10E5A00000F01EF9054660B3E3681A78452A28D1C1
:10E5B0005A1CE2605A78732A40F0AF80023320463A
:10E5C000E360FEF75EFEE0B10E2282492046FEF7D0
:10E5D0004DFC03462A78032A05D1EA6811782929D7
:10E5E00004BF002191602A4602212046FEF7FDFB70
:10E5F000C2E00133012203A9C360FFF7BFFD074654
:10E6000008B9002585E000212046FEF74BFC4FF0BD
:10E61000000A8046DFF8C491E3681E7816B900232B
:10E620003B60EEE7442E18D15B78204603F0DF0311
:10E63000542B0FD1FFF7BCF90546BAF1000F1ED1DC
:10E64000E3681B78452B3DD029462046FEF740FC69
:10E65000C0BBE4E7FFF77DFEEEE7A6F13002D2B2E1
:10E660001C2A0ED9A6F16102192A01D9552E1FD1F3
:10E670002046FFF76EFE0546BAF1000F15D00121C6
:10E680000DE029FA02F2D207F2D4492E1CD1BAF1D8
:10E69000000FC4D02046FFF7C2FC042105462B46DC
:10E6A00052462046FEF7A1FB0546532EC8D109E08D
:10E6B000532EEAD101212046FEF7B0FE0546BAF1FD
:10E6C000000FDCD1AA46A7E7542E03D12046FEF75F
:10E6D00015FDB1E7452E08D04D2EA0D1BAF1000F9F
:10E6E0009DD001335546E360ECE7C7F800A0BAF1CE
:10E6F000000F86D0B8F1000F04D0039ACDF80C803B
:10E70000C8F808201A78452A7FF47BAF0133039DAF
:10E71000E360284604B0BDE8F087642A10D10233D4
:10E720002046E360FEF7D1FC071EFFF66AAF2046E5
:10E73000FFF712FF064630B97B1C0FD1334649E77D
:10E740004FF0FF37F3E70378462BF5D0482BF3D093
:10E750002046FEF796FD0028EED152E72046FEF750
:10E7600035FB034600283FF435AF4722C0E9026776
:10E7700002702FE7FFF7EDFD0546CAE75A78742AC5
:10E7800012D00021FEF74AFE01230546E268127806
:10E79000492ABED1002B3FF4F6AE2046FFF73FFCDE
:10E7A0002A460346042120E7023303220A49C360B4
:10E7B000FEF75CFB01902046FFF7CBFD019A034674
:10E7C00001212046FEF711FBE36A05460333E362AD
:10E7D0000023DBE7246F0300336F0300FF030810FF
:10E7E000C3682DE9F7431A7804460E46472A02D03B
:10E7F000542A40F08D81E26A02F11401E162197835
:10E80000542908D1591CE160597819BB00252846C4
:10E8100003B0BDE8F0834729F8D15A1CE2605A786A
:10E82000002AF3D09A1CE2605A78542A00F03F8103
:10E8300000F2E680412A00F03281522AE6D12046D9
:10E84000FFF78AFE01902046FEF730FC019A03464E
:10E8500016215DE0991CE1605978572936D8402986
:10E86000D4D941391629D1D801A353F821F000BFDA
:10E87000F3E900000DE8000083E900000DE8000066
:10E880000DE80000BBE900000DE80000D7E900003A
:10E890002FE90000C9E900000DE800000DE80000C4
:10E8A0000DE800000DE800000DE800000DE8000094
:10E8B0000DE800000DE800003DE900001DE9000042
:10E8C0000DE8000001E90000E5E9000068293CD0FE
:10E8D000762948D0632999D100212046FEF77EFC95
:10E8E000002893D000212046FEF778FC00288DD028
:10E8F00000212046FFF774FF00230246112107E0A4
:10E900000F322046E262FFF753F800230246092146
:10E91000204603B0BDE8F043FEF767BA0A3220464E
:10E92000E262FFF745F8002302460A21F0E720469D
:10E93000FFF73EF8002302460C21E9E72046FFF7E7
:10E9400037F8002302460D21E2E72046FEF746FC99
:10E9500000283FF45BAF00212046FFF741FF002372
:10E9600002460F21D4E72046FEF738FC00283FF48A
:10E970004DAF00212046FFF733FF00230246102150
:10E98000C6E72046FFF714F8054604F10C00FEF731
:10E9900063FB0028FFF63AAFE26813785F2B7FF441
:10E9A00035AF01322046E260FFF702F8E36A024623
:10E9B0000B210533E3622B46AAE72046FEF7F8FF5A
:10E9C000002302460E21A3E72046FEF7F1FF0023B5
:10E9D000024612219CE72046FFF7BEFD00230246B7
:10E9E000142195E72046FFF7B7FD002302461521C5
:10E9F0008EE72046FFF7C0FA00230246302187E762
:10EA0000562A45D0722A7FF401AF04F10C00FEF7BC
:10EA100023FB01287FF7FAAEE3681A78002A3FF457
:10EA2000F5AE5D1CE5601B785F2B7FF4EFAE461EF4
:10EA30004FF0000841272B78002B3FF4E7AE242B42
:10EA400050D16D78532D49D05F2D49D0242D7FF4BE
:10EA5000DDAE2046FEF7BAF908B107708560E568BB
:10EA6000023E0235E56000283FF4D0AEB8F1000F59
:10EA700008D00346424640212046FEF7B6F900285A
:10EA80003FF4C4AE002E27DC002302463F213FE7BF
:10EA90002046FFF761FD00230246132138E70021DD
:10EAA0002046FFF79DFE00230246172130E79A78A3
:10EAB0000021204652B1DA1CE2609B786E2B05D112
:10EAC000FFF78EFE002302464A2121E7FFF788FE6A
:10EAD0000023024649211BE78046ACE72F25B8E713
:10EAE0002E25B6E74FF0000915F809302BB1242B7D
:10EAF00003D009F10109B145F6DB29464A46204613
:10EB0000A6EB0906FEF7B2F9E5684D44E560AAE711
:10EB1000FFF722FD054600283FF478AE16B1A36842
:10EB2000D90711D5E3681B78002B3FF470AE452B55
:10EB30003FF46DAE29460A78042A38D017D8022A45
:10EB400020D0002121E0AD682B781846FEF730F97F
:10EB50000028F8D1022B7FF45AAEEB681878FEF744
:10EB600027F900283FF453AE9B68EB60F5E74D2A88
:10EB700003D004D81C3A042AE3D8896803E04F3A4A
:10EB8000012AF9E7C9680029D5D12046FFF793FB90
:10EB900000283FF43BAE36B92B78022B03D1037823
:10EBA000292B08BF866003462A460321B0E68B68FE
:10EBB0006BB11978082906D806290DD80139012921
:10EBC00008D9002303E0A1F135025342534183F0F9
:10EBD0000101DAE7DB68EBE70123F8E72DE9F04F05
:10EBE000044697B00E4615463AB15268012A04DC35
:10EBF000D0F81C31B3F5806F05DD0123C4F818315E
:10EC000017B0BDE8F08F0133013202A902956A60A6
:10EC1000C0F81C31D0F81881D0F82C31C0F82C1174
:10EC20000393B8F1000F5DD12B78502B00F234869E
:10EC3000DFE813F05100B600B600DD0020016701E7
:10EC400081079E01A301AC01B501BE01D001D9012C
:10EC5000E201EB01F401FD0106020F02180221029C
:10EC60005602680283028802880288023E033E033D
:10EC70003E033E033E033E033E03C602C6023E037E
:10EC80003E0343034D0352038F03F2030D04F203CB
:10EC90002D042D04950159046E048A04320694044F
:10ECA000DE04E4049C0532063706320632068E0680
:10ECB0008E0615071F072A071007480795079F07A5
:10ECC000A9073206CA0771027A025607A4003E035A
:10ECD000D8073E033E037607AF680FD4EA6839468B
:10ECE000FEF783F9039BC4F82C316B68013B6B6022
:10ECF000D4F81C31013BC4F81C3181E7EB6807EB09
:10ED00000308B845EED9A8EB07033978032B0CDDCF
:10ED10005F290AD17B785F2B07D1BB78552B04D1B3
:10ED2000FE1C0020B045B14604D82046B946FEF787
:10ED30004AF920E016F8013BA3F130025FFA82FCA9
:10ED4000BCF1090F03D8134603EB0010EAE7A3F167
:10ED50004102052A01D8373BF6E7A3F16102052AF3
:10ED600001D8573BF0E75F2BDFD1FF28DDD8C1B2D8
:10ED70002046FEF728F909F10107C2E7AA683146E3
:10ED8000FFF72CFF2046C049FEF748F931462046E0
:10ED9000EA68FFF723FF5D212046FEF714F9A1E79B
:10EDA000AA683146FFF71AFF70071BD4B7492046FF
:10EDB000FEF734F9EF683B78472B0DD1B449204674
:10EDC000FEF72CF9F96820460131FEF734F9B14914
:10EDD0002046FEF723F9BF683A4631462046FFF742
:10EDE000FDFE7FE72E212046FEF7EDF8E2E7D0F8A2
:10EDF00014310022AF68019306AB90461146994644
:10EE0000C0F8142117B1B8F1040F03D10123C4F8DD
:10EE1000183167E7D4F8142108F10108D4F810A1DB
:10EE20001A60C4F81431C3F80CA0C3E901713A7830
:10EE30001046FDF7BDFF1033002800F0E686BF68DE
:10EE4000E0E7B8F1040F09F1100CDFD0A9F1100EC2
:10EE5000C4F8149108F101089EE80F0089E80F003A
:10EE60004CF810EC49F804AC49E9037BE146BF6873
:10EE700000F0D9BE00237107D0F84881D0F8149172
:10EE8000AF68C0F84851C0F8143117D53B78ABB91A
:10EE9000FA68062A12D18049B86822F0D1F868B918
:10EEA00031462046EA68FFF799FE7C492046FEF786
:10EEB000B5F8C4F81491C4F8488113E73A463146CE
:10EEC0002046FFF78BFE94F804313C2B03D1202120
:10EED0002046FEF778F83C212046FEF774F8EA68F1
:10EEE00031462046FFF77AFE94F804313E2B03D1D9
:10EEF00020212046FEF767F83E212046FEF763F802
:10EF0000D7E7D0F820314BB105226549FEF76DF8FF
:10EF1000A96820460131FEF78EF8E3E605F1080105
:10EF2000FEF719FA024650B103782F2B0BD1D4F813
:10EF30002411002907DBFEF7C7F9024618B901239F
:10EF4000C4F81831CEE6D4F81071314620463B683B
:10EF5000C4F81031FFF742FEC4F81071C2E65149FF
:10EF6000FEF75CF8AA6831462046FFF737FEB9E69F
:10EF7000EA683146FFF732FEB4E67E21FEF723F859
:10EF8000EA6831462046FFF729FEABE64649FEF720
:10EF900045F8AA6831462046FFF720FEA2E643491D
:10EFA000FEF73CF8AA6831462046FFF717FE99E6BF
:10EFB0003F49FEF733F8AA6831462046FFF70EFEB8
:10EFC00020463C49FEF72AF8EA6831462046FFF71A
:10EFD00005FE87E63849FEF721F8AA683146204643
:10EFE000FFF7FCFD7EE63549FEF718F8AA683146C2
:10EFF0002046FFF7F3FD75E63149FEF70FF8AA68E2
:10F0000031462046FFF7EAFD6CE62E49FEF706F88A
:10F01000AA6831462046FFF7E1FD63E62A49FDF77D
:10F02000FDFFAA6831462046FFF7D8FD5AE627497A
:10F03000FDF7F4FFAA6831462046FFF7CFFD51E601
:10F040002349FDF7EBFFAA6831462046FFF7C6FDCE
:10F0500048E62049FDF7E2FFAA6831462046FFF75F
:10F06000BDFD3FE61C49FDF7D9FFAA6831462046A1
:10F07000FFF7B4FD36E61949FDF7D0FFAA6831461F
:10F080002046FFF7ABFD2DE6376F03004C6F030002
:10F090003D6F03004B6F03004F6F0300F7730300D6
:10F0A000566F03005C6F0300916F03007B6F0300DA
:10F0B000846F03009D6F0300A26F0300B06F030015
:10F0C000C36F0300D46F0300D86F0300EA6F03001F
:10F0D00005700300157003002970030040700300E1
:10F0E000B849FDF79BFFEA6831462046FFF776FDF9
:10F0F0002046B549FDF792FFAA6831462046FFF742
:10F100006DFDEFE5B149FDF789FFAA68314620465C
:10F11000FFF764FDE6E5AE49FDF780FFAA683146DA
:10F120002046FFF75BFDDDE5AA49FDF777FFAA68FA
:10F1300031462046FFF752FDD4E5D5E90212FDF72E
:10F1400054FFCFE5D0F8142122BB90462F46D4F8C7
:10F1500014310797069306ABC4F8143100230893C3
:10F16000D4F81031099302B9BA6831462046FFF746
:10F1700035FD089B23B93A463146204600F09EFDF6
:10F18000069BC4F81431B8F1000F3FF4ABADC4F8DE
:10F190001091A7E5D2F80880B8F1000F0ED15168A0
:10F1A0000978A1F11900022800F284808B4205D170
:10F1B000AA6831462046FFF711FD93E51268C3E7C0
:10F1C000D0F82081AF68B8F1000F65D13B78052BEE
:10F1D00064D1D0F8343142469A4207DBD4F8382162
:10F1E00093420DDB0123C4F818317BE5D4F83001DC
:10F1F00000EBC20C50F83200874239D00132EBE705
:10F20000D4F83011581C01EBC302C4F8340141F8A2
:10F210003370131DD4F81021CAB91A6007F1080120
:10F220002046FEF798F8074650B103782F2B35D1CA
:10F23000D4F82411002931DBFEF746F8074668BBF5
:10F24000B8F1000F3FF47BAEC4F8109177E6D4E933
:10F2500050108142C6DAD4F83C0100EBC100013104
:10F26000C4F8401151684160186003461268D3E742
:10F270000B461A689742D1D0954201D18B42CDD12D
:10F280005B68002BF5D1DCF804304FF00108D4F8AE
:10F290001091C4F81031C1E74FF000083B78232BE0
:10F2A00009D02A789A4206D0242B03D1BA684DE7B8
:10F2B0004FF000082F46002249E7AB68720754BFA1
:10F2C000D3E90012D3E90212FDF78FFE0AE5AA681E
:10F2D0003146FFF783FC05E516F0200707D0D0F88C
:10F2E000143105F10C0226F0600100F081FDAA68DE
:10F2F0005AB326F060011FB12046FFF76FFCF1E41E
:10F30000730618D4D4F814312046069306ABC4F81B
:10F310001431D4F81031CDE907570993FFF75EFC9B
:10F32000069BC4F81431089B002B7FF4DBAC202132
:10F330002046FDF748FED4F8143105F10C0226F002
:10F340006001204600F054FDCCE4002F7FF4CAACED
:10F35000F1E7D0F81491002301270DF11808089364
:10F36000CC46D0F81031BA46CDF81890C0F81481C8
:10F3700007950993BCF1000F05D0DCF804301B7829
:10F38000193B022B15D9EA6831462046FFF726FCC7
:10F39000089BC4F81491002B7FF4A4AC012F32D148
:10F3A000D4F8143105F108023146204600F0F4FD8E
:10F3B00098E4DCF808301BBB032F0DD90123C4F8F7
:10F3C00018318FE45A7003007E6F030070700300E1
:10F3D000867003008270030016AB03EB071B9CE8EA
:10F3E0000F00ABF1400E8EE80F00D4F814314BF84B
:10F3F000403C08EB07130137C4F81431CCF808A0DF
:10F40000DCF800C0B6E7013F3146204608EB0713A1
:10F410005A6800F053FCC1E7D0F814313146EA686D
:10F42000069306AB0795C0F8143100230893D0F873
:10F4300010310993FFF7D2FB089B23B92A463146C6
:10F44000204600F03BFC069BC4F814314AE4B5F9B1
:10F450000E3013B1B949FDF7E1FDAA68B84B9168C8
:10F46000994207D031462046FFF7B8FB20212046BD
:10F47000FDF7A9FDB5F90C3023B1B2492046FDF7DF
:10F48000CDFD2FE4B0492046FDF7C8FD2AE4AA6867
:10F4900012B13146FFF7A2FBEB68002B3FF422AC20
:10F4A000D4F80031FD2B02D92046FDF77BFDA7499A
:10F4B0002046FDF7B3FDEA6831462046D4F828819E
:10F4C000D4F80071FFF78AFBD4F8283198457FF40F
:10F4D00009ACD4F800319F427FF404AC023FC4F879
:10F4E0000071FFF7FFBBD5E9022712B13146FFF7E4
:10F4F00075FB20467B21FDF766FD314620463A46E6
:10F50000FFF76CFB7D212046FDF75DFDFFF7EABBB1
:10F51000AF688F49BE68FDF781FD7B681B78613B52
:10F52000192B03D820212046FDF74DFD7968204690
:10F530008B1913F8013C202B08BF06F1FF36324629
:10F54000FDF753FDFFF7CEBB8249FDF767FDEA6883
:10F5500031462046FFF742FBFFF7C4BB7D49FDF76C
:10F560005DFDD4F8483133B1D4F8102107930692E9
:10F5700006AAC4F81021AA681378042B0DD03146CE
:10F580002046FFF72BFBD4F84831002B3FF4AAAB01
:10F59000069BC4F81031FFF7A5BB926831462046A0
:10F5A000FFF71CFBD4F8483113B1069BC4F81031A7
:10F5B00094F804313C2B03D120212046FDF703FDB4
:10F5C0003C212046FDF7FFFCAB6831462046DA6857
:10F5D000FFF704FB94F804313E2B03D12021204691
:10F5E000FDF7F1FC3E212046FDF7EDFCFFF77ABB6D
:10F5F000AA68314600F014FDFFF774BBD5E902A7F5
:10F600009AF80030322B34D1DAF808305249D3F866
:10F610000090484602F076FA58B93B78032B08D19F
:10F62000BB681A78012A04D1FA681278292A08BF1F
:10F630001F463B78392B0BD1BA683146204600F083
:10F64000FEFC52463146204600F0EAFCFFF74ABB7A
:10F650004249484602F056FAF0B939462046FDF7CD
:10F6600089FEFDF7CFFC01462046FDF7E4FCFFF7DD
:10F6700039BB342B32D04FF0000952463146204678
:10F6800000F0CEFCB9F1000F36D13A4631462046A3
:10F6900000F0D5FCFFF726BB3149484602F032FAAC
:10F6A00080460028E9D13B782F2B0ED1BB6863B18F
:10F6B0001A784B2A0FD199682046FDF75BFEFDF7BB
:10F6C000A1FC8044FF68002FEDD141462046FDF7A4
:10F6D000B2FCFFF707BB08F10108F3E72821FDF7AB
:10F6E00072FC31462046DAF80820FFF777FA292124
:10F6F0002046FDF768FCC8E71A49484602F002FABE
:10F7000030B93A4631462046FFF768FAFFF7EABAC1
:10F710001549484602F0F6F90028B6D120462821BE
:10F72000FDF751FC314620463A46FFF757FA2921AA
:10F730002046FDF748FCFFF7D5BA00BF9D700300D7
:10F74000B01D0300A3700300AA700300B170030092
:10F75000B4700300BD700300D93C0300C770030000
:10F760000A6F0300CA70030083730300EB681B7801
:10F77000392B7FF4E4ABA9688868FDF76FFDF0B121
:10F780000A462046314600F04BFC20463C21FDF75E
:10F790001AFCEB68314620469A68FFF71FFA2046AC
:10F7A000BC49FDF73BFCEB6831462046DA68FFF7C1
:10F7B00015FA29212046FDF706FCFFF793BA2A46E1
:10F7C0003146204600F059FC00287FF48BAAAB6834
:10F7D0001A78322A0BD19B689A68012A07D15B6894
:10F7E0001B783E2B03D128212046FDF7ECFBAB68AC
:10F7F000A9499B68186802F085F9EB689A6850B9C6
:10F800001378032B07D1D3681B78292B1CBF012346
:10F81000C4F8183192683146204600F010FCAF68F9
:10F820009E49BB68D3F80080404602F06BF910BBDC
:10F830005B212046FDF7C7FBEB6831462046DA68BE
:10F84000FFF7CCF95D212046FDF7BDFBAB681A78C8
:10F85000322A7FF447AA9B689A68012A7FF442AA59
:10F860005B681B783E2B7FF43DAA29212046FDF7DB
:10F87000AAFBFFF737BA8849404602F043F920B1A6
:10F880003A463146204600F0CBFBEB683146204635
:10F89000DA6800F0D4FBD9E70123C0F81831FFF78C
:10F8A00021BAEB681A783B2A7FF449ABDB681B78F6
:10F8B0003C2B7FF444AB2A46314600F0DEFB0028A7
:10F8C0007FF410AA7649D5E902A3D3E90283D3E9EC
:10F8D0000297DAF80830186802F014F9C8B94246FD
:10F8E0003146204600F0ABFB52463146204600F040
:10F8F00097FB4A463146204600F0A1FB2046694965
:10F90000FDF78CFB3A463146204600F098FBFFF7A6
:10F91000E9B965492046FDF781FBD8F8083043B1C5
:10F9200031462046424600F08AFB20212046FDF762
:10F930004AFB4A4631462046FFF750F9002F3FF474
:10F94000D1A93A463146204600F079FBFFF7CAB903
:10F95000AA68117827297BD19268177C062F16D8C0
:10F96000BFB1EA681278A2B93E2B02D12D21FDF772
:10F970002AFB023FEA6831462046FFF72FF9042FA1
:10F980003FF6B0A9DFE807F02D33393F4500072FD8
:10F9900045D028212046FDF716FBAA6831462046AF
:10F9A000FFF71CF929212046FDF70DFB2B783E2B94
:10F9B00003D12D212046FDF706FB082F03D15B2143
:10F9C0002046FDF700FBEA6831462046FFF706F9BE
:10F9D000082F7FF487A95D212046FDF7F4FAFFF791
:10F9E00081B975212046FDF7EEFAFFF77BB96C214E
:10F9F0002046FDF7E8FAFFF775B92C492046FDF7D8
:10FA00000DFBFFF76FB92A492046FDF707FBFFF70B
:10FA100069B928492046FDF701FBFFF763B9EA6899
:10FA200011780029B5D1D1680129B2D13D2BB0D1CF
:10FA300093681B78302B06D0312BAAD11E49FDF7D5
:10FA4000EDFAFFF74FB91D49FDF7E8FAFFF74AB99C
:10FA500000279EE7A968FDF7EEFAFFF743B91849BA
:10FA6000FDF7DCFAAA6831462046FFF7B7F8FFF742
:10FA700039B9AA683146FFF7B1F8EA68314620463D
:10FA8000FFF7ACF8FFF72EB9297AFDF79CFAFFF7DC
:10FA900029B900BFCD700300016F0300D0700300CF
:10FAA000076F0300D3700300D7700300DC700300FE
:10FAB000E0700300DF700300E37003001D620300C9
:10FAC000E87003007249FDF7A9FA31462046AA689A
:10FAD000FFF784F829212046FDF775FAFFF702B9F0
:10FAE000A968FDF747FC50B931462046AA6800F0E6
:10FAF000A6FA68492046FDF791FAFFF7F3B8FDF73B
:10FB000081FADFF8B4B10746D5F8089000F1FF3A62
:10FB100047457FF7E7A84A4631462046C4F8248186
:10FB2000FFF75CF8D04503DA59462046FDF776FA30
:10FB300008F10108ECE7AE6826B95749FDF76EFAFF
:10FB4000FFF7D0B85549FDF769FA31462046FDF771
:10FB500072FA7D212046FDF736FAFFF7C3B8504907
:10FB6000FDF75CFAAA6831462046FFF737F8FFF741
:10FB7000B9B84C49FDF752FAAA6831462046FFF75A
:10FB80002DF8FFF7AFB84849FDF748FAD4F820310F
:10FB9000AA68314601332046C4F82031FFF71EF829
:10FBA000D4F8203120464149013BC4F82031FDF70B
:10FBB00035FAE96820460131FDF73DFA7D212046FE
:10FBC000FDF701FAFFF78EB83949FDF727FAA96862
:10FBD00020460131FDF72FFA7D212046FDF7F3F98C
:10FBE000FFF780B8AA683146FEF7F8FF2046314992
:10FBF000FDF714FA31462046EA68FEF7EFFF5D2173
:10FC00002046FDF7E0F9FFF76DB8022A11D1FF6831
:10FC10003B78472B03D1BF68002F3FF4F7A809EBCF
:10FC200008194FF0000B3878FDF7C2F800287FF470
:10FC300008A93B783146EA682046042B01BF04AB93
:10FC40000597CDF810A0C4F81031FEF7C7FF3B7838
:10FC5000042B04BF049BC4F8103106AB03EB081758
:10FC600057F8083C08F1FF384BB920212046FDF732
:10FC7000AAF957F80C2C3146204600F01FF8103F27
:10FC8000B8F1000FECD1019BC4F81431FFF72AB88A
:10FC9000F7700300D27103000271030007710300C3
:10FCA0000E7103002C7103004971030052710300AF
:10FCB0005571030064710300B170030070B51378CF
:10FCC00004460E461546032B6ED0193BDAB2372A8E
:10FCD00074D8372B72D8DFE803F01C22241C2224AE
:10FCE0004B503C434E5355577171717159716C7142
:10FCF00071717171717171717171717171717171F4
:10FD0000717171717171717171717171717126712E
:10FD1000283A2C492046BDE87040FDF77FB92A49B2
:10FD2000F8E72A49F6E72A49F4E72A492046FDF789
:10FD300075F9EB68002B43D028212046FDF743F9E5
:10FD4000EA6831462046FEF749FF29210BE02249A7
:10FD5000ECE72021FDF737F9EA683146204624E038
:10FD60004B072DD42A212046BDE87040FDF72BB962
:10FD70002021FDF728F92621F5E72021FDF723F9B9
:10FD80001649C7E71649C5E71649C3E790F8043195
:10FD9000282B02D02021FDF716F93146AA6820460B
:10FDA000FEF71CFF1049B5E79268BDE87040FEF70A
:10FDB00015BF0E49FDF732F9AA68C2E72A46CCE71B
:10FDC00070BD00BF6D710300777103008171030086
:10FDD000887103009A710300A4710300AB710300E2
:10FDE000AE710300B7710300C2710300C671030056
:10FDF0002DE9F84304460E4690461F461D463DBB7E
:10FE00000023D4F814913A4631462046C4F8143100
:10FE100000F049F81DB129212046FDF7D4F828212A
:10FE20002046FDF7D0F8D8F800201AB13146204618
:10FE3000FEF7D4FE29212046FDF7C5F801233A46F6
:10FE40003146204600F02FF8C4F81491BDE8F8833D
:10FE5000AB6893B96B681B78193B122B0BD8DFE8A2
:10FE600003F01414140A0A0A0A0A140E0E0E1414CB
:10FE70000A0A0A0A14002D68C1E70025C0E794F8B1
:10FE8000043103F0FD03282B07D094F80431202B14
:10FE900003D020212046FDF796F828212046012591
:10FEA000FDF791F8ACE72DE9F84304460E461546F8
:10FEB00098464FF0010905B3D4F81831EBB9AB6897
:10FEC00043B96A681178B8F1000F05D10846FCF70C
:10FED0006FFF08B12D68EEE7EB682929D4F810719F
:10FEE000C5F80890C4F8103109D12B680C3231469E
:10FEF0002046FFF77DFFC4F81071BDE8F8832A297A
:10FF000006D12B6808323146204600F045F8F2E76A
:10FF1000022934D10023D4F8148192683146C4F800
:10FF200014312046FEF75AFE7307C4F8148121D419
:10FF300016492046FDF772F86B68DD682B78472B71
:10FF40000DD113492046FDF769F8E96820460131D3
:10FF5000FDF771F80F492046FDF760F8AD68287885
:10FF6000FCF726FF0028F9D12A4631462046FEF745
:10FF700035FEC0E72E212046FDF725F8DCE73146A7
:10FF80002046FFF79BFEC4F81071A3E74C6F0300F7
:10FF90003D6F03004B6F03002DE9F3410F46904680
:10FFA0001E46B3B920210190FDF70DF801985B21A1
:10FFB0000190FDF708F8D8F8002001981AB13946E9
:10FFC000FEF70CFE01985D2102B0BDE8F041FCF7A0
:10FFD000FABF1C46A5685DB963681B782A2B1AD046
:10FFE00001240E490190FDF719F82546019803E018
:10FFF0002468002CEED101250023324639460190B9
:020000021000EC
:10000000FFF751FF01981CB12921FCF7DCFF019893
:10001000002DC7D1CBE72C46EEE700BFFF700300F1
:1000200010B41478322C06D193685DF8044BD3E9F0
:100030000112FCF7DABF5DF8044BFEF7CFBDF8B54F
:10004000137804460F461646012B13D9312B11D0D5
:10005000062B0FD000252821FCF7B5FF3246394684
:100060002046FEF7BBFD3DB920462921BDE8F840FA
:10007000FCF7A9BF0125F1E7F8BD2DE9F843936826
:100080000D4604469B681B68197866295CD1D268C6
:10009000D0F82491D2E9027632783C2A4FF0FF3230
:1000A00008BFD6E90268C0F8242118BF4FF0000845
:1000B0005B786C2B1DD008D84C2B2CD0522B2AD01F
:1000C0000120C4F82491BDE8F883722BF8D12821CF
:1000D000FCF779FF324629462046FFF7B0FF294654
:1000E00020463A46FFF79CFF18492046FCF796FF4A
:1000F000E6E71749FCF792FF3A4629462046FFF704
:100100008FFF324629462046FFF799FF29212046D6
:10011000FCF759FFD4E728212046FCF754FF32466C
:1001200029462046FFF78BFF3A4629462046FFF72F
:1001300077FF08492046FCF771FF3A4629462046DA
:10014000FFF76EFF4246DDE70020BCE7D6710300F3
:10015000D1710300D27103002DE9F04FE5B00546DF
:100160008946904690F800B000AFBBF15F0F02D116
:1001700043785A2B71D008229A49284620F060FF14
:1001800000286DD12B7A2E2B03D05F2B01D0242B8E
:1001900066D16B7A442B01D0492B61D1AA7A5F2AB0
:1001A0005ED1492B0CBF4FF0020A4FF0030A2846DC
:1001B000002401F0B1FC2B18BD60FB601123FC6131
:1001C0003C64C7E904354300B3F5006F3B62C7E9FF
:1001D0000A40C7E90C44C7E90E4400F2A0806E460D
:1001E000BAF1010FA6EB40134FEA80009D46BB61B8
:1001F00000F1070020F00700ADEB000DC7F824D098
:1002000000F09380AAF10203012B2CD8BAF1020F5F
:10021000EB7A05F10B010CBF4FF0440A4FF0450A91
:100220005F2B796100F0CF800846796001F074FCA3
:100230007968024607F10800FCF718FE0246002321
:10024000514607F10800FCF7D0FD7D6904462846B9
:1002500001F062FC284478610AE04FF0010AA6E749
:100260004FF0000AA3E707F10800FDF7A1FB0446E1
:100270007B691D78002D40F0B280002C4ED02146C5
:1002800007F14400C7F8445187F84851C7F8645152
:10029000C7F88851C7E95555C7E95A55C7E95755B1
:1002A000C7E95C55C7E95E55C7E96055C7E953988A
:1002B000FCF71CFED7F86031D7F87C210021B3F59C
:1002C000006FD7F88831C7F88C1107F14400B8BF28
:1002D000C7F86051012A03FB02F36D46B8BF012243
:1002E000012BC7F88831A5EBC202B8BF01239546A0
:1002F000C7F8742122466946A1EBC30311219D462C
:10030000C7F880D1FEF76AFC07F14400AD46FCF760
:1003100049FED7F85C41B4FA84F46409B546204636
:1003200007F5CA77BD46BDE8F08FBBF15F0F01D07E
:1003300000249DE76B1C7B616B785A2BF8D102354A
:10034000514607F108007D61FEF74AFA3B69044611
:10035000DB078DD579690B782E2B89D14B78A3F1EA
:100360006102192A07D95F2B05D0303B092B3FF6D4
:100370007FAF0A4609E08B1C1A4613F8010BA0F167
:100380006105192DF8D95F28F6D013782E2B0ED0E1
:100390007A6107F10800521AFCF768FD224603460D
:1003A0004E2107F10800FCF720FD0446D2E7537800
:1003B000303B092BECD8901C024601301378303BBF
:1003C000092BF9D9E1E72B7B5A2B7FF42DAF0D35A3
:1003D000214607F108007D61FEF702FA2EE70024AE
:1003E0009CE700BFE26E03002DE9FF410F46164671
:1003F0001C4648B924B90025284604B0BDE8F08160
:100400006FF002032360F6E709B1002AF2D000235F
:100410006A461E49CDE90033CDE90233FFF79CFE61
:1004200038B9009815F0B0F8002CE4D06FF0010353
:10043000E8E7039B63B9DDF80880009D5DB9002CF7
:10044000D9D0B8F1010FF1D14FF0FF332360D3E7DA
:100450004FF00108F1E71FB986B1C6F800800DE042
:10046000284601F059FB336898420BD2294638469A
:1004700020F0DEFD28463D4615F086F8002CBBD066
:100480000023E3E7384615F07FF8E6E7E7D20000FF
:1004900008B540B139B1FFF75FFE002814BF002056
:1004A0006FF0010008BD6FF00200FBE770B54FF080
:1004B000FF0C4CF4E06C1CEA11541DBF1CEA1355F0
:1004C00094EA0C0F95EA0C0F00F0DEF82C4481EA58
:1004D000030621EA4C5123EA4C5350EA013518BF78
:1004E00052EA033541F4801143F4801338D0A0FB65
:1004F00002CE4FF00005E1FB02E506F00042E0FB12
:1005000003E54FF00006E1FB03569CF0000F18BF17
:100510004EF0010EA4F1FF04B6F5007F64F54074BF
:1005200004D25FEA4E0E6D4146EB060642EAC62152
:1005300041EA55514FEAC52040EA5E504FEACE2EBF
:10054000B4F1FD0C88BFBCF5E06F1ED8BEF1004FC2
:1005500008BF5FEA500E50F1000041EB045170BD3E
:1005600006F0004646EA010140EA020081EA030182
:10057000B4EB5C04C2BFD4EB0C0541EA045170BD7E
:1005800041F480114FF0000E013C00F3AB8014F1F8
:10059000360FDEBF002001F0004170BDC4F1000441
:1005A000203C35DA0C341BDC04F11404C4F12005C2
:1005B00000FA05F320FA04F001FA05F240EA02001D
:1005C00001F0004221F0004110EBD37021FA04F653
:1005D00042EB06015EEA430E08BF20EAD37070BD0D
:1005E000C4F10C04C4F1200500FA04F320FA05F06C
:1005F00001FA04F240EA020001F0004110EBD3706E
:1006000041F100015EEA430E08BF20EAD37070BDDD
:10061000C4F1200500FA05F24EEA020E20FA04F3B6
:1006200001FA05F243EA020321FA04F001F0004165
:1006300021FA04F220EA020000EBD3705EEA430ED6
:1006400008BF20EAD37070BD94F0000F0FD101F005
:100650000046400041EB010111F4801F08BF013C3E
:10066000F7D041EA060195F0000F18BF704703F07C
:100670000046520043EB030313F4801F08BF013D03
:10068000F7D043EA0603704794EA0C0F0CEA1355BF
:1006900018BF95EA0C0F0CD050EA410618BF52EA79
:1006A0004306D1D181EA030101F000414FF000007F
:1006B00070BD50EA410606BF1046194652EA43068D
:1006C00019D094EA0C0F02D150EA013613D195EA01
:1006D0000C0F05D152EA03361CBF104619460AD149
:1006E00081EA030101F0004141F0FE4141F4700153
:1006F0004FF0000070BD41F0FE4141F4780170BD43
:1007000070B54FF0FF0C4CF4E06C1CEA11541DBFA7
:100710001CEA135594EA0C0F95EA0C0F00F0A7F8A9
:10072000A4EB050481EA030E52EA03354FEA0131D6
:1007300000F088804FEA03334FF0805545EA1313E9
:1007400043EA12634FEA022245EA111545EA1065B1
:100750004FEA00260EF000419D4208BF964244F148
:10076000FD0404F5407402D25B084FEA3202B61A67
:1007700065EB03055B084FEA32024FF480104FF43B
:10078000002CB6EB020E75EB030E22BFB61A7546AF
:1007900040EA0C005B084FEA3202B6EB020E75EB42
:1007A000030E22BFB61A754640EA5C005B084FEAAA
:1007B0003202B6EB020E75EB030E22BFB61A754677
:1007C00040EA9C005B084FEA3202B6EB020E75EB82
:1007D000030E22BFB61A754640EADC0055EA060E43
:1007E00018D04FEA051545EA16754FEA06164FEA86
:1007F000C30343EA52734FEAC2025FEA1C1CC0D132
:1008000011F4801F0BD141EA00014FF000004FF0BE
:10081000004CB6E711F4801F04BF01430020B4F17F
:10082000FD0C88BFBCF5E06F3FF6AFAEB5EB030C37
:1008300004BFB6EB020C5FEA500C50F1000041EB34
:10084000045170BD0EF0004E4EEA113114EB5C0401
:10085000C2BFD4EB0C0541EA045170BD41F48011D4
:100860004FF0000E013C90E645EA060E8DE60CEADC
:10087000135594EA0C0F08BF95EA0C0F3FF43BAFF9
:1008800094EA0C0F0AD150EA01347FF434AF95EAB0
:100890000C0F7FF425AF104619462CE795EA0C0F94
:1008A00006D152EA03353FF4FDAE1046194622E761
:1008B00050EA410618BF52EA43067FF4C5AE50EA3B
:1008C00041047FF40DAF52EA43057FF4EBAE12E72B
:1008D0004FF0FF3C06E000BF4FF0010C02E000BF0C
:1008E0004FF0010C4DF804CD4FEA410C7FEA6C5CEF
:1008F0004FEA430C18BF7FEA6C5C1BD001B050EA92
:10090000410C0CBF52EA430C91EA030F02BF90EA7C
:10091000020F0020704710F1000F91EA030F58BF3B
:10092000994208BF90422CBFD8176FEAE37040F09D
:10093000010070474FEA410C7FEA6C5C02D150EA3B
:10094000013C07D14FEA430C7FEA6C5CD6D152EAF6
:10095000033CD3D05DF8040B704700BF84461046BB
:1009600062468C461946634600E000BF01B5FFF7BA
:10097000B7FF002848BF10F1000F01BD4DF808ED8A
:10098000FFF7F4FF0CBF012000205DF808FB00BF5B
:100990004DF808EDFFF7EAFF34BF012000205DF8B5
:1009A00008FB00BF4DF808EDFFF7E0FF94BF012002
:1009B00000205DF808FB00BF4DF808EDFFF7CEFF03
:1009C00094BF012000205DF808FB00BF4DF808ED42
:1009D000FFF7C4FF34BF012000205DF808FB00BF13
:1009E0004FEA410212F5001215D211D56FF4787357
:1009F000B3EB625212D94FEAC12343F0004343EAFA
:100A0000505311F0004F23FA02F018BF40427047D4
:100A10004FF00000704750EA013005D111F000405E
:100A200008BF6FF0004070474FF00000704700BFF4
:100A30004FEA4102B2F1E04324BFB3F5001CDCF100
:100A4000FE5C0DD901F0004C4FEAC0024CEA507038
:100A5000B2F1004F40EB830008BF20F00100704767
:100A600011F0804F21D113F13872BCBF01F000406A
:100A7000704741F480114FEA5252C2F11802C2F19C
:100A8000200C10FA0CF320FA02F018BF40F001001D
:100A90004FEAC1234FEAD32303FA0CFC40EA0C00CF
:100AA00023FA02F34FEA4303CCE77FEA625307D10C
:100AB00050EA01331EBF4FF0FE4040F44000704743
:100AC00001F0004040F0FE4040F40000704700BFDD
:100AD00038B50022002304460D46FFF759FF28B918
:100AE00020462946BDE8384000F00AB8204605F106
:100AF000004100F005F8404261EB410138BD00BF04
:100B0000D0B500220B4B06460F46FFF7CFFC00F096
:100B1000D9FF0446FBF7D6FC0022074BFFF7C6FCC3
:100B200002460B4630463946FBF78EFB00F0CAFF03
:100B30002146D0BD0000F03D0000F04103685A009E
:100B40004CBF43F0004323F000431844704700BFFC
:100B50002DE9F04739B301F1FF38064617464FF04B
:100B60000009454619EB050148BF0131491006EB64
:100B7000C10ACC005046FFF7E1FF08348845034620
:100B800006EB040009D0BB4209D8FFF7D7FF0138B4
:100B900001F10109B842E5D307E0BB4205D9894517
:100BA00001F1FF35DED14FF0000A5046BDE8F08775
:100BB000012806D0022806D00028044818BF0020CB
:100BC0007047034870470348704700BFCD120100CB
:100BD000D1120100D5120100234B30B5044683B079
:100BE0008D1E43B301A9284600E000BFF0B1019972
:100BF0002A46FFF7ADFF0146C0B1FFF79FFF4B68E4
:100C0000A064012B2CD0002B01F1040024DBFFF7A2
:100C100095FF0023C4E913030368002B11DBFFF7E2
:100C20008DFF03460020236103B030BD002309205F
:100C3000236103B030BD0D490D48091AC910019157
:100C4000D6E7C3F30360FFF7B3FF0028206114BFAA
:100C50000020092003B030BD0123C4E91303DBE702
:100C6000002305202361DFE7000000004415030096
:100C7000941303000368DA0710B5044606D49B07F3
:100C800000F1480009D500F093FC2368590709D505
:100C90001A070ED5DB0613D510BD00F081FC2368C2
:100CA0005907F5D404F1D00000F08AFC23681A0734
:100CB000F0D404F5A87000F08BFC2368DB06EBD4BD
:100CC00004F5E870BDE8104000F0C6BC03460068BB
:100CD00000B11844704700BF09207047704700BF3B
:100CE00070B504460E46316C2046FFF775FF054689
:100CF00088B9306C324623692146606101209847EB
:100D00000828F0D0072806D12846316CFFF7E6FF07
:100D1000301D00F039FC20F050F800BF2DE9F047FD
:100D200001F1040CADF5727D0646C7680DF10C0E9D
:100D3000144602ADD6F81880BCE80F00AEE80F00EC
:100D4000BCE80F00AEE80F00BCE80F00AEE80F00F3
:100D50009CE80F004FF0000C8EE80F00C5F800C0B3
:100D600022E02B6C4FF4F07229467AA8736120F0D0
:100D700047F833697AAA31465046984781468898A1
:100D80002146CDF804803346009532466864012040
:100D9000B8470446F0B94FF4F0727AA9284620F01B
:100DA0002FF8B9F1080F1CD10934296C3046FFF730
:100DB00013FF81465FFA84FA0028D2D0A86B4AF06C
:100DC0001001CDF804803346009532466864012056
:100DD000B84708B14FF0090948460DF5727DBDE8E6
:100DE000F087B9F1070FF5D12046296CFFF776FFA0
:100DF00003A800F0C9FB00BF406C7047F0B5CB6B97
:100E0000F9B00E1D0F460B6401AC05460FCE0FC4A2
:100E10000FCE0FC40FCE0FC496E80F004FF0FF3671
:100E200084E80F00009606E02B696A462946984739
:100E30000828044608D110992846FFF7CDFE00285F
:100E4000F2D0092079B0F0BD6846FFF713FF062CF9
:100E5000F7D139462846FFF743FF00BF30B41546A7
:100E6000DC6BC1600022856119461C6430BC55E70B
:100E700070B54369C6680B64AEB903690A46044697
:100E80000D46014602209847072805D008280FD1B3
:100E900029462046FFF724FF3046296CFFF71EFF46
:100EA000281D00F071FB0122FFF738FF1FF085FFBE
:100EB0001FF083FFC2682AB1002210B4CC6B0C640F
:100EC00010BC2BE79AE700BF704700BF836801465C
:100ED0000BB1012018477047012915D00CD88BB9E8
:100EE0000F2A94BF0021012161B900EB820208465C
:100EF0005368009A136070470339012994BF012099
:100F000002207047022070470846704710B584B031
:100F100000230A4603AC19460094FFF7DDFF03984F
:100F200004B010BD012915D00CD88BB90F2A94BF7D
:100F30000021012161B9009B00EB820208461B6879
:100F4000536070470339012994BF01200220704784
:100F5000022070470846704710B584B0002303ACE8
:100F600003920A4619460094FFF7DCFF04B010BD57
:100F7000F0B5D36BADF50F7D151D0746136417ACA7
:100F80000E460FCD0FC40FCD0FC40FCD0FC495E883
:100F90000F004FF0FF3584E80F00169510E0FFF7C3
:100FA000DBFF314616A8B847034616AA6946082053
:100FB00083B9049B9847052804460CD009280AD019
:100FC00026996846FFF708FE03466A460C2116A8D4
:100FD000002BE4D0092416A8FFF74CFE20460DF59F
:100FE0000F7DF0BD2DE9F04F1D46CB6C89B0164644
:100FF00053F8042B0C4600F003080693002D7AD01A
:10100000110C022712045FFA81FC8DF81D10059265
:1010100003EB8C038DF81C70B8F1020F226D08BF32
:10102000A36B12F0010208D0304605A900F0AEFB18
:1010300098BB082009B0BDE8F08FD3F800A0BAF142
:10104000000FF1D080F008000192C0F3C0020292BC
:10105000022D4CD0B3F800A003F1040B5F88A36C01
:1010600027F001097F000F2199443046FFF74EFF1A
:1010700007F002070AF00103814543EA070310D88D
:101080002AF0010AD14481450BD9012B00F0BB8025
:10109000022B00F08580002B48D0092009B0BDE864
:1010A000F08F012B3CD0022B2BD0002BF5D10BF174
:1010B0000403D3F800A0BAF1000FC9D105A9304646
:1010C00000F064FB0028E8D1019B002BB1D00F2178
:1010D0003046FFF71BFF0E2102463046FFF73CFF6C
:1010E0003046794A0F21FFF737FF0720D6E75F68C0
:1010F00003F1080BB3E7120203210592ADF81C10AF
:101100008AE7DBF8003023F00047B8F1000F23D165
:10111000002B01DA0BF1040B01370BEB8703C8E757
:10112000B8F1000F23D10BF10803C2E7B8F1000FAB
:10113000BDD05F465846FFF701FD054604372046FF
:10114000A7631FF0FDFB0028A7D030462A460F21D9
:10115000FFF702FF0720A1E7D4F820900D213046C9
:10116000FFF7D4FE81457BD0DBF80030D0E7276A5B
:101170000D213046FFF7CAFE8742D4D1A36A9B45B2
:10118000D1D15846FFF7DAFC0F2102463046FFF76F
:10119000E3FE304622460021FFF7DEFE07207DE712
:1011A000DBF8003023F00047B8F1000FD4D1029AE9
:1011B0000AB9002FACD104F15803CDF80C800BF123
:1011C000040AA8464FF000091D460AE00495FFF7FF
:1011D0007DFD04AB01460022204611F015F90028E0
:1011E00050D1B945504609F101090AF1040AEDD17F
:1011F00030460D21FFF78AFE049B0246062022623C
:10120000C4E9093B4AE7B8F1000FB0D1DBE900239C
:10121000991C4FEAD2723FF440AF04F158010133F8
:10122000049135D00BF10400FFF750FD04AB0146EB
:10123000204611F0E9F800283FF475AF81460D21F2
:1012400030465F46FFF762FEB9F1020F206225D1FA
:101250002346049A43F82C2F63620620A7621DE7F9
:10126000A36A9B4580D1042100230BEB0102C4E952
:101270000A73C4E90C12DBF800209A4211DB012347
:10128000019349E74546DBF80030DDF80C803FE785
:101290005F4630460D21FFF739FE2062049B6362F2
:1012A000DBE73B46581C0BEB8000FFF747FC0F21A8
:1012B00002463046FFF750FE0023304622461946CC
:1012C000FFF74AFE0720E9E6C5240200002389E66D
:1012D000012387E6022385E62DE9F0430646C3B0E5
:1012E00015461C46042900F2BF80DFE801F0A15634
:1012F000BD290300002C40F0B780102A00F2B48012
:101300000368DF0600F1B48020AF0124384600F006
:10131000ADF9B06B002304FA03F10246294204D070
:1013200052F8041B104647F823100133042BF2D166
:10133000B063384600F090F9002043B0BDE8F08378
:10134000032C40F091801FFA82F8140C08EB124530
:10135000102D00F2898003681A0700F1D78020AFB2
:10136000384600F057F9B56B07EBC401B8F1000F30
:101370000BD00B4601EBC8014FEAC808E81A1A580F
:1013800043F8042B8B42FAD145443846B56300F04C
:101390001FF9002043B0BDE8F08304F0FB034FEADF
:1013A000124895B2012B5FD1012C08EB050958D0EA
:1013B000B9F1200F58D8B8F10F0F7ED9052CA946E6
:1013C00000F0B380002D4FD1B36B6DB320AF4FF061
:1013D000000907EBC80703EBC505043F53F8041BDE
:1013E0009D4247F8041FF9D1B9F1000F0FD06F46A5
:1013F000414603EBC905102938BF102107EBC10195
:10140000843953F8040B9D4241F8040FF9D1012CA3
:1014100000F08480B8F10F0FB56373D9B9F1000FF4
:1014200002D0684600F0CCF8002043B0BDE8F0835D
:10143000D4B9234697B2846B06F1040C012000FA5C
:1014400003F12246394204D052F8041B14464CF8EA
:1014500023100133102BF2D115F40050E4D1B46302
:1014600003E0B9F1100F0BD9022043B0BDE8F083BF
:1014700023F0100300F5E870336000F0F7F843E75D
:10148000B8F10F0FF0D80368D8075FD506F1480010
:1014900023F00303336000F087F8012C56D0B8F135
:1014A0000F0F91D820AF384600F086F8B36B002DAF
:1014B0008DD1384600F07CF8B6E7B9F1100F4FD95E
:1014C000052CD1D13368A9F11009DD0709D523F026
:1014D0000103304643F0020340F8483B00F06CF84B
:1014E0003368590727D420A800F066F86F46C8F182
:1014F0001005384600F068F8002DB36B7FF778AF21
:1015000020AF66E720A800F053F887E723F0080330
:1015100000F5A870336000F07DF820E720AF0435B7
:101520003846B56300F03CF87EE7002D3FF44CAF41
:1015300033685A07DAD523F00403304640F8D03B2D
:1015400000F042F8B8F10F0FD0D8CCE720AF384602
:1015500000F02AF8B36B002D7FF439AF1D46DEE7AB
:101560003368D90799D5052C06F1480090D123F0AE
:10157000010320AF43F00203336000F01DF838464A
:1015800000F01AF892E700BF00F1340191E838004A
:101590009C46A6464CF8045D90E8FF0FE54600BD6A
:1015A00090EC210B704700BF80EC210B704700BF0F
:1015B00090EC200B704700BF80EC200B704700BF01
:1015C000D0EC200B704700BFC0EC200B704700BF71
:1015D000F0EC0201F0EC0211F0EC0221F0EC02312F
:1015E000F0EC0241F0EC0251F0EC0261F0EC02711F
:1015F000F0EC0281F0EC0291F0EC02A1F0EC02B10F
:10160000F0EC02C1F0EC02D1F0EC02E1F0EC02F1FE
:10161000704700BFE0EC0201E0EC0211E0EC0221B7
:10162000E0EC0231E0EC0241E0EC0251E0EC02615E
:10163000E0EC0271E0EC0281E0EC0291E0EC02A14E
:10164000E0EC02B1E0EC02C1E0EC02D1E0EC02E13E
:10165000E0EC02F1704700BFB0FC0181B0FC0191E9
:10166000B0FC01A1B0FC01B1704700BFA0FC01813A
:10167000A0FC0191A0FC01A1A0FC01B1704700BF3A
:10168000EC4600B52DE900502DE9FF1F4FF0000397
:101690002DE90C0001A9FFF7B1FBDDF840E012B025
:1016A000704700BFEC4600B52DE900502DE9FF1F43
:1016B0004FF000032DE90C0001A9FFF7D9FBDDF87D
:1016C00040E012B0704700BFEC4600B52DE9005075
:1016D0002DE9FF1F4FF000032DE90C0001A9FFF7D2
:1016E000E9FBDDF840E012B0704700BFEC4600B502
:1016F0002DE900502DE9FF1F4FF000032DE90C00EC
:1017000001ABFFF7ABFBDDF840E012B0704700BF64
:10171000EC4600B52DE900502DE9FF1F4FF0000306
:101720002DE90C0001AAFFF723FCDDF840E012B020
:10173000704700BF027A03467AB9427AA2B1416883
:10174000013A30B44272032408680D1D1C72020273
:101750005D60000E1A6030BC70470068013A1A7272
:101760000202000E1A607047B020704700B585B0C5
:1017700000230C2203A900911946FFF7ADFB039843
:1017800005B05DF804FB00BFF0E700BF2DE9F043B2
:101790004FF0000885B006460D462846FFF7CAFF01
:1017A000B028044600F0BD80070620D500F0F00305
:1017B000802B4ED0902B37D0A02B61D0B02B76D081
:1017C000C02B00F08D8000F0F803D02B0BD100F07F
:1017D00007020121052330460A4442F40022FFF7A4
:1017E0007BFD0028D9D0092005B0BDE8F083870033
:1017F0000DF10C0900230D22FFB230461946CDF839
:101800000090FFF769FB0437039B60064FF00D0261
:1018100030464CBFDF1BFF180023CDF80090039724
:101820001946FFF77FFBB8E700F00D030D2BDAD068
:1018300003AF002300F00F02304619460097FFF770
:101840004BFB00230D22304619460097FFF76AFB39
:10185000A3E724022846FFF76DFF2043B0F5004FB1
:10186000C1D0040100233046A2B21946FFF734FD6F
:101870000028B8D114F4004F18BF4FF001088CE7CE
:10188000C3434FF47F620107304603F0070342FA77
:1018900003F24FF0000302F47F62194648BF42F49E
:1018A0008042FFF719FD00283FF477AF9BE7B1288E
:1018B0003CD0B22800F0B080B3284AD000F0FC033E
:1018C000B42B90D000F00702012330461A44194689
:1018D00042F40022FFF700FD00283FF45EAF82E7EC
:1018E000C6284FD0C72861D000F0F803C02B70D0B5
:1018F000C8287CD0C9287FF476AF2846FFF71AFFA6
:101900000523024601213046140302F00F0204F4BD
:1019100070240A442243FFF7DFFC00283FF43DAF68
:1019200061E7B8F1000F1CD000205DE72846FFF703
:1019300001FF024600283FF456AF10F0F0037FF499
:1019400052AF19463046FFF7C7FC00283FF425AFD9
:1019500049E72846FFF7EEFE0123024630461946C6
:10196000D2E703AC43460E22414630460094FFF7CF
:10197000B3FA304643460F2241460094FFF7D2FAAD
:10198000404631E72846FFF7D5FE0246032330469E
:10199000140302F00F02194604F4702401322243AA
:1019A000FFF79AFC00283FF4F8AE1CE72846FFF743
:1019B000C1FE024600283FF416AF10F0F0037FF49A
:1019C00012AF04213046FFF787FC00283FF4E5AE54
:1019D00009E700F00F02032330460132194642F4B2
:1019E0002022FFF779FC00283FF4D7AEFBE628461B
:1019F000FFF7A0FE02460121052302F0F00402F0E9
:101A00000F02304610340A4442EA0432FFF764FC05
:101A100000283FF4C2AEE6E600230DF10C090D22CA
:101A200030461946CDF80090FFF756FA2846FFF7E2
:101A300081FE02064FF002040BD500F07F03039AEB
:101A40002846A340073413440393FFF773FE0306AD
:101A5000F3D4039A00F07F000023CDF8009000FA41
:101A600004F402F5017019460D2204443046039433
:101A7000FFF758FA91E600BFC26C0B4630B5184626
:101A800085B05368032502F1080401A91B028DF8F3
:101A90000C50D279CDE901348DF80D20FFF776FE98
:101AA00005B030BD08B5FFF76FFE806C08BD00BF04
:101AB00008B5FFF769FEC06CC379023300EB830001
:101AC00008BD00BF4A0011D212F5001211D20DD587
