:10C00000D8A20220058B01009D220200358B010081
:10C01000358B0100358B0100358B0100358B01001C
:10C020000000000000000000000000004D89010039
:10C03000358B010000000000058901008522020007
:10C04000C58A0100C58A0100C58A0100C58A0100B0
:10C05000C58A0100C58A0100C58A0100C58A0100A0
:10C06000C58A0100C58A0100C58A0100C58A010090
:10C07000C58A0100C58A0100C58A0100C58A010080
:10C08000C58A0100C58A0100C58A0100C58A010070
:10C09000C58A0100C58A0100C58A0100C58A010060
:10C0A000C58A0100C58A0100C58A0100C58A010050
:10C0B000C58A0100C58A0100C58A0100C58A010040
:10C0C000C58A0100C58A0100C58A0100C58A010030
:10C0D000C58A0100C58A0100C58A0100C58A010020
:10C0E000C58A0100C58A0100C58A0100C58A010010
:10C0F000C58A0100C58A0100C58A0100C58A010000
:10C10000C58A0100C58A0100C58A0100C58A0100EF
:10C11000C58A0100C58A0100C58A0100C58A0100DF
:10C12000C58A0100C58A0100C58A0100C58A0100CF
:10C13000C58A0100C58A0100C58A0100C58A0100BF
:10C14000C58A01000000000000000000000000009F
:10C1500000000000000000000000000000000000DF
:10C1600000000000000000000000000000000000CF
:10C1700000000000000000000000000000000000BF
:10C1800000000000000000000000000000000000AF
:10C19000000000000000000000000000000000009F
:10C1A000000000000000000000000000000000008F
:10C1B000000000000000000000000000000000007F
:10C1C000000000000000000000000000000000006F
:10C1D000000000000000000000000000000000005F
:10C1E000000000000000000000000000000000004F
:10C1F000000000000000000000000000000000003F
:10C20000DEE61E284CBBCE8F025B00003C00000027
:10C21000081402000100000000C0000000C000007F
:10C22000FFFF02910000000000000000000000007D
:0CC2300000000000000000000000000002
:04C23C00FFFFFFFF02
:10C2400080B483B000AF78607B6819221A607B6885
:10C250000A225A6000BF0C37BD4680BC7047B0B59B
:10C2600088B000AFF860B9607A60FB681B687A68D4
:10C2700002FB03F36C4AA2FB03239A09BB681A6012
:10C28000FB685B687A6802FB03F3674AA2FB03233F
:10C290009A09BB689A60BB681B685B00184614F07B
:10C2A00021FF03461A46BB685A60BB685B68002BD7
:10C2B00009D15E4B1B68DB68272201215C4814F022
:10C2C00003FF0023A5E0BB681B68184607F09EFD2E
:10C2D0000346184607F064F902460B4650A1D1E91F
:10C2E000000107F0DFFA02460B461046194607F038
:10C2F00087FC0346BB610023FB6151E0B86907F08E
:10C300004FF904460D46F86907F038F94FF000027E
:10C31000484B06F0E7FF02460B462046294607F049
:10C3200097F902460B461046194612F089F84FF06D
:10C330000002404B07F08CF902460B464FF000001C
:10C340003C4906F0CDFF02460B461046194607F061
:10C3500057FC03467B614FF08B41786907F0AEFDD7
:10C360000346184607F01CF94FF00002314B06F067
:10C37000B9FF02460B461046194609F011FE024667
:10C380000B46B9684868F9694900441810461946CF
:10C3900007F00EFC03461BB22380FB690133FB61EF
:10C3A000BB681A68FB699A42A8D8BB6800221A6168
:10C3B000BB681B685B00184614F094FE03461A46DF
:10C3C000BB68DA60BB68DB68002B09D1174B1B68C0
:10C3D000DB6820220121184814F076FE002318E0C3
:10C3E000BB681B685B00184614F07CFE03461A46C7
:10C3F000BB685A61BB685B69002B09D10B4B1B689A
:10C40000DB68212201210D4814F05EFE002300E0CC
:10C41000012318462037BD46B0BD00BFAFF30080F2
:10C42000182D4454FB211940D34D621064000220A2
:10C43000985002000000E03FC0500200E4500200AB
:10C4400080B582B000AF78607B685B68184614F0F6
:10C4500051FE7B68DB68184614F04CFE7B685B6914
:10C46000184614F047FE00BF0837BD4680BD00BF28
:10C4700080B483B000AF78607B6820221A607B684C
:10C48000064A9A607B68064A5A607B680722DA602F
:10C4900000BF0C37BD4680BC704700BF0000FA42A9
:10C4A0000060EA4580B582B000AF7860786807F038
:10C4B00077F84FF000020E4B07F0F4F902460B46F6
:10C4C0001046194609F054FE07A3D3E9002307F0EC
:10C4D000BFF802460B461046194607F091FB03468B
:10C4E00018460837BD4680BD00000000009C914002
:10C4F00000E0854090B58BB000AFF860B9607A601D
:10C500003B604FF00001B86807F08AFE0346002B3D
:10C5100005D1274B274A2521274814F0B5FBB968D8
:10C52000786807F087FE0346002B05D1234B214A8C
:10C530002621214814F0A8FBB868FFF7B3FF386242
:10C540007868FFF7AFFFF861396AF86907F0ACFB6C
:10C550000346BB61F86807F05DFC03461946B869FD
:10C5600007F060FD03467B6100237B6217E07B6A76
:10C570000133184607F04EFC03467969184607F068
:10C580009DFC034618467B6A9B003A68D418396ABA
:10C5900007F08CFB034623607B6A01337B627A6A77
:10C5A000FB689A42E3DB00BF00BF2C37BD4690BD5D
:10C5B000085102001C520200285102006C51020076
:10C5C00080B584B000AFF860B9607A604FF08B41FD
:10C5D000F86807F073FC0346184606F0E1FF4FF0D9
:10C5E0000002214B06F07EFE02460B46104619461D
:10C5F00009F0D6FC02460B461046194607F0D8FA59
:10C6000003461AB2BB681A80F86806F0C9FF0246F2
:10C610000B464FF00000154906F062FE02460B463D
:10C62000104619464FF00002114B07F011F8024670
:10C630000B46104619464FF000020B4B06F052FE17
:10C6400002460B461046194609F0AAFC02460B4664
:10C650001046194607F0ACFA03461AB27B681A80F6
:10C6600000BF1037BD4680BD0000E03F0000F03F36
:10C670000000B040B0B59EB000AFF860B9607A601D
:10C680003B60FB681A68BB681A60FB681B68013373
:10C690007B6502233B657B6D5B00184614F022FD31
:10C6A00003461A46BB68DA607B6D5B00184614F0DF
:10C6B00019FD03461A46BB681A617B6D5B0018467C
:10C6C00014F010FD03461A46BB685A617B6DDB000F
:10C6D000184614F007FD03461A46BB681A627B6DC4
:10C6E0009B00184614F0FEFC0346FB647B6D5B0068
:10C6F000184614F0F7FC0346BB647B6D5B001846DC
:10C7000014F0F0FC03467B64BB68DB68002B10D0A0
:10C71000BB681B69002B0CD0BB685B69002B08D081
:10C72000FB6C002B05D0BB6C002B02D07B6C002B6C
:10C7300012D1F86C14F0DEFCB86C14F0DBFC786CF1
:10C7400014F0D8FC9D4B1B68DB68232201219C4818
:10C7500014F0BAFC0023DCE1FB689968FB685A68B6
:10C76000FB6C786DFFF7C6FE786806F007FF4FF0A8
:10C770000002944B06F06CFF02460B4614461D4621
:10C78000386807F047FB03464FF07E51184607F024
:10C790008BFA0346184606F003FF02460B46204676
:10C7A000294607F07FF802460B461046194607F067
:10C7B00027FA03463B64FB689B68396C184607F010
:10C7C00031FC0346184606F0EBFE4FF000027E4BAC
:10C7D00006F088FD02460B461046194607F0E8F9B8
:10C7E0000246BB685A60BB6800229A60BB685B68FF
:10C7F0007B6700233B670023FB660023BB66A2E048
:10C800007B6F7B6602E07B6E01337B66786E07F0A0
:10C8100001FB0346396C184607F050FB03461846E7
:10C82000FFF740FEBB6E9B00FA6C13441B68194671
:10C8300007F0ECFC0346002BE5D17A6E7B6FD31A30
:10C840003B62BB6E5B00BA6C13447A6F12B21A8003
:10C85000BB6E5B007A6C13443A6A12B21A803B6A70
:10C86000002B38D1BB68DA68BB6E5B001344002232
:10C870001A80BB681A69BB6E5B00134400221A80E1
:10C88000BB685A69BB6E5B00134404221A80FB6EBE
:10C89000002B53D10123FB6600233B6613E0BB68EA
:10C8A0001A693B6E5B001344B3F900309BB204334A
:10C8B00099B2BB681A693B6E5B0013440AB21A80D6
:10C8C0003B6E01333B663A6EBB6E9A42E7DB3B6FD1
:10C8D00004333B6732E07A6F3B6D92FBF3F23B6DC2
:10C8E00002FB03F3FB617A6FFB69D31A3A6A1344C4
:10C8F000BB61BB69013B002B00DA03339B100133A2
:10C900009B007B61BB68DA68BB6E5B001344FA690D
:10C9100012B21A80BB681A69BB6E5B0013443A6F8F
:10C9200012B21A80BB685A69BB6E5B0013447A6905
:10C9300012B21A803A6F7B6913443B677B6E7B6748
:10C94000BB6E0133BB66BA6E7B6D9A42FFF658AF81
:10C950003B6F0221184614F0B5F903461A46BB682E
:10C960009A613B6F0221184614F0ACF903461A464F
:10C97000BB68DA61BB689B69002B03D0BB68DB69CD
:10C98000002B12D1F86C14F0B5FBB86C14F0B2FBAC
:10C99000786C14F0AFFB094B1B68DB68282201217F
:10C9A0000A4814F091FB0023B3E0FB689B6818462B
:10C9B000FFF778FDF8630023BB668CE0640002207B
:10C9C0009C5102000000E03F0000F83FC05102000F
:10C9D000BB6E5B00BA6C1344B3F90030FB65BB6EF1
:10C9E0005B007A6C1344B3F90030BB63BB68DA6850
:10C9F000BB6E5B001344B3F900301A46FB6D9B1A03
:10CA00007B63BB681A69BB6E5B001344B3F90030EB
:10CA10003B63BB6E002B08D0BB6E03F18043013B30
:10CA20009B00FA6C13441B6800E0FB6BFB62002365
:10CA3000BB6541E0BB6E9B00FA6C13441C68F86D4B
:10CA400007F0E8F90346396C184607F037FA034651
:10CA50001846FFF727FD03461946204607F024F93C
:10CA600003461C46BB6E9B00FA6C13441B68F96AB4
:10CA7000184607F019F903461946204607F0D2FA7E
:10CA80000346BB623A6B7B6B1344BA6D13447B6203
:10CA9000BB689A697B6A5B00D118BB68DA697B6AFC
:10CAA0005B0013441A46B86AFFF78AFDBB6D013379
:10CAB000BB65FB6D0133FB65BA6DBB6B9A42B9DB9D
:10CAC000BB689B68FA6D9A4202DDBB68FA6D9A609A
:10CAD000BB6E0133BB66BA6E7B6D9A42FFF678AFD0
:10CAE000F86C14F007FBB86C14F004FB786C14F0CD
:10CAF00001FBBB689B683A689A4209DC074B1B68DC
:10CB0000DB682D220121064814F0DEFA002300E044
:10CB1000012318467837BD46B0BD00BF640002202F
:10CB2000EC51020080B582B000AF78607B68DB68B2
:10CB3000184614F0DFFA7B681B69184614F0DAFA1D
:10CB40007B685B69184614F0D5FA7B689B691846C8
:10CB500014F0D0FA7B68DB69184614F0CBFA7B68D6
:10CB60001B6A184614F0C6FA00BF0837BD4680BDE0
:10CB7000B0B58AB000AFF860B9607A603B6000235E
:10CB80003B62FB6803F00103002B01D00023CFE0E0
:10CB9000FB685B10FB6007F110030022B968F868BE
:10CBA00001F07EFEFA6813465B001344DA0F13446B
:10CBB0005B109A003B6913440C337B613B68002B8C
:10CBC00002D100233B6209E03B681B687A699A4204
:10CBD00001D87B683B623B687A691A603B6A002B2C
:10CBE00001D10023A4E03B6A03F10C023B6A1A6006
:10CBF0003B6A1A683B691A443B6A5A603B6A5A6846
:10CC0000FB689B001A443B6A9A603B6A1A6807F10A
:10CC10001003B968F86801F043FE00237B627DE0F1
:10CC20007B6A0133184606F0A9FC04460D46F868F5
:10CC300006F0A4FC02460B462046294606F032FECA
:10CC400002460B46104619464FF000023E4B06F0D6
:10CC500049FB02460B461046194637A3D3E9002389
:10CC600006F0F6FC02460B46C7E90623BB68002B1C
:10CC700005D0BB69BB61FB6983F00043FB61D7E969
:10CC8000060111F0DDFB2EA3D3E9002306F0E0FC42
:10CC900002460B46104619464FF000022A4B06F09A
:10CCA00021FB02460B461046194609F079F9024667
:10CCB0000B46396A8868796A890044181046194613
:10CCC00006F076FF03461BB22380D7E9060111F078
:10CCD00031FD1BA3D3E9002306F0BAFC02460B4644
:10CCE000104619464FF00002174B06F0FBFA0246B9
:10CCF0000B461046194609F053F902460B46396AAD
:10CD00008868796A890044181046194606F050FF71
:10CD100003461BB263807B6A01337B62FB68DA0FD8
:10CD200013445B101A467B6A9342FFF679AF3B6A65
:10CD300018462837BD46B0BD182D4454FB2109C004
:10CD400000000000C0FFDF400000E03F80B58CB075
:10CD500000AFF860B9607A60FB681B685B68002B05
:10CD600040F05581FB681B681B68BB62FB68186854
:10CD7000FB685B681A46B96801F090FEFB685B6867
:10CD8000B3F900303B82FB685B68B3F902307B8209
:10CD9000B7F910301A4613469B039B1A03F58043DC
:10CDA000DB131BB23B82B7F912301A4613469B03C2
:10CDB0009B1A03F58043DB131BB27B82B7F910305B
:10CDC0009AB2B7F912309BB213449BB21AB27B6885
:10CDD0001A80B7F910309AB2B7F912309BB2D31A51
:10CDE00099B2BB6A9B007A6813440AB21A807B68C6
:10CDF00000225A80BB6A9B007A6813447A68B2F9B1
:10CE000002205A800123FB62F7E0FB685A68FB6A44
:10CE10009B001A4407F1200310681860FB685A68E9
:10CE2000B96AFB6ACB1A9B001344B3F90030BB8488
:10CE3000FB685A68B96AFB6ACB1A9B001344B3F9C2
:10CE400002309BB25B429BB21BB2FB84B7F920302D
:10CE50001A4613469B039B1A03F58043DB131BB250
:10CE60003B84B7F922301A4613469B039B1A03F5FD
:10CE70008043DB131BB27B84B7F924301A46134678
:10CE80009B039B1A03F58043DB131BB2BB84B7F9EA
:10CE900026301A4613469B039B1A03F58043DB1387
:10CEA0001BB2FB84B7F920309AB2B7F924309BB299
:10CEB00013449BB21BB2BB83B7F922309AB2B7F9C5
:10CEC00026309BB213449BB21BB2FB83B7F92030D0
:10CED0009AB2B7F924309BB2D31A9BB21BB23B83F0
:10CEE000B7F922309AB2B7F926309BB2D31A9BB267
:10CEF0001BB27B83B7F918301946FB689A68FB6A46
:10CF000003F18043013B9B001344B3F9003003FB62
:10CF100001F2B7F91A301846FB689968FB6A03F109
:10CF20008043013B9B000B44B3F9023003FB00F349
:10CF3000D31A03F58043DB131BB2BB82B7F9183059
:10CF40001946FB689A68FB6A03F18043013B9B002A
:10CF50001344B3F9023003FB01F2B7F91A30184653
:10CF6000FB689968FB6A03F18043013B9B000B441B
:10CF7000B3F9003003FB00F3134403F58043DB13E4
:10CF80001BB2FB82B7F91C301A46B7F914301344B0
:10CF90005910FB6A9B007A6813440AB21A80B7F9E9
:10CFA0001E301A46B7F9163013445910FB6A9B001D
:10CFB0007A6813440AB25A80B7F91C301A46B7F996
:10CFC0001430D31A5910BA6AFB6AD31A9B007A68D4
:10CFD00013440AB21A80B7F916301A46B7F91E3050
:10CFE000D31A5910BA6AFB6AD31A9B007A681344A1
:10CFF0000AB25A80FB6A0133FB62BB6ADA0F134440
:10D000005B101A46FB6A93427FF7FFAE00E000BF59
:10D010003037BD4680BD80B58CB000AFF860B960D8
:10D020007A60FB681B685B68002B00F06B81FB6813
:10D030001B681B68BB62BB68B3F900309AB2BB6A5D
:10D040009B00B9680B44B3F900309BB213449AB209
:10D05000FB685B6812B21A80BB68B3F900309AB201
:10D06000BB6A9B00B9680B44B3F900309BB2D31A7A
:10D070009AB2FB685B6812B25A80FB685B68B3F9CE
:10D0800000301A4613469B039B1A03F58043DA13BC
:10D09000FB685B6812B21A80FB685B68B3F9023008
:10D0A0001A4613469B039B1A03F58043DA13FB6869
:10D0B0005B6812B25A800123FB6211E1FB6A9B009C
:10D0C000BA681A4407F1240310681860BA6AFB6A48
:10D0D000D31A9B00BA681344B3F900303B84BA6A90
:10D0E000FB6AD31A9B00BA681344B3F902309BB2AF
:10D0F0005B429BB21BB27B84B7F924301A461346BD
:10D100009B039B1A03F58043DB131BB2BB84B7F967
:10D1100026301A4613469B039B1A03F58043DB1304
:10D120001BB2FB84B7F920301A4613469B039B1AA7
:10D1300003F58043DB131BB23B84B7F922301A4658
:10D1400013469B039B1A03F58043DB131BB27B84BE
:10D15000B7F924309AB2B7F920309BB213449BB28E
:10D160001BB2BB83B7F926309AB2B7F922309BB213
:10D1700013449BB21BB2FB83B7F924309AB2B7F9C0
:10D1800020309BB2D31A9BB21BB2BB82B7F92630B8
:10D190009AB2B7F922309BB2D31A9BB21BB2FB8270
:10D1A000B7F914301946FB689A68FB6A03F18043AB
:10D1B000013B9B001344B3F9003003FB01F2B7F9C4
:10D1C00016301846FB689968FB6A03F18043013BFF
:10D1D0009B000B44B3F9023003FB00F3D31A03F5B1
:10D1E0008043DB131BB23B83B7F914301946FB684D
:10D1F0009A68FB6A03F18043013B9B001344B3F937
:10D20000023003FB01F2B7F916301846FB68996843
:10D21000FB6A03F18043013B9B000B44B3F90030F0
:10D2200003FB00F3134403F58043DB131BB27B8342
:10D23000B7F91C309AB2B7F918309BB2134499B2BF
:10D24000FB685A68FB6A9B0013440AB21A80B7F95C
:10D250001E309AB2B7F91A309BB2134499B2FB68E8
:10D260005A68FB6A9B0013440AB25A80B7F91C3013
:10D270009AB2B7F918309BB2D31A98B2FB685A68C1
:10D28000B96AFB6ACB1A9B00134402B21A80B7F941
:10D290001E309AB2B7F91A309BB2D31A98B2FB6813
:10D2A0005A68B96AFB6ACB1A9B00134402B25A80CF
:10D2B000FB685A68B96AFB6ACB1A9B001344B3F93E
:10D2C00002309BB25B4298B2FB685A68B96AFB6A4B
:10D2D000CB1A9B00134402B25A80FB6A0133FB62F3
:10D2E000BB6ADA0F13445B101A46FB6A93427FF75E
:10D2F000E5AEFB681868FB685B687A68194601F060
:10D30000CDFB00E000BF3037BD4680BD000000000F
:10D3100080B489B000AFF860B9607A603B607B6828
:10D3200003F58473BB613B689B00FA681344FB619F
:10D33000FB68B3F900301A4613469B039B1A03F5AA
:10D340008043DB131AB2FB681A80FB68B3F9023022
:10D350001A4613469B039B1A03F58043DB131AB24C
:10D36000FB685A80FB69B3F900301A4613469B03E9
:10D370009B1A03F58043DB131AB2FB691A80FB6921
:10D38000B3F902301A4613469B039B1A03F58043F8
:10D39000DB131AB2FB695A80FB69B3F900301A46F5
:10D3A000BB69B3F9003003FB02F2FB69B3F9023049
:10D3B0001946BB69B3F9023003FB01F3D31A03F535
:10D3C0008043DB131BB2BB82FB69B3F900301A4602
:10D3D000BB69B3F9023003FB02F2FB69B3F9023017
:10D3E0001946BB69B3F9003003FB01F3134403F59D
:10D3F0008043DB131BB2FB82BB689B00BA691344FA
:10D40000BB61FB68B3F900309AB2B7F914309BB234
:10D41000D31A9BB21AB2FB691A80FB68B3F90230C7
:10D420009AB2B7F916309BB2D31A9BB21AB2FB6903
:10D430005A80FB68B3F900309AB2B7F914309BB246
:10D4400013449BB21AB2FB681A80FB68B3F902302E
:10D450009AB2B7F916309BB213449BB21AB2FB686A
:10D460005A80FB690433FB61FB680433FB603B6853
:10D47000013B3B603B68002B7FF45AAF00BF00BF0D
:10D480002437BD4680BC704780B491B000AFF860CF
:10D49000B9607A603B603B683B633B685B00FB6262
:10D4A0003A6813465B001344BB627B6803F58473E0
:10D4B000FB63FB6BBB63BB6B7B63FB68B3F9003047
:10D4C0001A4613465B039B1A03F58043DB131AB21B
:10D4D000FB681A80FB68B3F902301A4613465B03F7
:10D4E0009B1A03F58043DB131AB2FB685A803B6832
:10D4F0009B00FA681344B3F900301A4613465B03E5
:10D500009B1A03F58043D9133B689B00FA681344C8
:10D510000AB21A803B689B00FA681344B3F90230E0
:10D520001A4613465B039B1A03F58043D9133B68E5
:10D530009B00FA6813440AB25A80FB6A9B00FA689F
:10D540001344B3F900301A4613465B039B1A03F5E4
:10D550008043D913FB6A9B00FA6813440AB21A800D
:10D56000FB6A9B00FA681344B3F902301A4613466B
:10D570005B039B1A03F58043D913FB6A9B00FA688F
:10D5800013440AB25A80BB6A9B00FA681344B3F989
:10D5900000301A4613465B039B1A03F58043D913E8
:10D5A000BB6A9B00FA6813440AB21A80BB6A9B00EC
:10D5B000FA681344B3F902301A4613465B039B1A08
:10D5C00003F58043D913BB6A9B00FA6813440AB27F
:10D5D0005A803B689B00FA681344B3F900301A463E
:10D5E000FB6BB3F9003003FB02F23B689B00F96868
:10D5F0000B44B3F902301946FB6BB3F9023003FB5D
:10D6000001F3D31A03F58043DB131BB23B823B6863
:10D610009B00FA681344B3F900301A46FB6BB3F968
:10D62000023003FB02F23B689B00F9680B44B3F93C
:10D6300002301946FB6BB3F9003003FB01F31344CE
:10D6400003F58043DB131BB27B82FB6A9B00FA6805
:10D650001344B3F900301A46BB6BB3F9003003FB37
:10D6600002F2FB6A9B00F9680B44B3F902301946D9
:10D67000BB6BB3F9023003FB01F3D31A03F580430C
:10D68000DB131BB2BB82FB6A9B00FA681344B3F93D
:10D6900000301A46BB6BB3F9023003FB02F2FB6A9F
:10D6A0009B00F9680B44B3F902301946BB6BB3F920
:10D6B000003003FB01F3134403F58043DB131BB27B
:10D6C000FB82BB6A9B00FA681344B3F900301A4628
:10D6D0007B6BB3F9003003FB02F2BB6A9B00F96875
:10D6E0000B44B3F9023019467B6BB3F9023003FBEC
:10D6F00001F3D31A03F58043DB131BB23B83BB6AF0
:10D700009B00FA681344B3F900301A467B6BB3F9F7
:10D71000023003FB02F2BB6A9B00F9680B44B3F9C9
:10D72000023019467B6BB3F9003003FB01F313445D
:10D7300003F58043DB131BB27B83FB68B3F9003036
:10D740009AB2B7F914309BB2D31A9BB21BB2BB8406
:10D75000FB68B3F902309AB2B7F916309BB2D31A0C
:10D760009BB21BB2FB84FB68B3F900309AB2B7F9E5
:10D7700014309BB213449BB21AB2FB681A80FB6848
:10D78000B3F902309AB2B7F916309BB213449BB288
:10D790001AB2FB685A80B7F910309AB2B7F918304C
:10D7A0009BB213449BB21BB2BB83B7F912309AB23F
:10D7B000B7F91A309BB213449BB21BB2FB83B7F983
:10D7C00010309AB2B7F918309BB2D31A9BB21BB281
:10D7D0003B84B7F912309AB2B7F91A309BB2D31A18
:10D7E0009BB21BB27B84FB68B3F900309AB2B7F9E5
:10D7F0001C309BB2D31A99B2FB6A9B00FA6813449F
:10D800000AB21A80FB68B3F902309AB2B7F91E3037
:10D810009BB2D31A99B2FB6A9B00FA6813440AB20E
:10D820005A80BB689B00FA6B1344FB63BB68DB0048
:10D83000BA6B1344BB63BA6813465B0013449B0086
:10D840001A467B6B13447B63FB68B3F900309AB2D2
:10D85000B7F91C309BB213449BB21AB2FB681A8012
:10D86000FB68B3F902309AB2B7F91E309BB2134489
:10D870009BB21AB2FB685A807B685B68002B38D079
:10D88000B7F924309AB2B7F922309BB2D31A99B2C1
:10D890003B689B00FA6813440AB21A80B7F9263035
:10D8A0009AB2B7F920309BB2134499B23B689B00FF
:10D8B000FA6813440AB25A80B7F924309AB2B7F919
:10D8C00022309BB2134499B2BB6A9B00FA6813449E
:10D8D0000AB21A80B7F926309AB2B7F920309BB253
:10D8E000D31A99B2BB6A9B00FA6813440AB25A80F1
:10D8F00037E0B7F924309AB2B7F922309BB213441B
:10D9000099B23B689B00FA6813440AB21A80B7F9CF
:10D9100026309AB2B7F920309BB2D31A99B23B683D
:10D920009B00FA6813440AB25A80B7F924309AB2BD
:10D93000B7F922309BB2D31A99B2BB6A9B00FA683E
:10D9400013440AB21A80B7F926309AB2B7F92030D8
:10D950009BB2134499B2BB6A9B00FA6813440AB2A3
:10D960005A80FB680433FB603B6B013B3B633B6BC2
:10D97000002B7FF4A2AD00BF00BF4437BD4680BC82
:10D98000704780B48FB000AFF860B9607A603B60D8
:10D990003B687B633B685B00BB62BB683A6802FB29
:10D9A00003F27B68423253F822303B617B6803F517
:10D9B0008473FB62FB6A3B63FB68B3F900301A4671
:10D9C00042F6AA2303FB02F303F58043DB131AB2EA
:10D9D000FB681A80FB68B3F902301A4642F6AA23A4
:10D9E00003FB02F303F58043DB131AB2FB685A8092
:10D9F0003B689B00FA681344B3F900301A4642F6BC
:10DA0000AA2303FB02F303F58043D9133B689B0071
:10DA1000FA6813440AB21A803B689B00FA68134400
:10DA2000B3F902301A4642F6AA2303FB02F303F5C8
:10DA30008043D9133B689B00FA6813440AB25A80AA
:10DA4000BB6A9B00FA681344B3F900301A4642F6E9
:10DA5000AA2303FB02F303F58043D913BB6A9B009F
:10DA6000FA6813440AB21A80BB6A9B00FA6813442E
:10DA7000B3F902301A4642F6AA2303FB02F303F578
:10DA80008043D913BB6A9B00FA6813440AB25A80D8
:10DA90003B689B00FA681344B3F900301A463B6BAD
:10DAA000B3F9003003FB02F23B689B00F9680B44BA
:10DAB000B3F9023019463B6BB3F9023003FB01F3B3
:10DAC000D31A03F58043DB131BB23B833B689B00F7
:10DAD000FA681344B3F900301A463B6BB3F90230CD
:10DAE00003FB02F23B689B00F9680B44B3F9023078
:10DAF00019463B6BB3F9003003FB01F3134403F504
:10DB00008043DB131BB27B83BB6A9B00FA68134420
:10DB1000B3F900301A46FB6AB3F9003003FB02F296
:10DB2000BB6A9B00F9680B44B3F902301946FB6AE3
:10DB3000B3F9023003FB01F3D31A03F58043DB137F
:10DB40001BB2BB83BB6A9B00FA681344B3F9003075
:10DB50001A46FB6AB3F9023003FB02F2BB6A9B0070
:10DB6000F9680B44B3F902301946FB6AB3F9003087
:10DB700003FB01F3134403F58043DB131BB2FB8368
:10DB8000B7F918309AB2B7F91C309BB213449BB264
:10DB90001BB23B84B7F91A309AB2B7F91E309BB268
:10DBA00013449BB21BB27B84B7F918309AB2B7F911
:10DBB0001C309BB2D31A9BB21BB2BB82B7F91A308E
:10DBC0009AB2B7F91E309BB2D31A9BB21BB2FB823A
:10DBD000BB689B003A6B13443B63BB68DB00FA6A8B
:10DBE0001344FB62FB68B3F900309AB2B7F92030F6
:10DBF0005B101BB29BB2D31A99B23B689B00FA68C8
:10DC000013440AB21A80FB68B3F902309AB2B7F92A
:10DC100022305B101BB29BB2D31A99B23B689B00B7
:10DC2000FA6813440AB25A80B7F91430B7F91220CF
:10DC300002FB03F303F58043DB131BB2BB82B7F98E
:10DC40001630B7F9122002FB03F303F58043DB1310
:10DC50001BB2FB82FB68B3F900309AB2B7F92030EF
:10DC60009BB213449BB21AB2FB681A80FB68B3F9EB
:10DC700002309AB2B7F922309BB213449BB21AB267
:10DC8000FB685A803B689B00FA681344B3F9003084
:10DC90009AB2B7F916309BB2134499B2BB6A9B0093
:10DCA000FA6813440AB21A803B689B00FA6813446E
:10DCB000B3F902309AB2B7F914309BB2D31A99B2C1
:10DCC000BB6A9B00FA6813440AB25A803B689B0007
:10DCD000FA681344B3F900309AB2B7F916309BB220
:10DCE000D31A99B23B689B00FA6813440AB21A80AF
:10DCF0003B689B00FA681344B3F902309AB2B7F953
:10DD000014309BB2134499B23B689B00FA681344E9
:10DD10000AB25A80FB680433FB607B6B013B7B6378
:10DD20007B6B002B7FF448AE00BF00BF3C37BD4685
:10DD300080BC704780B49DB000AFF860B9607A6075
:10DD40003B607B6803F584737B653B68BA6802FBC4
:10DD500003F39B007A6D1A4407F1180310681860EA
:10DD60003B68BA6802FB03F3DB007A6D1A4407F1E3
:10DD7000140310681860FB68FB663B689B00FA6E32
:10DD80001344BB663B68DB00FA6E13447B663A685B
:10DD900013465B0013449B001A46FB6E13443B661C
:10DDA0003B681B01FA6E1344FB657B6803F58473C3
:10DDB0003B650023BB657AE3FB6EB3F900301A467E
:10DDC00041F6991303FB02F303F58043DB131AB208
:10DDD000FB6E1A80FB6EB3F902301A4641F69913B6
:10DDE00003FB02F303F58043DB131AB2FB6E5A8088
:10DDF000BB6EB3F900301A4641F6991303FB02F3E8
:10DE000003F58043DB131AB2BB6E1A80BB6EB3F905
:10DE100002301A4641F6991303FB02F303F58043DF
:10DE2000DB131AB2BB6E5A807B6EB3F900301A4610
:10DE300041F6991303FB02F303F58043DB131AB297
:10DE40007B6E1A807B6EB3F902301A4641F6991345
:10DE500003FB02F303F58043DB131AB27B6E5A8097
:10DE60003B6EB3F900301A4641F6991303FB02F3F7
:10DE700003F58043DB131AB23B6E1A803B6EB3F995
:10DE800002301A4641F6991303FB02F303F580436F
:10DE9000DB131AB23B6E5A80FB6DB3F900301A46A1
:10DEA00041F6991303FB02F303F58043DB131AB227
:10DEB000FB6D1A80FB6DB3F902301A4641F69913D7
:10DEC00003FB02F303F58043DB131AB2FB6D5A80A8
:10DED000FA6E07F11C0310681860BB6EB3F90030CE
:10DEE0001946BB6DBA6802FB03F39B003A6D1344FD
:10DEF000B3F9003003FB01F2BB6EB3F902301846F0
:10DF0000BB6DB96801FB03F39B00396D0B44B3F99A
:10DF1000023003FB00F3D31A03F58043DB131BB27B
:10DF20003B84BB6EB3F900301946BB6DBA6802FB87
:10DF300003F39B003A6D1344B3F9023003FB01F283
:10DF4000BB6EB3F902301846BB6DB96801FB03F331
:10DF50009B00396D0B44B3F9003003FB00F313440D
:10DF600003F58043DB131BB27B847B6EB3F9003077
:10DF70001946BB6DBA6802FB03F3DB003A6D13442C
:10DF8000B3F9003003FB01F27B6EB3F9023018469F
:10DF9000BB6DB96801FB03F3DB00396D0B44B3F9CA
:10DFA000023003FB00F3D31A03F58043DB131BB2EB
:10DFB000BB847B6EB3F900301946BB6DBA6802FBB7
:10DFC00003F3DB003A6D1344B3F9023003FB01F2B3
:10DFD0007B6EB3F902301846BB6DB96801FB03F3E1
:10DFE000DB00396D0B44B3F9003003FB00F313443D
:10DFF00003F58043DB131BB2FB843B6EB3F90030A7
:10E000001946BB6DBA6802FB03F213465B0013446A
:10E010009B001A463B6D1344B3F9003003FB01F13A
:10E020003B6EB3F902301846BB6DBA6802FB03F2CF
:10E0300013465B0013449B001A463B6D1344B3F92F
:10E04000023003FB00F3CB1A03F58043DB131BB252
:10E050003B853B6EB3F900301946BB6DBA6802FBD5
:10E0600003F213465B0013449B001A463B6D1344B6
:10E07000B3F9023003FB01F13B6EB3F902301846ED
:10E08000BB6DBA6802FB03F213465B0013449B00AE
:10E090001A463B6D1344B3F9003003FB00F30B4405
:10E0A00003F58043DB131BB27B85FB6DB3F90030B6
:10E0B0001946BB6DBA6802FB03F31B013A6D1344AA
:10E0C000B3F9003003FB01F2FB6DB3F902301846DF
:10E0D000BB6DB96801FB03F31B01396D0B44B3F948
:10E0E000023003FB00F3D31A03F58043DB131BB2AA
:10E0F000BB85FB6DB3F900301946BB6DBA6802FBF6
:10E1000003F31B013A6D1344B3F9023003FB01F230
:10E11000FB6DB3F902301846BB6DB96801FB03F320
:10E120001B01396D0B44B3F9003003FB00F31344BA
:10E1300003F58043DB131BB2FB85B7F920309AB29D
:10E14000B7F92C309BB213449BB21BB23B87B7F993
:10E1500022309AB2B7F92E309BB213449BB21BB255
:10E160007B87B7F920309AB2B7F92C309BB2D31A1B
:10E170009BB21BB2A7F84430B7F922309AB2B7F974
:10E180002E309BB2D31A9BB21BB2A7F84630B7F918
:10E1900024309AB2B7F928309BB213449BB21BB219
:10E1A000BB87B7F926309AB2B7F92A309BB213442D
:10E1B0009BB21BB2FB87B7F924309AB2B7F928306B
:10E1C0009BB2D31A9BB21BB2A7F84030B7F92630E6
:10E1D0009AB2B7F92A309BB2D31A9BB21BB2A7F8F6
:10E1E0004230FB6EB3F900309AB2B7F9383099B2C9
:10E1F000B7F93C309BB20B449BB213449BB21AB2AA
:10E20000FB6E1A80FB6EB3F902309AB2B7F93A305E
:10E2100099B2B7F93E309BB20B449BB213449BB208
:10E220001AB2FB6E5A80B7F91C309AB2B7F938307F
:10E23000B7F9181001FB03F303F58043DB139BB21E
:10E2400013449AB2B7F93C30B7F9141001FB03F349
:10E2500003F58043DB139BB213449BB21BB23B8696
:10E26000B7F91E309AB2B7F93A30B7F9181001FB76
:10E2700003F303F58043DB139BB213449AB2B7F95F
:10E280003E30B7F9141001FB03F303F58043DB13B1
:10E290009BB213449BB21BB27B86B7F94630B7F9E9
:10E2A0001A2002FB03F303F58043DB139AB2B7F99C
:10E2B0004230B7F9161001FB03F303F58043DB137B
:10E2C0009BB213449BB21BB2BB86B7F94430B7F97B
:10E2D0001A2002FB03F303F58043DB139BB25B427E
:10E2E0009AB2B7F94030B7F9161001FB03F303F502
:10E2F0008043DB139BB2D31A9BB21BB2FB86B7F9E8
:10E3000030309AB2B7F934309BB2D31A9BB21AB2FA
:10E31000BB6E1A80B7F932309AB2B7F936309BB279
:10E32000D31A9BB21AB2BB6E5A80B7F930309AB288
:10E33000B7F934309BB213449BB21AB2FB6D1A800A
:10E34000B7F932309AB2B7F936309BB213449BB268
:10E350001AB2FB6D5A80B7F91C309AB2B7F938304F
:10E36000B7F9141001FB03F303F58043DB139BB2F1
:10E3700013449AB2B7F93C30B7F9181001FB03F314
:10E3800003F58043DB139BB213449BB21BB2A7F887
:10E390004830B7F91E309AB2B7F93A30B7F91410CD
:10E3A00001FB03F303F58043DB139BB213449AB2E2
:10E3B000B7F93E30B7F9181001FB03F303F58043BA
:10E3C000DB139BB213449BB21BB2A7F84A30B7F9D8
:10E3D0004230B7F91A2002FB03F303F58043DB1345
:10E3E0009AB2B7F94630B7F9161001FB03F303F5FB
:10E3F0008043DB139BB2D31A9BB21BB2A7F84C30FD
:10E40000B7F94430B7F9162002FB03F303F5804354
:10E41000DB139AB2B7F94030B7F91A1001FB03F3D6
:10E4200003F58043DB139BB2D31A9BB21BB2A7F850
:10E430004E30B7F948309AB2B7F94C309BB213441A
:10E440009BB21AB27B6E1A80B7F94A309AB2B7F90A
:10E450004E309BB213449BB21AB27B6E5A80B7F90E
:10E4600048309AB2B7F94C309BB2D31A9BB21AB269
:10E470003B6E1A80B7F94A309AB2B7F94E309BB268
:10E48000D31A9BB21AB23B6E5A80FB6E0433FB6602
:10E49000BB6E0433BB667B6E04337B663B6E04331A
:10E4A0003B66FB6D0433FB65BB6D0133BB65BA6D29
:10E4B0003B689A42FFF680AC00BF00BF7437BD4690
:10E4C00080BC704780B48FB000AFF860B9607A60EC
:10E4D0003B607B6803F584733B627B681B68FB6170
:10E4E0000023BB6100237B63ECE07B6B3B63002379
:10E4F000FB6240E03B6B9B00FA68D118FB6A9B0013
:10E50000BA6913441A460B461B681360FB6A9B00EA
:10E51000BA691344B3F90030194647F6FF723B6CF1
:10E5200092FBF3F303FB01F303F58043D913FB6A7A
:10E530009B00BA6913440AB21A80FB6A9B00BA694D
:10E540001344B3F90230194647F6FF723B6C92FB55
:10E55000F3F303FB01F303F58043D913FB6A9B003C
:10E56000BA6913440AB25A803A6B3B6813443B635E
:10E57000FB6A0133FB62FA6A3B6C9A42BADB7B6B43
:10E580003B630023FB6295E000237B623B6B9B00B7
:10E59000FA681A44BB691B6813600123BB627DE003
:10E5A0003B6BBA6802FB03F27B6A13447B627A6AB4
:10E5B000FB699A4203DB7A6AFB69D31A7B62BB6A06
:10E5C0009B00BA691344B3F9003019467B6A9B007B
:10E5D0003A6A1344B3F9003003FB01F2BB6A9B00B3
:10E5E000B9690B44B3F9023018467B6A9B00396A5B
:10E5F0000B44B3F9023003FB00F3D31A03F5804355
:10E60000DB131BB2BB82BB6A9B00BA691344B3F92C
:10E61000003019467B6A9B003A6A1344B3F9023012
:10E6200003FB01F2BB6A9B00B9690B44B3F90230EA
:10E6300018467B6A9B00396A0B44B3F9003003FB30
:10E6400000F3134403F58043DB131BB2FB823B6BE7
:10E650009B00FA681344B3F900309AB2B7F914304A
:10E660009BB2134499B23B6B9B00FA6813440AB205
:10E670001A803B6B9B00FA681344B3F902309AB2DC
:10E68000B7F916309BB2134499B23B6B9B00FA6802
:10E6900013440AB25A80BB6A0133BB62BA6A3B6C4C
:10E6A0009A42FFF67DAF3A6B3B6813443B63FB6ACB
:10E6B0000133FB62FA6A3B6C9A42FFF665AF7B6BF3
:10E6C00001337B637A6B3B689A42FFF60EAF00BF63
:10E6D00000BF3C37BD4680BC704780B58AB002AFF2
:10E6E000F860B9607A603B60FB68FB61BB6A1A1D29
:10E6F000BA621B68BB61BB6A1A1DBA621B687B6188
:10E70000BB697A6902FB03F39B00FA6813443B611F
:10E710007B69012B13D1FA68BB681B6813603B68E7
:10E720007A6802FB03F39B00BA681344BB60FB6882
:10E730000433FB60FA683B699A42ECD11DE0BB6987
:10E740007A6802FB03F2FB6A0193BB6A00933B68A1
:10E75000B968F868FFF7C1FF3B687A6802FB03F30A
:10E760009B00BA681344BB607B699B00FA68134442
:10E77000FB60FA683B699A42E1D1FB69FB60BB69C7
:10E78000023B032B26D801A252F823F09DE700009C
:10E79000ABE70000B9E70000C7E700007B69FA6A51
:10E7A0007968F868FEF7B4FD1DE07B69FA6A79685C
:10E7B000F868FFF7E6F816E07B69FA6A7968F868A6
:10E7C000FEF762FE0FE07B69FA6A7968F868FFF786
:10E7D000B1FA08E0BB6900937B69FA6A7968F86866
:10E7E000FFF770FE00BF00BF2037BD4680BD80B57B
:10E7F00086B000AF7860396004237B61786804F0EC
:10E80000BDFE02460B461046194610F013F80246AC
:10E810000B461046194607F0C3FBC7E902011EE08C
:10E820007B69022B05D07B69042B05D102237B6118
:10E8300006E003237B6103E07B6902337B6100BF59
:10E84000786904F09BFE02460B46D7E9020105F009
:10E8500071F90346002B00D101E07B687B617B6886
:10E860007A6993FBF2F2796901FB02F29B1A002BA1
:10E87000D6D17A687B6992FBF3F37B603B681A1D03
:10E880003A607A691A603B681A1D3A607A681A60C1
:10E890007B68012BE3DC00BF00BF1837BD4680BD9D
:10E8A000B0B58CB000AFF860B9607A603B6000230F
:10E8B000FB62FB6842339B00FB613B68002B02D18B
:10E8C0000023FB620CE07B68002B06D03B681B68D2
:10E8D000FA699A4201D87B68FB623B68FA691A6060
:10E8E000FB6A002B00F09A80FB6AFA681A60FB6AE8
:10E8F000BA685A600023BB6285E04BA3D3E90023CA
:10E90000C7E904234FF000024FF04043D7E9040168
:10E9100004F09EFE02460B4614461D46B86A04F0FB
:10E920002DFE02460B462046294604F091FE024683
:10E930000B4614461D46F86804F020FE02460B46BE
:10E940002046294604F0AEFF02460B46C7E90823DD
:10E95000FB6A5B68002B05D03B6A3B627B6A83F0F5
:10E9600000437B62D7E908010FF06AFD30A3D3E9C9
:10E97000002304F06DFE02460B46104619464FF088
:10E9800000022D4B04F0AEFC02460B461046194621
:10E9900007F006FB02460B46F96A01F58470B96A76
:10E9A000890044181046194605F002F903461BB2C7
:10E9B0002380D7E908010FF0BDFE1DA3D3E9002392
:10E9C00004F046FE02460B46104619464FF0000280
:10E9D000194B04F087FC02460B461046194607F017
:10E9E000DFFA02460B46F96A01F58470B96A8900BC
:10E9F00044181046194605F0DBF803461BB2638045
:10EA0000BB6A0133BB62BA6AFB689A42FFF675AF14
:10EA1000FB6A08331946F868FFF7E9FEFB6A1846F7
:10EA20003037BD46B0BD00BF182D4454FB2109400E
:10EA300000000000C0FFDF400000E03F80B588B06C
:10EA400002AFF860B9607A603B60BA687B689A424E
:10EA500015D100237B61FB680833FA6801920093AB
:10EA60003B680122B9687869FFF737FEFB681B68CD
:10EA70009B001A467969786815F00DFD0AE0FB687D
:10EA80000833FA68019200933B680122B9687868FC
:10EA9000FFF723FE00BF1837BD4680BD80B584B0A8
:10EAA00000AFF860B9607A6001237A68B968F868E5
:10EAB000FFF7C4FF00BF1037BD4680BD80B400AF74
:10EAC00000BFBD4680BC704780B485B000AF7860A1
:10EAD0007B68FB6004E0FB68DA0F13445B10FB60AB
:10EAE000FB6803F00103002BF5D006E0FB681B4A2E
:10EAF00082FB0312DB17D31AFB60F968174B83FB09
:10EB00000132CB17D21A13465B001344CA1A002AEB
:10EB1000ECD007E0FB68124A82FB03125210DB17AD
:10EB2000D31AFB60F9680E4B83FB01235A10CB17F5
:10EB3000D21A13469B001344CA1A002AEAD0FB6873
:10EB4000012B03DD7B6801337B60C1E700BF7B687D
:10EB500018461437BD4680BC704700BF5655555502
:10EB6000676666667BB972B90029BEBF00204FF0A8
:10EB7000004106E008BF00281CBF6FF000414FF0C5
:10EB8000FF3000F0B9B9ADF1080C6DE904CE0029F1
:10EB900009DB002B1ADB00F04DF8DDF804E0DDE9BD
:10EBA000022304B07047404261EB4101002B1BDBA4
:10EBB00000F040F8DDF804E0DDE9022304B0404253
:10EBC00061EB4101524263EB43037047524263EBF6
:10EBD000430300F02FF8DDF804E0DDE9022304B080
:10EBE000404261EB41017047524263EB430300F046
:10EBF00021F8DDF804E0DDE9022304B0524263EBC2
:10EC00004303704753B94AB9002908BF00281CBF05
:10EC10004FF0FF314FF0FF3000F06EB9ADF1080C4E
:10EC20006DE904CE00F006F8DDF804E0DDE902232A
:10EC300004B070472DE9F04F099D0F460446894600
:10EC4000002B7CD18A42164640D9B2FA82F24AB1F0
:10EC5000C2F1200107FA02F39640944020FA01F134
:10EC600041EA03094FEA164E270C1FFA86F8B9FB52
:10EC7000FEFC0EFB1C930CFB08F147EA0343994290
:10EC800006D9F31802D2994200F223810CF1FF3C1D
:10EC9000591AA3B2B1FBFEF00EFB101100FB08F8ED
:10ECA00043EA0144A04505D9341902D2A04500F237
:10ECB0000D810138A4EB080440EA0C4000211DB18D
:10ECC000D4400023C5E90043BDE8F08F02B9FFDE60
:10ECD000B2FA82F2002A4DD18F1B4FEA164E1FFA6C
:10ECE00086F80121230CB7FBFEFC0EFB1C7708FB0A
:10ECF0000CF043EA074398420AD9F3182CBF0127C6
:10ED00000027984202D9002F00F0D9800CF1FF3C77
:10ED10001F1AA3B2B7FBFEF00EFB107708FB00F83A
:10ED200043EA0744A04505D9341902D2A04500F2B0
:10ED3000CA800138A4EB080440EA0C40BFE78B42CC
:10ED400008D9002D00F0B2800021C5E9000708466F
:10ED5000BDE8F08FB3FA83F1002949D1BB42C0F07E
:10ED6000A880824240F2A5800846002DACD0C5E9BB
:10ED70000049A9E7C2F120009640914027FA00F32C
:10ED80004FEA164E24FA00F71FFA86F894400F4314
:10ED9000B3FBFEF04FEA174C0EFB103300FB08F1FB
:10EDA0004CEA034399420CD9F3182CBF4FF0010CE5
:10EDB0004FF0000C994203D9BCF1000F00F0928093
:10EDC00001385B1ABFB2B3FBFEF10EFB113301FB3E
:10EDD00008FC47EA0347BC4505D9F71902D2BC45F0
:10EDE00000F287800139A7EB0C0741EA004179E77F
:10EDF000C1F1200603FA01F402FA01FC07FA01F856
:10EE0000F24027FA06F320FA06F700FA01FE224341
:10EE100047EA08044FEA1248200C1FFA82F9B3FBB4
:10EE2000F8FA08FB1A370AFB09FB40EA0747BB451B
:10EE300009D9D7192CBF01230023BB4501D9002BC9
:10EE400053D00AF1FF3AA7EB0B07A4B2B7FBF8F0D7
:10EE500008FB107700FB09F944EA0747B94504D9D4
:10EE6000D71901D2B9453AD8013840EA0A40A7EB90
:10EE70000907A0FB0C894F45C3464C4602D307D176
:10EE8000C64505D2B8EB0C0B69EB020201381446FB
:10EE90001DB3BEEB0B0367EB040707FA06F6CB4086
:10EEA000CF4000211E43C5E900670DE729462846EB
:10EEB0000AE7841A67EB03030120994655E7ACF192
:10EEC000020C334424E70238344433E70238344434
:10EED000F0E6ACF1020C3344DAE62946F4E60238F7
:10EEE0001744C2E7023833446BE7AAF1020A174419
:10EEF000A9E70239374476E7704700BF80B483B092
:10EF000000AF78607B6801339B0018460C37BD4624
:10EF100080BC704780B582B000AF786039607A6895
:10EF20003B689A4201D1012310E07B68002B02D09C
:10EF30003B68002B01D1002308E03B6819683B685F
:10EF400004331A46786800F005F803461846083777
:10EF5000BD4680BD80B487B000AFF860B9607A600C
:10EF6000FB68002B06D1BB68002B0CBF01230023DC
:10EF7000DBB220E0FB681B68BA689A4201D000232C
:10EF800019E000237B6110E0FA687B699B00134461
:10EF90005A687B699B0079680B441B689A4201D0D0
:10EFA000002308E07B6901337B61FB681B687A6999
:10EFB0009A42E9DB012318461C37BD4680BC7047E6
:10EFC00080B584B000AF78607868FFF797FF03469C
:10EFD000184612F087F80346FB60FB687A681A60EF
:10EFE000FB6818461037BD4680BD80B584B000AFC1
:10EFF00078607B68002B01D1002313E07B681B68DD
:10F000001846FFF7DDFFF860FB68002B09D0FB68AE
:10F01000181D7B68191D7B681B689B001A4615F03C
:10F020003AFAFB6818461037BD4680BD80B582B0FD
:10F0300000AF7860786812F05DF800BF0837BD4611
:10F0400080BD80B483B000AF78607B6801339B00E3
:10F0500018460C37BD4680BC704780B584B000AF01
:10F0600078607868FFF7EDFF0346184612F03AF82B
:10F070000346FB60FB687A681A60FB681846103725
:10F08000BD4680BD80B582B000AF7860786812F070
:10F0900031F800BF0837BD4680BD80B582B000AFF3
:10F0A00078607B681B7D042B03D07B681B7D052B60
:10F0B00004D17B685B68184612F01CF87B6800225C
:10F0C0005A6000BF0837BD4680BD80B584B000AF30
:10F0D00078607B681B78012B1DD17B685B68FB60C7
:10F0E000FB681B68002B07D0FB681B681846FFF7FE
:10F0F000C9FFFB6800221A60FB685B68002B07D021
:10F10000FB685B681846FFF791FFFB6800225A60B6
:10F11000F86811F0EFFF7B6800225A607B680022DC
:10F120001A7000BF1037BD4680BD90B589B000AFE2
:10F1300078607B68002B4BD07B681B68002B07D066
:10F140007B681B681846FFF771FF7B6800221A6016
:10F150007B685B68002B07D07B685B681846FFF70D
:10F1600065FF7B6800225A607B689B68002B2BD070
:10F170000023FB611BE07B689A68FB691B01134459
:10F1800007F10C040FCB84E80F003B7B012B0BD164
:10F190007B691846FFF74AFF00237B61BB6918466D
:10F1A000FFF744FF0023BB61FB690133FB617B6810
:10F1B000DB68FA699A42DEDB7B689B68184611F0CF
:10F1C00099FF7B6800229A60786811F093FF00E055
:10F1D00000BF2437BD4690BD80B582B000AF7860D7
:10F1E0007868FFF75AFF7B689B68002B04D07B6828
:10F1F0009B681846FFF71AFF7B6800229A607B68BD
:10F20000DB6B002B04D07B68DB6B1846FFF70EFF2F
:10F210007B680022DA637B6830331846FFF755FFBE
:10F220007B689B6B1846FFF780FF7B6800229A6320
:10F2300000BF0837BD4680BD82B080B584B000AF46
:10F24000B9607A60FB610346FB73B86BFFF7C4FFDC
:10F25000BB6BFA7B1A70BB6BBA681A62BB6B7A68BD
:10F260009A60BB6B0C3307F11C0292E8030083E841
:10F270000300BB6B7A6A5A60BB6BBA6A9A61BB6B5C
:10F2800097F82C201A75BB6B3A6BDA61BB6B97F859
:10F29000342083F82D20BB6B002283F83020BB6B19
:10F2A00000225A6300BF1037BD46BDE8804002B05F
:10F2B000704780B582B000AF786039603B681B7DD5
:10F2C000042B03D03B681B7D052B1DD13B685B687D
:10F2D000002B07D1786811F005FF03461A463B68FA
:10F2E0005A600DE03B689B697A689A4208D93B688E
:10F2F0005B687968184612F021FA02463B685A604A
:10F300003B687A689A6100E000BF0837BD4680BD5F
:10F3100080B483B000AF0346FB71FB790B2B33D86D
:10F3200001A252F823F000BF59F300005DF3000082
:10F3300065F3000069F3000071F300007DF3000045
:10F3400075F3000061F3000079F300006DF3000035
:10F3500081F3000085F300000E4B16E00E4B14E025
:10F360000E4B12E00E4B10E00E4B0EE00E4B0CE07D
:10F370000E4B0AE00E4B08E00E4B06E00E4B04E08D
:10F380000E4B02E00E4B00E00E4B18460C37BD460C
:10F3900080BC7047F84E0200004F0200084F020088
:10F3A000104F0200184F0200204F0200284F0200A9
:10F3B000304F0200384F0200444F02004C4F020011
:10F3C000544F02005C4F0200B0B58AB000AF7860C5
:10F3D00007F1080320220021184615F083F87B6806
:10F3E0001D4607F108040FCC0FC594E80F0085E80F
:10F3F0000F0078682837BD46B0BD00BF80B483B029
:10F4000000AF78607B68002B01D1202302E07B688D
:10F41000B3FA83F318460C37BD4680BC704780B5FD
:10F4200082B000AF78607868FFF7E8FF0346C3F169
:10F43000200318460837BD4680BD80B582B000AFB6
:10F4400078607B681846FCF7FBFE7B68083318463B
:10F45000FDF70EF87B681833184600F0FBF97B685F
:10F460002833184600F07CFA7B683833184606F0DB
:10F4700001F800BF0837BD4680BDB0B588B002AF07
:10F48000F860B9607A6088220021B86815F02AF81F
:10F49000FB68B9687A681846FCF7E1FE0346002B62
:10F4A00009D14F4B1B68DB68202201214D4811F028
:10F4B0000BFE00238FE0BB6803F11C02BB681B68D6
:10F4C000194610460EF034FB0346002B09D1444B7D
:10F4D0001B68DB681D220121434811F0F5FD002364
:10F4E00079E0BB681C33184614F0BBFAFB6803F1E3
:10F4F0000800BB6803F13401BB685B6A5B08013339
:10F500007A68FDF7B7F80346002B09D1344B1B6826
:10F51000DB6824220121354811F0D6FD00235AE092
:10F52000FB6803F11800BB6803F15801BB685B6B13
:10F530001A4600F0ABF90346002B09D1284B1B6893
:10F54000DB68292201212A4811F0BEFD002342E098
:10F55000BB685B6A1846FFF762FF0346073B7B61A7
:10F56000FB6803F12800BB6803F16C01BB689C6E6B
:10F57000BB685D6BBB689B6D9BB27A69019200931F
:10F580002B46224600F05AFA0346002B09D1144BB1
:10F590001B68DB682B220121164811F095FD002322
:10F5A00019E0FB6803F13802BB6880331946104646
:10F5B00005F06FFF0346002B09D1094B1B68DB6880
:10F5C000232201210C4811F07FFD002303E0B868DD
:10F5D00005F035FF012318461837BD46B0BD00BF02
:10F5E000640002206C4F0200904F0200B04F0200F6
:10F5F000D84F0200045002003050020080B582B0A3
:10F6000000AF78607B681846FCF71AFF7B681C33F4
:10F61000184614F039FA7B6834331846FDF782FA3D
:10F620007B685833184600F08DF97B686C331846B8
:10F6300000F0C6FA00BF0837BD4680BD80B483B075
:10F6400000AF78607B68002B01D1202302E07B684B
:10F65000B3FA83F318460C37BD4680BC704780B5BB
:10F6600082B000AF78607868FFF7E8FF0346C3F127
:10F67000200318460837BD4680BDF0B48AB000AFFD
:10F68000786039604FF001004FF000013C68A4F150
:10F690002006C4F1200501FA04F300FA06F633430C
:10F6A00020FA05F52B4300FA04F27B689B1A7B6273
:10F6B0003B680F2B07D83B68C3F110037A6A02FA44
:10F6C00003F37B6205E03B68103B7A6A42FA03F37E
:10F6D0007B627B6A5B123B624FF40073FB61124AF0
:10F6E0003B6A32F81330BB613B6A01330E4A32F891
:10F6F00013307B61FB693A6A02FB03F33B617A6971
:10F70000BB69D31A796A3A698A1A02FB03F31B149C
:10F71000FB607A6ABB691A44FB68134418462837B1
:10F72000BD46F0BC704700BF38520200B0B588B08B
:10F7300000AF786039607868FFF791FF0346013BBE
:10F74000FB61F9697868FFF798FFB861FB691B04F2
:10F75000BA6913447B614FF400433B617B691A46ED
:10F760004FF000034BF2721101FB03F0002101FB8B
:10F7700002F101444BF27210A2FB002319440B4624
:10F78000396908464FF00001141843EB01054FF0AA
:10F7900000024FF00003220C42EA05422B0C1346F4
:10F7A000FB60FA683B689A403B6913441B0CBB60E2
:10F7B000BB6818462037BD46B0BD80B58AB000AFE3
:10F7C000F860B9607A603B60FB685B68BB61BB68EE
:10F7D0007B627B6A7B6100233B6232E0BB681A1D5F
:10F7E000BA601B68FB61FB681B68002B1AD03B6882
:10F7F000002B06DA3B685B42FA6922FA03F3FB61ED
:10F8000004E0FA693B6802FA03F3FB61FB69012B30
:10F8100006D9BB691946F869FFF788FFF86101E06E
:10F820000023FB61FB694FF6FF72934228BF13462A
:10F8300019467B6A9A1C7A628AB21A803B6A013343
:10F840003B623A6A7B689A42C8DB7B691846283774
:10F85000BD4680BD80B483B000AF78607B680A226B
:10F860001A607B68064A5A607B68064A9A607B6821
:10F87000054ADA6000BF0C37BD4680BC704700BF48
:10F88000CDCCCC3C8FC2753DCDCC4C3D80B584B049
:10F8900000AFF860B9607A60FB681A68BB681A60EC
:10F8A000FB689B684FF08D41184604F007FB034648
:10F8B000184604F0EFFC03469AB2BB68DA80FB6896
:10F8C0005B684FF08D41184604F0F8FA034618467D
:10F8D00004F0E0FC03469AB2BB689A80FB68DB68E0
:10F8E0004FF08D41184604F0E9FA0346184604F03B
:10F8F000D1FC03469AB2BB681A81BB687A68DA60A9
:10F90000BB68DB680421184611F0DCF903461A468F
:10F91000BB681A61BB681B69002B09D1074B1B68C8
:10F92000DB6820220121064811F0CEFB002300E015
:10F93000012318461037BD4680BD00BF6400022079
:10F940005450020080B582B000AF78607B681B69BC
:10F95000184611F0CFFB00BF0837BD4680BD00BF81
:10F9600080B483B000AF78607B6800221A607B6847
:10F97000064A5A607B68064A9A607B681522DA60FC
:10F9800000BF0C37BD4680BC704700BF3333733FA8
:10F990000000A04290B587B000AFF860B9607A600F
:10F9A000786804F033FA04460122BB6802FA03F3D4
:10F9B000184604F02BFA03461946204604F032FBA1
:10F9C00003467B61FB68DB68012202FA03F31846F9
:10F9D00004F01CFA0446FB689B687969184604F039
:10F9E00065F903461A46FB685B6883F000431946D5
:10F9F00010460FF05FF803461946204604F05EFA01
:10FA000003463B610C49386904F014FC0346002BA3
:10FA100002D047F6FF730AE04FF07C51386904F0DA
:10FA200045F90346184604F00FFC03461BB218467E
:10FA30001C37BD4690BD00BF00FEFF4690B591B09B
:10FA400000AFF860B9607A603B60FB681A68BB6819
:10FA50001A60BB681B68002B01D10123A8E0BB68BA
:10FA60007A685A60BB683A689A60FA2011F03AFBEB
:10FA700003461A46BB68DA60BB68DB68002B09D115
:10FA80004D4B1B68DB681C2201214C4811F01CFB0C
:10FA900000238DE0FB68DA687B6DD31AA3F10C02BA
:10FAA000BB681A61B7F850207B6DD31ABB63BB6883
:10FAB000DC680022B96BF868FFF76CFF034623800F
:10FAC000BB68DB689C1C0122B96BF868FFF762FF1A
:10FAD00003462380BB68DB68A3F10C02BB68DA60D5
:10FAE0000223FB635AE0FB6B013B012202FA03F3A2
:10FAF0007B637B6B5B087A6B13443B63FB6B202B54
:10FB000003D17B6B5B00013B01E07B6B5B00FB6225
:10FB10007A6BB96BF868FFF73DFF03467B853A6B5C
:10FB2000B96BF868FFF736FF03463B85FA6AB96B95
:10FB3000F868FFF72FFF0346FB84B7F92820B7F9D1
:10FB40002A30D31A3B62B7F92620B7F92A30D31AE4
:10FB5000FB613B6A9A00FB69D31ABB61FA69BB6916
:10FB6000D31A7B61BB68DA68FB6BDB0013447A8DC8
:10FB70001A80BB68DA68FB6BDB0002331344BA6996
:10FB800012B21A80BB68DA68FB6BDB0004331344E3
:10FB90007A6912B21A80FB6B0133FB63FB6B202B7B
:10FBA000A1DDBB68DB6803F10C02BB68DA600123EE
:10FBB00018464437BD4690BD6400022078500200CC
:10FBC00080B582B000AF78607B68DB68184611F0C2
:10FBD00091FA00BF0837BD4680BD00BF4D2809D04F
:10FBE00005D81C3804288CBF0020012070474F38EE
:10FBF0000128F8E701207047D0E9052300219A4247
:10FC0000B7BF03690B4603EB02130132BCBF596057
:10FC100042611846704770B51D464B1E0E4614468D
:10FC20004F2B37D8DFE803F0282828283636363619
:10FC300032322832323232323232323232323236AA
:10FC40002A2A2A2A2A2A2A2A2832323232323632DA
:10FC50002A292836282A2A322936363232322828CA
:10FC6000282828322828322836363232323636369C
:10FC7000323232282A282A2A54B15DB1FFF7BCFF5C
:10FC800010B10670C0E90245044601E0002CF5D130
:10FC9000204670BD0024FBE738B50C461546FFF73B
:10FCA000ABFF38B1002334B19D4206DD43600370E1
:10FCB000C0E9024538BD2046FCE71846FAE710B512
:10FCC0000C46FFF799FF10B127238460037010BD25
:10FCD000C3680A461978522906D04F290CD1C16A47
:10FCE0000331C162202103E0C16A0231C1621F21D8
:10FCF0000133C36000238EE71046704751B1D0E94D
:10FD00000832934206DAC26942F8231001330362D3
:10FD1000012070470020704738B505460C46002C7E
:10FD200047D02378013B4F2B43D8DFE803F02D2D3C
:10FD30002D2842424D4D2D2D2D2D2D2D2D2D2D2D8E
:10FD40002D2D2D2D2D422D2D2D2D2D2D2D2D2D2DCE
:10FD500043432D2D422D2D2D2D4F2D2D2D2D2D425B
:10FD60004D2D2D2D2D2D2D2D2D2D2D2D2D2D424279
:10FD70002D4F4F4F4F422D2D2D2D2D2D2D2DD5F8A3
:10FD800044310133C5F84431D5F81C31B3F5006F67
:10FD90000FDC0133A1682846C5F81C31FFF7BCFF12
:10FDA000E1682846FFF7B8FFD5F81C31013BC5F8DC
:10FDB0001C3138BDA3681B78052B02BFD5F838313C
:10FDC0000133C5F83831DFE7E468A8E7A468A6E79F
:10FDD00038B5D0F80011002504464554D0E9423228
:10FDE0009847D4F82831C4F800510133C4F82831B9
:10FDF00038BD38B5D0F8003104460D46FF2B01D18F
:10FE0000FFF7E6FFD4F800315A1CC4F80021E5548E
:10FE100084F8045138BD70B506460C468D18AC42C6
:10FE200000D170BD14F8011B3046FFF7E2FFF6E782
:10FE3000002320B102782F2A01D182680AB918461E
:10FE400070470133C068F4E713B5044608460191D2
:10FE500006F012F801990246204602B0BDE81040B3
:10FE6000D9E710B588B004460A46054901A811F043
:10FE700097FC01A92046FFF7E7FF08B010BD00BFBF
:10FE80001FC7020001680246F0B50B786FF000460C
:10FE90000A246E2B05BF4B1C0125002503604FF083
:10FEA000000008BF4B78A3F13001CFB2092F02D96F
:10FEB00005B14042F0BD711AB1FBF4F1814208DB9B
:10FEC00004FB0033A3F130001368591C11605B7808
:10FED000E9E74FF0FF30EDE738B50546FFF78CFE58
:10FEE000044630B14223037005F10C00FFF7CAFF4E
:10FEF000A060204638BDC36810B51B7804465F2B50
:10FF000010D06E2B02D14FF0FF3010BD0C30FFF738
:10FF1000B9FF0130F7D4E3681A785F2AF3D10133CF
:10FF2000E360F2E70020F6E738B5C36804461A78C4
:10FF3000542A01D0002038BD0133C360FFF7DBFF36
:10FF4000051EF7DB2046FFF757FE0028F3D00523F8
:10FF500085600370EFE770B504460C30FFF792FF41
:10FF6000051E30DDE66863689B1B9D4229DCA268A4
:10FF700073195207E36004D5725D242A04BF01336C
:10FF8000E360092D1ADD08221049304614F075FA95
:10FF9000A0B9337A2E2B03D05F2B01D0242B0DD1A7
:10FFA000737A4E2B0AD1E06A152209491630451B97
:10FFB000E5622046FFF770FEA06270BD2A4631461A
:10FFC000F7E70020F8E70020F7E700BF90CB02003A
:10FFD00099CB020037B50446856A0A46E36819786A
:10FFE000422903D01046A56203B030BD013320463C
:10FFF0000192E360FFF7AFFF019A03464C212046D0
:020000021000EC
:10000000FFF709FE0246E9E738B5044639B9C36887
:100010001A780AB9002038BD5A1CC26019786829BC
:100020000BD104F10C00FFF72DFFE3681A785F2A6B
:10003000F0D101330120E360EDE77629EAD104F144
:100040000C052846FFF71EFFE3681A785F2AE1D106
:1000500001332846E360E6E70378722B12D0562B73
:1000600010D04B2B0ED0442B0AD1407800F0DF0388
:100070004F2B07D0773801288CBF00200120704714
:10008000002070470120704703685A78632A0AD11C
:100090001878A0F16303012B07D9723801288CBFAF
:1000A000002001207047002070470120704738B5BC
:1000B000C36804461A785F2A01D0012038BD5A1C53
:1000C0000C3002605A785F2A05BF023302250125F1
:1000D0000360FFF7D7FE00280ADB022DEDD10928C7
:1000E000EBDDE3681A785F2A02D10133E360E4E7CD
:1000F0000020E3E700B9704703782F2B07D10029D0
:1001000004DD0139C068F5E780687047FCD0002045
:1001100070472DE9F0414B1C144652688046A56893
:100120000F461344AB421AD9E26892B9002D08BFBA
:100130000225AB420FD82946206811F0FFFA064687
:1001400058B9206810F0D6FF0123A660E360C4E927
:100150000066BDE8F0816D00EBE72060A560E56812
:10016000002DF6D13A464146D4E90003184414F074
:1001700092F9D4E900323B449D546168394461608E
:10018000E7E70346D0F8100118B90122C3F8182197
:100190007047096843680029D86800DBAAE7704700
:1001A0002DE9F04105460C460126254FDFF89480E5
:1001B0006CB12378082B14D92C2B29D8172B2BD9C9
:1001C000183BDBB206FA03F313EA080F24D0002031
:1001D00033E006FA03F33B42F9D19B071CD5E468F0
:1001E000E6E7082B18D801A252F823F0CF0101004E
:1001F000190201001902010019020100190201008F
:1002000027020100CF010100DF010100DF01010031
:10021000323BDBB21A2BDCD9A1682846FFF7C0FFBE
:100220000028DCD009E004F108012846FFF7A9FF07
:100230000028CCD003782F2BC9D1BDE8F08100BFB6
:100240000180710601801000C2682DE9F041137829
:100250000446532B4DD1531CC360537863B1931C98
:10026000C36053785F2B70D0A3F13002092A60D9A4
:10027000A3F14102192A5CD9A26802F00802002AFF
:1002800014BF0126002606D129B1E2681278433A4C
:10029000012A98BF0E460722314D2978994259D13B
:1002A0006F6957B12046D5F81880FFF7A5FC18B143
:1002B0001823C0E902780370A062002E47D0D5E968
:1002C0000365E36A20462B44E362FFF795FC014691
:1002D00018B11823C0E902650370E3681B78422B4C
:1002E00024D12046FFF776FE01462046FFF706FDA3
:1002F000E0B900211AE01146A3F13002092A1BD807
:1003000000FB0133A3F130029142F2D8E1680B788F
:10031000002BF0D04B1CE3600B785F2BEBD101324C
:10032000236A9342E5D9E36953F822100846BDE8F1
:10033000F08100212420DFE7A3F14102192AD8D857
:1003400000FB0133A3F13702DEE70022E8E7D5E93D
:100350000165B6E7013A05F11C059ED1C9E700BF6A
:100360003C530200C36870B51A7804464C2A01D089
:10037000002070BD5A1CC2605A785F2A28D05A2AC1
:1003800028D000F02BFA05460028F1D00378272B5F
:1003900006D18268137C1BB1E36A52689B1AE36240
:1003A000E3681A786E2A05BF01333E263D26E360D6
:1003B000E168E2681378452B1DD1521A2046FFF7F9
:1003C0006BFC2A46034631462046FFF724FC0BE02F
:1003D0000233C360E3681A785A2A11D1013300212D
:1003E0002046E36001F012F9E3681A78452ABFD18C
:1003F0000133E360BDE7002BBAD00132E260D8E7F9
:100400000020F1E7C368F7B51A7804464C2A03D1F7
:1004100003B0BDE8F040A5E7542A03D103B0BDE81E
:10042000F04081E5732A2DD15A78722A20D1023307
:10043000C36000F0D3F90546204600F0A0FEE36853
:100440001B78492B08D003462A460121204603B0D9
:10045000BDE8F040FFF7DFBB0190204600F0F5FC5F
:10046000019A034604212046FFF7D5FB0346EBE73C
:10047000702A62D10233C360FFF7C4FF0023024633
:100480004B21E3E7662A1FD15A78702A55D19A1C6E
:10049000C2609A78542A0DD103330026C3602046E7
:1004A000FFF7AAFB054610B10623866003702846B5
:1004B00003B0F0BDFFF71FFDC34333F0004301D18C
:1004C0000025F4E7461CEAE7A2F13001092906D924
:1004D0006F2A15D15A786E2A2FD10233C360204675
:1004E00000F04DFE05460028EAD0E3681B78492B52
:1004F000DDD1204600F0A9FC2A4603460421A5E7E9
:10050000692A01D0742A18D159786C2915D102337F
:10051000742AE3600FD1204600F060F90546E368D5
:100520005B78002BCCD04521204600F02AF92A46E2
:10053000034631218AE70025F1E7204600F08FFCD1
:1005400005460028BCD00378322B13D1836882493A
:100550009A681E68023AE36A30461344E36205F083
:1005600081FCAB68D0B9204600F038F903462A4632
:1005700037216BE7342B3CD0A2D8332BA0D1836832
:10058000032B9DD801A252F823F000BFAB05010058
:1005900009060100C1040100C1040100DF68032F46
:1005A0008ED8DFE807F00206367C00232A46362183
:1005B0004CE73378702B01D06D2B08D172789A42BA
:1005C00005D1E3681A785F2A02D10133E36000277E
:1005D0006249304605F046FCB8B9204600F006FCFA
:1005E000002FC3D00346024639212046FFF713FBF4
:1005F000BCE7E3681A785F2A06D10133452120461B
:10060000E36000F0BEF8B1E700272046FFF7FAFEEE
:10061000E6E7A868FFF738FDB8B1204600F0DEF83D
:1006200007464F49304605F01DFCC0B9452120461C
:1006300000F0A7F8064633463A4639212046FFF730
:10064000EAFA2A460346382100E733782046662B2B
:1006500002D100F004FCE3E7FFF7D4FEE0E74149F4
:10066000304605F0FFFB20B13F49304605F0FAFB6C
:1006700088B9204600F083FDE36806461B78492BC5
:10068000D9D1204600F0E1FB324603460421204642
:10069000FFF7C1FACEE72046FFF7B4FECAE73349B9
:1006A000304605F0DFFBE8B92046FFF7ABFE064613
:1006B0002046FFF7A7FE07462046FFF7A3FE0028C7
:1006C0003FF4FEAE03463A463C212046FFF7A3FA2C
:1006D000324603463B212046FFF79DFA2A46034651
:1006E0003A21B3E63378662B03D1204600F0B7FBFE
:1006F000DDE76E2B7FF4E4AE7378772B02D0612BAD
:100700007FF4DEAE5F21204600F03BF8064620462F
:1007100000F064F8E36807461A78452A03D10133EC
:100720000020E360CEE7702A0AD15A78692A7FF464
:10073000C7AE023345212046E36000F022F8C1E74E
:10074000692A7FF4BDAE5B786C2B7FF4B9AE20468E
:10075000FFF758FEB6E700BF34D00200B8CB020066
:10076000AFCB0200B2CB020052CE0200B5CB0200EA
:1007700038B50123056B04460363FFF743FE256389
:1007800038BDC268002373B50D4611780446019345
:10079000A94208D101322E21C2601A4602B0BDE83A
:1007A0007040FFF738BA01AE2046FFF7E1FF02467E
:1007B00010B9002002B070BD00232E212046FFF7A3
:1007C0002AFA30600028F4D0E36800F10C061A78A9
:1007D000AA42E9D101330198E360EBE72DE9FF413B
:1007E000C26804461046FFF737FC50B3002203A945
:1007F000204600F0D9FB054618B9002004B0BDE83A
:10080000F081E36820461B78462B17D100F088FC66
:1008100028602B68002BF0D01A781F3A012A05D8DF
:1008200003999A6899602B6803932A60039920467C
:10083000FFF764FA002840F0B480DEE7FFF7CEFF50
:10084000E6E71178A1F130034A2BD6D801A050F881
:1008500023F000BFC9090100C9090100C90901004D
:10086000C9090100C9090100C9090100C90901003C
:10087000C9090100C9090100C9090100FB070100FC
:10088000FB070100FB070100FB070100FB0701005C
:10089000FB070100FB070100D1090100FB07010074
:1008A000370B0100930B0100FB070100BF0901009A
:1008B000490B0100FB070100FB070100FB070100DA
:1008C000FB070100FB070100230A0100C909010021
:1008D000010B0100130B0100FB070100250B0100B8
:1008E000B30A0100450A01005B0B0100FB07010090
:1008F000FB070100FB070100FB070100C90901001C
:10090000FB070100FB070100FB070100FB070100DB
:10091000FB070100FB0701008109010081090100BB
:10092000810901008109010081090100810901009B
:10093000810901008109010081090100810901008B
:10094000FB07010081090100810901008109010003
:1009500081090100FB070100FB070100FB07010003
:100960008109010081090100A70901008109010035
:10097000810901008109010081090100810901004B
:10098000BF4B14226139204602FB0131FFF797F972
:100990008268E36A526803901344E362E3680133B8
:1009A000E36003982AE701322046E260FFF7D3FABA
:1009B0000023024628212046FFF72DF902E02046B9
:1009C00000F0AEFB039031E7204600F0DBFCF9E7D6
:1009D000511CE16053785F2B15D0303B092B0ED8AA
:1009E000E3685A1CE2605B78303B092BF8D9521A55
:1009F0002046FFF751F9054630B90020E2E72046CE
:100A0000FFF7B6FEF7E70025E3681A785F2AF4D10E
:100A100001332046E360FFF7E1FE2A4603462A2120
:100A2000C9E701322046E260FFF7D8FE05460028FC
:100A3000E3D02046FFF7D2FE03460028DDD02A4649
:100A40002B21B8E72046FFF76FFAE56803900146CF
:100A50002B78492B7FF4EAAE636B73B92046FFF71E
:100A60004DF900283FF4C9AE039A2046019200F0E8
:100A7000ECF9019A034604219DE72046D4F814803E
:100A8000276AE66A00F0E1F9E2681278492A0AD199
:100A9000019020460399FFF731F9019B00283FF4AC
:100AA000ADAE039AE7E7E560C4F814802762E6621A
:100AB000BCE65378A3F13002092A04D95F2B02D097
:100AC000413B192B10D800212046FFF7BDFBE368FE
:100AD000039005461B78492B7FF463AF204600F056
:100AE000B4F92A460346C6E7204600F04BFC0390C3
:100AF00000283FF49BAE0378182B7FF497AE50E7A5
:100B000001322046E260FFF769FE002302462421FD
:100B100051E701322046E260FFF760FE0023024603
:100B2000222148E701322046E260FFF757FE00230A
:100B3000024623213FE701322046E260FFF74EFEE6
:100B400000230246252136E701322046E260FFF706
:100B500045FE0023024626212DE701322046E260B1
:100B6000FFF7F9F9E368039005461B78492B09D193
:100B7000204600F06AF92A46034604212046FFF782
:100B80004AF803902046FFF729FE039B02462121E5
:100B900011E7531CE3605378002B3FF42EAE931CF7
:100BA000E3605378462B00F09580543BD9B222295C
:100BB0003FF623AE222B3FF620AE01A151F823F0E1
:100BC0004D0C0100FB070100FB070100FB070100C2
:100BD000FB070100FB070100FB070100FB07010009
:100BE000FB070100FB070100FB070100FB070100F9
:100BF000FB070100930C0100FB070100A10C0100A1
:100C0000BD0C0100C10C0100A70C0100FB07010095
:100C1000C50C0100D10C0100FB070100FB0701001E
:100C2000FB070100FB070100770D0100FB07010036
:100C3000850C0100FB070100FB070100CD0C010042
:100C40004D0C0100C90C0100330D01002046FFF7D7
:100C50008FFD0023024643212046FEF7DCFF039070
:100C600000283FF4E3ADE3681A7812B90023039338
:100C7000DCE55A1CE2601B78452BF7D1D6E500BFB6
:100C8000005402002046FFF7A9FD002302464B2135
:100C900091E6042239492046FEF7FEFF039080E6E4
:100CA0000E223749F7E737492046FFF708F8039047
:100CB0008268E36A52681344E36272E63249F3E7FA
:100CC0003249F1E73249EFE73249EDE73249EBE7E4
:100CD0003249E9E72046FEF78FFF2C23039003708B
:100CE000E3681B78303BDBB2092B94BF0123002360
:100CF000838103D804F10C00FFF7C4F82046039D5C
:100D0000FFF76CFD039BA8609B68002B3FF475AD5B
:100D100004F10C00FFF7B6F8E268137813B1531C26
:100D2000E3601378A3F1730253425341039AD381D2
:100D300037E693785F2B18D103322046E260FFF745
:100D400017FD054678B1E3681A785F2A11D101339F
:100D50002046E360FFF742FD2A4603462D21204648
:100D6000FEF759FF0546039560E52046FFF7B4F806
:100D7000E7E70025F7E70A4996E700BFBBCB02008B
:100D8000C0CB0200085602001C560200305602007A
:100D900044560200585602006C560200805602006B
:100DA00094560200C26810B5137804464C2B14D038
:100DB00006D8493B012B14D92046BDE810400DE56B
:100DC000582BF9D10132C260FFF7D2FCE3681A78E0
:100DD000452A09D10133E36010BDBDE81040FFF79B
:100DE000C1BABDE8104030E00020F5E7C36873B534
:100DF0001A780446856A452A09D101332F21C36038
:100E000000231A4602B0BDE87040FEF704BF00237D
:100E100001AE01932046FFF7C5FF024610B900203E
:100E200002B070BD00232F212046FEF7F4FE306093
:100E30000028F4D0E36800F10C061A78452AE9D1BD
:100E400001330198A562E360EAE7C2681178493985
:100E5000012902D80132C260C8E700207047C36888
:100E60002DE9F0411A78044612B15A1CC2601A7872
:100E7000E3681978002935D0591C762AE160197881
:100E800017D1A1F13006F3B2092B2BD82046FFF77A
:100E900062F805462046FEF7AFFE002846D0002D3A
:100EA00044D0002343603323C0E902650370BDE8EA
:100EB000F081632A16D1762914D12046D4E90C3565
:100EC000B3FA83F35B096363FFF788FC636B024645
:100ED00033B1002335212046FEF79DFE6563E6E72A
:100EE0003421F8E743250020114E2B1A03EBD3736E
:100EF00000EB63031F0106EB0318F75997F800C0D6
:100F000094450ED17F788F420BD12046FEF774FEB8
:100F10000028CCD03223C0F808800370C7E71D46F4
:100F2000E3E79CBF581C2B469842F8D10020BEE74F
:100F3000A856020037B50023044601AD0193E268CC
:100F40001378EBB1452B1BD02E2B19D0522B01D08F
:100F50004F2B02D15378452B12D02046FFF73EFC91
:100F6000024610B9002003B030BD00232E212046D8
:100F7000FEF751FE28600028F4D000F10C05DEE7F2
:100F800001980028EED0C268002AECD18368197855
:100F90002729E8D199680B7C092BE4D1E36A4968D9
:100FA0005B1AE3628260DEE72DE9F84F171E0D46FB
:100FB000C368044614BF4FF01E0A4FF01B0A19788D
:100FC00015BF4FF01D094FF01A094FF01C084FF0E4
:100FD00019082E46E2681046FFF73EF8A0B9002F28
:100FE00039D1462937D11D201E241C27AE4232D0CC
:100FF0002B681A781A2A70D01B2A70D0192A00D1AF
:101000001F702D680835F1E7531C7229E36011D178
:10101000E36AC3460933E3620020034600225946CF
:101020002046FEF7F8FD3060A0B1E36800F1080645
:101030001978CFE7562904D1E36ACB460933E36236
:10104000EAE74B2904D1E36AD3460633E362E3E7D8
:1010500053781BB900263046BDE8F88F931CE36037
:1010600092F801B0BBF1780F06D1E36A00204FF08F
:101070004D0B1133E362D0E7BBF16F0F02D0BBF130
:101080004F0F12D1E36ABBF14F0F03F10903E36283
:101090001FD12046FFF76CFB0028DBD0E3681A78ED
:1010A000452AD7D10133E360B7E7BBF1770FD1D140
:1010B000E36A20460633E362FFF73CFF0028C9D00D
:1010C000E3681A78452AC5D101334FF0500BE3602D
:1010D000A3E700204FF04F0B9FE7187091E71C70BB
:1010E0008FE7C36870B51A7805464A2A08D10133DC
:1010F000C3602846FFF772FB044620B9002070BD8C
:101100000029F6D10C462846FFF714FF03460028B5
:10111000F4D0224628462921BDE87040FEF77BBD69
:1011200010B50446806810F4802005D1A36BB3F598
:10113000006F0DD80133A363E3681A78462A08D0FC
:101140000020A3685B035EBFA36B03F1FF33A363BF
:1011500010BD5A1C01212046E2605A78592A04BF6A
:101160000233E360FFF7BDFF01462046FEF7B0FD06
:10117000E3681A78452AE3D10133E360E1E7F8B583
:10118000C36805461A78A2F1300109290DD8FEF787
:10119000E2FE0446EB681B78422B40F0A08021461B
:1011A0002846BDE8F840FEF715BFA2F161011929F4
:1011B00024D86F2A04D15A786E2A04BF0233C36040
:1011C0002846FFF74CFE044660B30378322BE1D18A
:1011D0008268EB6A9168073310680B446849EB62D8
:1011E00004F040FE0028D5D12846FEF7B4FE224682
:1011F000034637212846FEF70EFDCAE7A2F1430158
:10120000012963D8866A46B1327822B9EA6AF16860
:101210000A44EA6201E0182AF8D01A78432A03D077
:10122000442A25D00024B5E75A78492A05BF01335E
:1012300001220022EB60EB685E78A6F131010429FF
:10124000F0D80233EB6012B12846FFF7C7FA284600
:10125000AF6AFEF7D1FC04460028E3D0002FE1D0AE
:101260000023303EC760436007230672037091E796
:101270005A78303A052AD5D801A151F822F000BF9A
:10128000C912010099120100BD12010025120100CE
:10129000C1120100C5120100022702332846EB608B
:1012A000FEF7AAFC04460028BCD0002EBAD00023CA
:1012B0000772C6604360082303706BE70327ECE7FF
:1012C0000427EAE70527E8E70127E6E74C2A0FD1DC
:1012D0000133C360FEF73FFE044610B900242046E8
:1012E000F8BD2846FEF7E3FE00287FF453AFF5E78C
:1012F000552AF3D15A786C2A15D0742AEED15A1C8B
:10130000C2605A78742A8DD10233C360FEF7F3FDB0
:10131000061E87DB2846FEF76FFC044638B34823D9
:101320008660037023E05A1CC2605A786C2A7FF4EE
:1013300079AF0233C360FFF7FDFD074600283FF495
:1013400071AFEB681A78452A7FF46CAF01332846F9
:10135000EB60FEF7D0FD061EFFF664AF2846FEF7F1
:101360004BFC044618B14623C0E9027603702146BF
:101370002846FEF7C3FC00287FF40CAF52E700BFFD
:10138000CFCB02002DE9FF47C36804461A78552ADF
:1013900000F0068115D84E2A41D0532A00F004816E
:1013A0002046FFF7ECFEE36805461B78492B40F02A
:1013B000C68029462046FEF7A1FC002840F00381A4
:1013C00035E05A2AECD101330021C36000F01EF948
:1013D000054660B3E3681A78452A28D15A1CE260B2
:1013E0005A78732A40F0AF8002332046E360FEF75C
:1013F0005EFEE0B10E2282492046FEF74DFC034618
:101400002A78032A05D1EA681178292904BF002126
:1014100091602A4602212046FEF7FDFBC2E001331F
:10142000012203A9C360FFF7BFFD074608B90025E5
:1014300085E000212046FEF74BFC4FF0000A804675
:10144000DFF8C491E3681E7816B900233B60EEE72D
:10145000442E18D15B78204603F0DF03542B0FD1C4
:10146000FFF7BCF90546BAF1000F1ED1E3681B78FF
:10147000452B3DD029462046FEF740FCC0BBE4E7A3
:10148000FFF77DFEEEE7A6F13002D2B21C2A0ED99C
:10149000A6F16102192A01D9552E1FD12046FFF766
:1014A0006EFE0546BAF1000F15D001210DE029FAB4
:1014B00002F2D207F2D4492E1CD1BAF1000FC4D0E7
:1014C0002046FFF7C2FC042105462B465246204623
:1014D000FEF7A1FB0546532EC8D109E0532EEAD1F1
:1014E00001212046FEF7B0FE0546BAF1000FDCD11F
:1014F000AA46A7E7542E03D12046FEF715FDB1E713
:10150000452E08D04D2EA0D1BAF1000F9DD0013349
:101510005546E360ECE7C7F800A0BAF1000F86D0AB
:10152000B8F1000F04D0039ACDF80C80C8F8082059
:101530001A78452A7FF47BAF0133039DE360284688
:1015400004B0BDE8F087642A10D102332046E3607E
:10155000FEF7D1FC071EFFF66AAF2046FFF712FF29
:10156000064630B97B1C0FD1334649E74FF0FF37B1
:10157000F3E70378462BF5D0482BF3D02046FEF74F
:1015800096FD0028EED152E72046FEF735FB0346D4
:1015900000283FF435AF4722C0E9026702702FE709
:1015A000FFF7EDFD0546CAE75A78742A12D00021EC
:1015B000FEF74AFE01230546E2681278492ABED1A9
:1015C000002B3FF4F6AE2046FFF73FFC2A460346C9
:1015D000042120E7023303220A49C360FEF75CFBC3
:1015E00001902046FFF7CBFD019A034601212046DA
:1015F000FEF711FBE36A05460333E3620023DBE7F2
:10160000D2CB0200E1CB0200FF030810C3682DE932
:10161000F7431A7804460E46472A02D0542A40F06F
:101620008D81E26A02F11401E1621978542908D12E
:10163000591CE160597819BB0025284603B0BDE864
:10164000F0834729F8D15A1CE2605A78002AF3D077
:101650009A1CE2605A78542A00F03F8100F2E6803A
:10166000412A00F03281522AE6D12046FFF78AFE55
:1016700001902046FEF730FC019A034616215DE0FA
:10168000991CE1605978572936D84029D4D9413975
:101690001629D1D801A353F821F000BF1F1801006B
:1016A00039160100AF170100391601003916010083
:1016B000E717010039160100031801005B1701004C
:1016C000F51701003916010039160100391601001D
:1016D00039160100391601003916010039160100CA
:1016E0003916010069170100491701003916010078
:1016F0002D1701001118010068293CD0762948D027
:10170000632999D100212046FEF77EFC002893D062
:1017100000212046FEF778FC00288DD000212046CD
:10172000FFF774FF00230246112107E00F32204625
:10173000E262FFF753F8002302460921204603B076
:10174000BDE8F043FEF767BA0A322046E262FFF7CF
:1017500045F8002302460A21F0E72046FFF73EF84D
:10176000002302460C21E9E72046FFF737F8002363
:1017700002460D21E2E72046FEF746FC00283FF432
:101780005BAF00212046FFF741FF002302460F21F7
:10179000D4E72046FEF738FC00283FF44DAF002187
:1017A0002046FFF733FF002302461021C6E72046FC
:1017B000FFF714F8054604F10C00FEF763FB002860
:1017C000FFF63AAFE26813785F2B7FF435AF013252
:1017D0002046E260FFF702F8E36A02460B21053378
:1017E000E3622B46AAE72046FEF7F8FF00230246F5
:1017F0000E21A3E72046FEF7F1FF00230246122147
:101800009CE72046FFF7BEFD00230246142195E722
:101810002046FFF7B7FD0023024615218EE720463C
:10182000FFF7C0FA00230246302187E7562A45D049
:10183000722A7FF401AF04F10C00FEF723FB0128AC
:101840007FF7FAAEE3681A78002A3FF4F5AE5D1C24
:10185000E5601B785F2B7FF4EFAE461E4FF000086B
:1018600041272B78002B3FF4E7AE242B50D16D7825
:10187000532D49D05F2D49D0242D7FF4DDAE204675
:10188000FEF7BAF908B107708560E568023E0235D7
:10189000E56000283FF4D0AEB8F1000F08D0034651
:1018A000424640212046FEF7B6F900283FF4C4AE78
:1018B000002E27DC002302463F213FE72046FFF7AA
:1018C00061FD00230246132138E700212046FFF77F
:1018D0009DFE00230246172130E79A78002120461A
:1018E00052B1DA1CE2609B786E2B05D1FFF78EFEB9
:1018F000002302464A2121E7FFF788FE0023024623
:1019000049211BE78046ACE72F25B8E72E25B6E72F
:101910004FF0000915F809302BB1242B03D009F141
:101920000109B145F6DB29464A462046A6EB0906E1
:10193000FEF7B2F9E5684D44E560AAE7FFF722FD3E
:10194000054600283FF478AE16B1A368D90711D533
:10195000E3681B78002B3FF470AE452B3FF46DAE6F
:1019600029460A78042A38D017D8022A20D0002124
:1019700021E0AD682B781846FEF730F90028F8D141
:10198000022B7FF45AAEEB681878FEF727F900288F
:101990003FF453AE9B68EB60F5E74D2A03D004D8C3
:1019A0001C3A042AE3D8896803E04F3A012AF9E790
:1019B000C9680029D5D12046FFF793FB00283FF4E2
:1019C0003BAE36B92B78022B03D10378292B08BF05
:1019D000866003462A460321B0E68B686BB119780E
:1019E000082906D806290DD80139012908D900236C
:1019F00003E0A1F135025342534183F00101DAE7DC
:101A0000DB68EBE70123F8E72DE9F04F044697B0D8
:101A10000E4615463AB15268012A04DCD0F81C3152
:101A2000B3F5806F05DD0123C4F8183117B0BDE8A8
:101A3000F08F0133013202A902956A60C0F81C31AF
:101A4000D0F81881D0F82C31C0F82C110393B8F1DC
:101A5000000F5DD12B78502B00F23486DFE813F0B5
:101A60005100B600B600DD002001670181079E012C
:101A7000A301AC01B501BE01D001D901E201EB0126
:101A8000F401FD0106020F0218022102560268024B
:101A900083028802880288023E033E033E033E031F
:101AA0003E033E033E03C602C6023E033E0343031B
:101AB0004D0352038F03F2030D04F2032D042D0492
:101AC000950159046E048A0432069404DE04E40489
